{
  "contractName": "MetaMall",
  "abi": [
    {
      "inputs": [],
      "stateMutability": "nonpayable",
      "type": "constructor"
    },
    {
      "anonymous": false,
      "inputs": [
        {
          "indexed": true,
          "internalType": "address",
          "name": "owner",
          "type": "address"
        },
        {
          "indexed": true,
          "internalType": "address",
          "name": "approved",
          "type": "address"
        },
        {
          "indexed": true,
          "internalType": "uint256",
          "name": "tokenId",
          "type": "uint256"
        }
      ],
      "name": "Approval",
      "type": "event"
    },
    {
      "anonymous": false,
      "inputs": [
        {
          "indexed": true,
          "internalType": "address",
          "name": "owner",
          "type": "address"
        },
        {
          "indexed": true,
          "internalType": "address",
          "name": "operator",
          "type": "address"
        },
        {
          "indexed": false,
          "internalType": "bool",
          "name": "approved",
          "type": "bool"
        }
      ],
      "name": "ApprovalForAll",
      "type": "event"
    },
    {
      "anonymous": false,
      "inputs": [
        {
          "indexed": true,
          "internalType": "address",
          "name": "from",
          "type": "address"
        },
        {
          "indexed": true,
          "internalType": "address",
          "name": "to",
          "type": "address"
        },
        {
          "indexed": true,
          "internalType": "uint256",
          "name": "tokenId",
          "type": "uint256"
        }
      ],
      "name": "Transfer",
      "type": "event"
    },
    {
      "anonymous": false,
      "inputs": [
        {
          "indexed": true,
          "internalType": "uint256",
          "name": "tokenId",
          "type": "uint256"
        },
        {
          "indexed": true,
          "internalType": "address",
          "name": "user",
          "type": "address"
        },
        {
          "indexed": false,
          "internalType": "uint64",
          "name": "expires",
          "type": "uint64"
        }
      ],
      "name": "UpdateUser",
      "type": "event"
    },
    {
      "inputs": [
        {
          "internalType": "address",
          "name": "to",
          "type": "address"
        },
        {
          "internalType": "uint256",
          "name": "tokenId",
          "type": "uint256"
        }
      ],
      "name": "approve",
      "outputs": [],
      "stateMutability": "nonpayable",
      "type": "function"
    },
    {
      "inputs": [
        {
          "internalType": "address",
          "name": "owner",
          "type": "address"
        }
      ],
      "name": "balanceOf",
      "outputs": [
        {
          "internalType": "uint256",
          "name": "",
          "type": "uint256"
        }
      ],
      "stateMutability": "view",
      "type": "function",
      "constant": true
    },
    {
      "inputs": [
        {
          "internalType": "uint256",
          "name": "tokenId",
          "type": "uint256"
        }
      ],
      "name": "getApproved",
      "outputs": [
        {
          "internalType": "address",
          "name": "",
          "type": "address"
        }
      ],
      "stateMutability": "view",
      "type": "function",
      "constant": true
    },
    {
      "inputs": [
        {
          "internalType": "address",
          "name": "owner",
          "type": "address"
        },
        {
          "internalType": "address",
          "name": "operator",
          "type": "address"
        }
      ],
      "name": "isApprovedForAll",
      "outputs": [
        {
          "internalType": "bool",
          "name": "",
          "type": "bool"
        }
      ],
      "stateMutability": "view",
      "type": "function",
      "constant": true
    },
    {
      "inputs": [],
      "name": "name",
      "outputs": [
        {
          "internalType": "string",
          "name": "",
          "type": "string"
        }
      ],
      "stateMutability": "view",
      "type": "function",
      "constant": true
    },
    {
      "inputs": [
        {
          "internalType": "uint256",
          "name": "tokenId",
          "type": "uint256"
        }
      ],
      "name": "ownerOf",
      "outputs": [
        {
          "internalType": "address",
          "name": "",
          "type": "address"
        }
      ],
      "stateMutability": "view",
      "type": "function",
      "constant": true
    },
    {
      "inputs": [
        {
          "internalType": "address",
          "name": "from",
          "type": "address"
        },
        {
          "internalType": "address",
          "name": "to",
          "type": "address"
        },
        {
          "internalType": "uint256",
          "name": "tokenId",
          "type": "uint256"
        }
      ],
      "name": "safeTransferFrom",
      "outputs": [],
      "stateMutability": "nonpayable",
      "type": "function"
    },
    {
      "inputs": [
        {
          "internalType": "address",
          "name": "from",
          "type": "address"
        },
        {
          "internalType": "address",
          "name": "to",
          "type": "address"
        },
        {
          "internalType": "uint256",
          "name": "tokenId",
          "type": "uint256"
        },
        {
          "internalType": "bytes",
          "name": "data",
          "type": "bytes"
        }
      ],
      "name": "safeTransferFrom",
      "outputs": [],
      "stateMutability": "nonpayable",
      "type": "function"
    },
    {
      "inputs": [
        {
          "internalType": "address",
          "name": "operator",
          "type": "address"
        },
        {
          "internalType": "bool",
          "name": "approved",
          "type": "bool"
        }
      ],
      "name": "setApprovalForAll",
      "outputs": [],
      "stateMutability": "nonpayable",
      "type": "function"
    },
    {
      "inputs": [
        {
          "internalType": "uint256",
          "name": "tokenId",
          "type": "uint256"
        },
        {
          "internalType": "address",
          "name": "user",
          "type": "address"
        },
        {
          "internalType": "uint64",
          "name": "expires",
          "type": "uint64"
        }
      ],
      "name": "setUser",
      "outputs": [],
      "stateMutability": "nonpayable",
      "type": "function"
    },
    {
      "inputs": [
        {
          "internalType": "bytes4",
          "name": "interfaceId",
          "type": "bytes4"
        }
      ],
      "name": "supportsInterface",
      "outputs": [
        {
          "internalType": "bool",
          "name": "",
          "type": "bool"
        }
      ],
      "stateMutability": "view",
      "type": "function",
      "constant": true
    },
    {
      "inputs": [],
      "name": "symbol",
      "outputs": [
        {
          "internalType": "string",
          "name": "",
          "type": "string"
        }
      ],
      "stateMutability": "view",
      "type": "function",
      "constant": true
    },
    {
      "inputs": [
        {
          "internalType": "uint256",
          "name": "tokenId",
          "type": "uint256"
        }
      ],
      "name": "tokenURI",
      "outputs": [
        {
          "internalType": "string",
          "name": "",
          "type": "string"
        }
      ],
      "stateMutability": "view",
      "type": "function",
      "constant": true
    },
    {
      "inputs": [
        {
          "internalType": "address",
          "name": "from",
          "type": "address"
        },
        {
          "internalType": "address",
          "name": "to",
          "type": "address"
        },
        {
          "internalType": "uint256",
          "name": "tokenId",
          "type": "uint256"
        }
      ],
      "name": "transferFrom",
      "outputs": [],
      "stateMutability": "nonpayable",
      "type": "function"
    },
    {
      "inputs": [
        {
          "internalType": "uint256",
          "name": "tokenId",
          "type": "uint256"
        }
      ],
      "name": "userExpires",
      "outputs": [
        {
          "internalType": "uint256",
          "name": "",
          "type": "uint256"
        }
      ],
      "stateMutability": "view",
      "type": "function",
      "constant": true
    },
    {
      "inputs": [
        {
          "internalType": "uint256",
          "name": "tokenId",
          "type": "uint256"
        }
      ],
      "name": "userOf",
      "outputs": [
        {
          "internalType": "address",
          "name": "",
          "type": "address"
        }
      ],
      "stateMutability": "view",
      "type": "function",
      "constant": true
    },
    {
      "inputs": [],
      "name": "removeFloor",
      "outputs": [],
      "stateMutability": "nonpayable",
      "type": "function"
    },
    {
      "inputs": [],
      "name": "addFloor",
      "outputs": [],
      "stateMutability": "nonpayable",
      "type": "function"
    },
    {
      "inputs": [
        {
          "internalType": "uint256",
          "name": "index",
          "type": "uint256"
        }
      ],
      "name": "addFloorAtIndex",
      "outputs": [],
      "stateMutability": "nonpayable",
      "type": "function"
    },
    {
      "inputs": [
        {
          "internalType": "uint256",
          "name": "index",
          "type": "uint256"
        }
      ],
      "name": "removeFloorAtIndex",
      "outputs": [],
      "stateMutability": "nonpayable",
      "type": "function"
    },
    {
      "inputs": [
        {
          "internalType": "uint256",
          "name": "floor",
          "type": "uint256"
        },
        {
          "internalType": "uint256",
          "name": "index",
          "type": "uint256"
        }
      ],
      "name": "getStore",
      "outputs": [
        {
          "components": [
            {
              "internalType": "address",
              "name": "owner",
              "type": "address"
            },
            {
              "internalType": "uint256",
              "name": "tokenId",
              "type": "uint256"
            },
            {
              "internalType": "uint16",
              "name": "storeNumber",
              "type": "uint16"
            },
            {
              "internalType": "uint256",
              "name": "price",
              "type": "uint256"
            },
            {
              "internalType": "uint256",
              "name": "rent",
              "type": "uint256"
            },
            {
              "internalType": "bool",
              "name": "isSaleable",
              "type": "bool"
            },
            {
              "internalType": "bool",
              "name": "isRentable",
              "type": "bool"
            },
            {
              "internalType": "address",
              "name": "user",
              "type": "address"
            },
            {
              "internalType": "uint256",
              "name": "expires",
              "type": "uint256"
            }
          ],
          "internalType": "struct MetaMall.StoreDetails",
          "name": "",
          "type": "tuple"
        }
      ],
      "stateMutability": "view",
      "type": "function",
      "constant": true
    },
    {
      "inputs": [],
      "name": "getAllStores",
      "outputs": [
        {
          "components": [
            {
              "internalType": "address",
              "name": "owner",
              "type": "address"
            },
            {
              "internalType": "uint256",
              "name": "tokenId",
              "type": "uint256"
            },
            {
              "internalType": "uint16",
              "name": "storeNumber",
              "type": "uint16"
            },
            {
              "internalType": "uint256",
              "name": "price",
              "type": "uint256"
            },
            {
              "internalType": "uint256",
              "name": "rent",
              "type": "uint256"
            },
            {
              "internalType": "bool",
              "name": "isSaleable",
              "type": "bool"
            },
            {
              "internalType": "bool",
              "name": "isRentable",
              "type": "bool"
            }
          ],
          "internalType": "struct MetaMall.Store[][]",
          "name": "",
          "type": "tuple[][]"
        }
      ],
      "stateMutability": "view",
      "type": "function",
      "constant": true
    },
    {
      "inputs": [
        {
          "internalType": "address",
          "name": "owner",
          "type": "address"
        }
      ],
      "name": "getOwnedStores",
      "outputs": [
        {
          "components": [
            {
              "internalType": "address",
              "name": "owner",
              "type": "address"
            },
            {
              "internalType": "uint256",
              "name": "tokenId",
              "type": "uint256"
            },
            {
              "internalType": "uint16",
              "name": "storeNumber",
              "type": "uint16"
            },
            {
              "internalType": "uint256",
              "name": "price",
              "type": "uint256"
            },
            {
              "internalType": "uint256",
              "name": "rent",
              "type": "uint256"
            },
            {
              "internalType": "bool",
              "name": "isSaleable",
              "type": "bool"
            },
            {
              "internalType": "bool",
              "name": "isRentable",
              "type": "bool"
            },
            {
              "internalType": "address",
              "name": "user",
              "type": "address"
            },
            {
              "internalType": "uint256",
              "name": "expires",
              "type": "uint256"
            }
          ],
          "internalType": "struct MetaMall.StoreDetails[]",
          "name": "",
          "type": "tuple[]"
        }
      ],
      "stateMutability": "view",
      "type": "function",
      "constant": true
    },
    {
      "inputs": [],
      "name": "getRentedStores",
      "outputs": [
        {
          "components": [
            {
              "internalType": "address",
              "name": "owner",
              "type": "address"
            },
            {
              "internalType": "uint256",
              "name": "tokenId",
              "type": "uint256"
            },
            {
              "internalType": "uint16",
              "name": "storeNumber",
              "type": "uint16"
            },
            {
              "internalType": "uint256",
              "name": "price",
              "type": "uint256"
            },
            {
              "internalType": "uint256",
              "name": "rent",
              "type": "uint256"
            },
            {
              "internalType": "bool",
              "name": "isSaleable",
              "type": "bool"
            },
            {
              "internalType": "bool",
              "name": "isRentable",
              "type": "bool"
            },
            {
              "internalType": "address",
              "name": "user",
              "type": "address"
            },
            {
              "internalType": "uint256",
              "name": "expires",
              "type": "uint256"
            }
          ],
          "internalType": "struct MetaMall.StoreDetails[]",
          "name": "",
          "type": "tuple[]"
        }
      ],
      "stateMutability": "view",
      "type": "function",
      "constant": true
    },
    {
      "inputs": [],
      "name": "getAvailableStores",
      "outputs": [
        {
          "components": [
            {
              "internalType": "address",
              "name": "owner",
              "type": "address"
            },
            {
              "internalType": "uint256",
              "name": "tokenId",
              "type": "uint256"
            },
            {
              "internalType": "uint16",
              "name": "storeNumber",
              "type": "uint16"
            },
            {
              "internalType": "uint256",
              "name": "price",
              "type": "uint256"
            },
            {
              "internalType": "uint256",
              "name": "rent",
              "type": "uint256"
            },
            {
              "internalType": "bool",
              "name": "isSaleable",
              "type": "bool"
            },
            {
              "internalType": "bool",
              "name": "isRentable",
              "type": "bool"
            },
            {
              "internalType": "address",
              "name": "user",
              "type": "address"
            },
            {
              "internalType": "uint256",
              "name": "expires",
              "type": "uint256"
            }
          ],
          "internalType": "struct MetaMall.StoreDetails[]",
          "name": "",
          "type": "tuple[]"
        }
      ],
      "stateMutability": "view",
      "type": "function",
      "constant": true
    },
    {
      "inputs": [
        {
          "internalType": "uint256",
          "name": "floor",
          "type": "uint256"
        },
        {
          "internalType": "uint256",
          "name": "storeNumber",
          "type": "uint256"
        },
        {
          "internalType": "uint256",
          "name": "_amountPerMonth",
          "type": "uint256"
        }
      ],
      "name": "setRentFee",
      "outputs": [],
      "stateMutability": "nonpayable",
      "type": "function"
    },
    {
      "inputs": [
        {
          "internalType": "uint256",
          "name": "floor",
          "type": "uint256"
        },
        {
          "internalType": "uint256",
          "name": "storeNumber",
          "type": "uint256"
        },
        {
          "internalType": "uint256",
          "name": "_price",
          "type": "uint256"
        }
      ],
      "name": "setPrice",
      "outputs": [],
      "stateMutability": "nonpayable",
      "type": "function"
    },
    {
      "inputs": [
        {
          "internalType": "uint256",
          "name": "floor",
          "type": "uint256"
        },
        {
          "internalType": "uint256",
          "name": "storeNumber",
          "type": "uint256"
        },
        {
          "internalType": "bool",
          "name": "_rentable",
          "type": "bool"
        }
      ],
      "name": "setRentable",
      "outputs": [],
      "stateMutability": "nonpayable",
      "type": "function"
    },
    {
      "inputs": [
        {
          "internalType": "uint256",
          "name": "floor",
          "type": "uint256"
        },
        {
          "internalType": "uint256",
          "name": "storeNumber",
          "type": "uint256"
        },
        {
          "internalType": "bool",
          "name": "_saleable",
          "type": "bool"
        }
      ],
      "name": "setSaleable",
      "outputs": [],
      "stateMutability": "nonpayable",
      "type": "function"
    },
    {
      "inputs": [
        {
          "internalType": "uint256",
          "name": "floor",
          "type": "uint256"
        },
        {
          "internalType": "uint256",
          "name": "storeNumber",
          "type": "uint256"
        },
        {
          "internalType": "uint256",
          "name": "_tokenId",
          "type": "uint256"
        },
        {
          "internalType": "uint64",
          "name": "month",
          "type": "uint64"
        }
      ],
      "name": "rent",
      "outputs": [],
      "stateMutability": "payable",
      "type": "function",
      "payable": true
    },
    {
      "inputs": [
        {
          "internalType": "uint256",
          "name": "floor",
          "type": "uint256"
        },
        {
          "internalType": "uint256",
          "name": "storeNumber",
          "type": "uint256"
        },
        {
          "internalType": "uint256",
          "name": "_tokenId",
          "type": "uint256"
        }
      ],
      "name": "buy",
      "outputs": [],
      "stateMutability": "payable",
      "type": "function",
      "payable": true
    }
  ],
  "bytecode": "0x60806040523480156200001157600080fd5b506040518060400160405280600e81526020017f4d6574614d616c6c2053686f70730000000000000000000000000000000000008152506040518060400160405280600281526020017f4c4c0000000000000000000000000000000000000000000000000000000000008152508181816000908051906020019062000098929190620019fe565b508060019080519060200190620000b1929190620019fe565b505050505033600960006101000a81548173ffffffffffffffffffffffffffffffffffffffff021916908373ffffffffffffffffffffffffffffffffffffffff160217905550600a600181600181540180825580915050039060005260206000205050600a600181600181540180825580915050039060005260206000205050600a600181600181540180825580915050039060005260206000205050600a600181600181540180825580915050039060005260206000205050600a600181600181540180825580915050039060005260206000205050600a600081548110620001a0576200019f62001aae565b5b906000526020600020016040518060e00160405280600960009054906101000a900473ffffffffffffffffffffffffffffffffffffffff1673ffffffffffffffffffffffffffffffffffffffff16815260200162000203620011a660201b60201c565b8152602001600061ffff168152602001606481526020016000815260200160011515815260200160001515815250908060018154018082558091505060019003906000526020600020906006020160009091909190915060008201518160000160006101000a81548173ffffffffffffffffffffffffffffffffffffffff021916908373ffffffffffffffffffffffffffffffffffffffff1602179055506020820151816001015560408201518160020160006101000a81548161ffff021916908361ffff160217905550606082015181600301556080820151816004015560a08201518160050160006101000a81548160ff02191690831515021790555060c08201518160050160016101000a81548160ff0219169083151502179055505050600a6000815481106200033c576200033b62001aae565b5b906000526020600020016040518060e00160405280600960009054906101000a900473ffffffffffffffffffffffffffffffffffffffff1673ffffffffffffffffffffffffffffffffffffffff1681526020016200039f620011a660201b60201c565b8152602001600161ffff168152602001606481526020016000815260200160011515815260200160001515815250908060018154018082558091505060019003906000526020600020906006020160009091909190915060008201518160000160006101000a81548173ffffffffffffffffffffffffffffffffffffffff021916908373ffffffffffffffffffffffffffffffffffffffff1602179055506020820151816001015560408201518160020160006101000a81548161ffff021916908361ffff160217905550606082015181600301556080820151816004015560a08201518160050160006101000a81548160ff02191690831515021790555060c08201518160050160016101000a81548160ff0219169083151502179055505050600a600081548110620004d857620004d762001aae565b5b906000526020600020016040518060e00160405280600960009054906101000a900473ffffffffffffffffffffffffffffffffffffffff1673ffffffffffffffffffffffffffffffffffffffff1681526020016200053b620011a660201b60201c565b8152602001600261ffff168152602001606481526020016000815260200160011515815260200160001515815250908060018154018082558091505060019003906000526020600020906006020160009091909190915060008201518160000160006101000a81548173ffffffffffffffffffffffffffffffffffffffff021916908373ffffffffffffffffffffffffffffffffffffffff1602179055506020820151816001015560408201518160020160006101000a81548161ffff021916908361ffff160217905550606082015181600301556080820151816004015560a08201518160050160006101000a81548160ff02191690831515021790555060c08201518160050160016101000a81548160ff0219169083151502179055505050600a60008154811062000674576200067362001aae565b5b906000526020600020016040518060e00160405280600960009054906101000a900473ffffffffffffffffffffffffffffffffffffffff1673ffffffffffffffffffffffffffffffffffffffff168152602001620006d7620011a660201b60201c565b8152602001600361ffff168152602001606481526020016000815260200160011515815260200160001515815250908060018154018082558091505060019003906000526020600020906006020160009091909190915060008201518160000160006101000a81548173ffffffffffffffffffffffffffffffffffffffff021916908373ffffffffffffffffffffffffffffffffffffffff1602179055506020820151816001015560408201518160020160006101000a81548161ffff021916908361ffff160217905550606082015181600301556080820151816004015560a08201518160050160006101000a81548160ff02191690831515021790555060c08201518160050160016101000a81548160ff0219169083151502179055505050600a60008154811062000810576200080f62001aae565b5b906000526020600020016040518060e00160405280600960009054906101000a900473ffffffffffffffffffffffffffffffffffffffff1673ffffffffffffffffffffffffffffffffffffffff16815260200162000873620011a660201b60201c565b8152602001600461ffff168152602001606481526020016000815260200160011515815260200160001515815250908060018154018082558091505060019003906000526020600020906006020160009091909190915060008201518160000160006101000a81548173ffffffffffffffffffffffffffffffffffffffff021916908373ffffffffffffffffffffffffffffffffffffffff1602179055506020820151816001015560408201518160020160006101000a81548161ffff021916908361ffff160217905550606082015181600301556080820151816004015560a08201518160050160006101000a81548160ff02191690831515021790555060c08201518160050160016101000a81548160ff0219169083151502179055505050600a600081548110620009ac57620009ab62001aae565b5b906000526020600020016040518060e00160405280600960009054906101000a900473ffffffffffffffffffffffffffffffffffffffff1673ffffffffffffffffffffffffffffffffffffffff16815260200162000a0f620011a660201b60201c565b8152602001600561ffff168152602001606481526020016000815260200160011515815260200160001515815250908060018154018082558091505060019003906000526020600020906006020160009091909190915060008201518160000160006101000a81548173ffffffffffffffffffffffffffffffffffffffff021916908373ffffffffffffffffffffffffffffffffffffffff1602179055506020820151816001015560408201518160020160006101000a81548161ffff021916908361ffff160217905550606082015181600301556080820151816004015560a08201518160050160006101000a81548160ff02191690831515021790555060c08201518160050160016101000a81548160ff0219169083151502179055505050600a60008154811062000b485762000b4762001aae565b5b906000526020600020016040518060e00160405280600960009054906101000a900473ffffffffffffffffffffffffffffffffffffffff1673ffffffffffffffffffffffffffffffffffffffff16815260200162000bab620011a660201b60201c565b8152602001600661ffff168152602001606481526020016000815260200160011515815260200160001515815250908060018154018082558091505060019003906000526020600020906006020160009091909190915060008201518160000160006101000a81548173ffffffffffffffffffffffffffffffffffffffff021916908373ffffffffffffffffffffffffffffffffffffffff1602179055506020820151816001015560408201518160020160006101000a81548161ffff021916908361ffff160217905550606082015181600301556080820151816004015560a08201518160050160006101000a81548160ff02191690831515021790555060c08201518160050160016101000a81548160ff0219169083151502179055505050600a60008154811062000ce45762000ce362001aae565b5b906000526020600020016040518060e00160405280600960009054906101000a900473ffffffffffffffffffffffffffffffffffffffff1673ffffffffffffffffffffffffffffffffffffffff16815260200162000d47620011a660201b60201c565b8152602001600761ffff168152602001606481526020016000815260200160011515815260200160001515815250908060018154018082558091505060019003906000526020600020906006020160009091909190915060008201518160000160006101000a81548173ffffffffffffffffffffffffffffffffffffffff021916908373ffffffffffffffffffffffffffffffffffffffff1602179055506020820151816001015560408201518160020160006101000a81548161ffff021916908361ffff160217905550606082015181600301556080820151816004015560a08201518160050160006101000a81548160ff02191690831515021790555060c08201518160050160016101000a81548160ff0219169083151502179055505050600a60008154811062000e805762000e7f62001aae565b5b906000526020600020016040518060e00160405280600960009054906101000a900473ffffffffffffffffffffffffffffffffffffffff1673ffffffffffffffffffffffffffffffffffffffff16815260200162000ee3620011a660201b60201c565b8152602001600861ffff168152602001606481526020016000815260200160011515815260200160001515815250908060018154018082558091505060019003906000526020600020906006020160009091909190915060008201518160000160006101000a81548173ffffffffffffffffffffffffffffffffffffffff021916908373ffffffffffffffffffffffffffffffffffffffff1602179055506020820151816001015560408201518160020160006101000a81548161ffff021916908361ffff160217905550606082015181600301556080820151816004015560a08201518160050160006101000a81548160ff02191690831515021790555060c08201518160050160016101000a81548160ff0219169083151502179055505050600a6000815481106200101c576200101b62001aae565b5b906000526020600020016040518060e00160405280600960009054906101000a900473ffffffffffffffffffffffffffffffffffffffff1673ffffffffffffffffffffffffffffffffffffffff1681526020016200107f620011a660201b60201c565b8152602001600961ffff168152602001606481526020016000815260200160011515815260200160001515815250908060018154018082558091505060019003906000526020600020906006020160009091909190915060008201518160000160006101000a81548173ffffffffffffffffffffffffffffffffffffffff021916908373ffffffffffffffffffffffffffffffffffffffff1602179055506020820151816001015560408201518160020160006101000a81548161ffff021916908361ffff160217905550606082015181600301556080820151816004015560a08201518160050160006101000a81548160ff02191690831515021790555060c08201518160050160016101000a81548160ff021916908315150217905550505062001fff565b6000620011bf60086200121560201b62002ebe1760201c565b6000620011d860086200122b60201b62002ed41760201c565b90506200120e600960009054906101000a900473ffffffffffffffffffffffffffffffffffffffff16826200123960201b60201c565b8091505090565b6001816000016000828254019250508190555050565b600081600001549050919050565b6200125b8282604051806020016040528060008152506200125f60201b60201c565b5050565b620012718383620012cd60201b60201c565b6200128660008484846200151360201b60201c565b620012c8576040517f08c379a0000000000000000000000000000000000000000000000000000000008152600401620012bf9062001b64565b60405180910390fd5b505050565b600073ffffffffffffffffffffffffffffffffffffffff168273ffffffffffffffffffffffffffffffffffffffff16036200133f576040517f08c379a0000000000000000000000000000000000000000000000000000000008152600401620013369062001bd6565b60405180910390fd5b6200135081620016bc60201b60201c565b1562001393576040517f08c379a00000000000000000000000000000000000000000000000000000000081526004016200138a9062001c48565b60405180910390fd5b620013a96000838360016200170560201b60201c565b620013ba81620016bc60201b60201c565b15620013fd576040517f08c379a0000000000000000000000000000000000000000000000000000000008152600401620013f49062001c48565b60405180910390fd5b6001600360008473ffffffffffffffffffffffffffffffffffffffff1673ffffffffffffffffffffffffffffffffffffffff16815260200190815260200160002060008282540192505081905550816002600083815260200190815260200160002060006101000a81548173ffffffffffffffffffffffffffffffffffffffff021916908373ffffffffffffffffffffffffffffffffffffffff160217905550808273ffffffffffffffffffffffffffffffffffffffff16600073ffffffffffffffffffffffffffffffffffffffff167fddf252ad1be2c89b69c2b068fc378daa952ba7f163c4a11628f55a4df523b3ef60405160405180910390a46200150f6000838360016200186360201b60201c565b5050565b6000620015418473ffffffffffffffffffffffffffffffffffffffff166200186960201b62002ee21760201c565b15620016af578373ffffffffffffffffffffffffffffffffffffffff1663150b7a02620015736200188c60201b60201c565b8786866040518563ffffffff1660e01b815260040162001597949392919062001d6e565b6020604051808303816000875af1925050508015620015d657506040513d601f19601f82011682018060405250810190620015d3919062001e24565b60015b6200165e573d806000811462001609576040519150601f19603f3d011682016040523d82523d6000602084013e6200160e565b606091505b50600081510362001656576040517f08c379a00000000000000000000000000000000000000000000000000000000081526004016200164d9062001b64565b60405180910390fd5b805181602001fd5b63150b7a0260e01b7bffffffffffffffffffffffffffffffffffffffffffffffffffffffff1916817bffffffffffffffffffffffffffffffffffffffffffffffffffffffff191614915050620016b4565b600190505b949350505050565b60008073ffffffffffffffffffffffffffffffffffffffff16620016e6836200189460201b60201c565b73ffffffffffffffffffffffffffffffffffffffff1614159050919050565b6200171e84848484620018d160201b62002f051760201c565b8273ffffffffffffffffffffffffffffffffffffffff168473ffffffffffffffffffffffffffffffffffffffff1614158015620017be5750600073ffffffffffffffffffffffffffffffffffffffff166007600084815260200190815260200160002060000160009054906101000a900473ffffffffffffffffffffffffffffffffffffffff1673ffffffffffffffffffffffffffffffffffffffff1614155b156200185d5760076000838152602001908152602001600020600080820160006101000a81549073ffffffffffffffffffffffffffffffffffffffff021916905560018201600090555050600073ffffffffffffffffffffffffffffffffffffffff16827f4e06b4e7000e659094299b3533b47b6aa8ad048e95e872d23d1f4ee55af89cfe600060405162001854919062001eb7565b60405180910390a35b50505050565b50505050565b6000808273ffffffffffffffffffffffffffffffffffffffff163b119050919050565b600033905090565b60006002600083815260200190815260200160002060009054906101000a900473ffffffffffffffffffffffffffffffffffffffff169050919050565b6001811115620019f857600073ffffffffffffffffffffffffffffffffffffffff168473ffffffffffffffffffffffffffffffffffffffff1614620019695780600360008673ffffffffffffffffffffffffffffffffffffffff1673ffffffffffffffffffffffffffffffffffffffff168152602001908152602001600020600082825462001961919062001f03565b925050819055505b600073ffffffffffffffffffffffffffffffffffffffff168373ffffffffffffffffffffffffffffffffffffffff1614620019f75780600360008573ffffffffffffffffffffffffffffffffffffffff1673ffffffffffffffffffffffffffffffffffffffff1681526020019081526020016000206000828254620019ef919062001f3e565b925050819055505b5b50505050565b82805462001a0c9062001fca565b90600052602060002090601f01602090048101928262001a30576000855562001a7c565b82601f1062001a4b57805160ff191683800117855562001a7c565b8280016001018555821562001a7c579182015b8281111562001a7b57825182559160200191906001019062001a5e565b5b50905062001a8b919062001a8f565b5090565b5b8082111562001aaa57600081600090555060010162001a90565b5090565b7f4e487b7100000000000000000000000000000000000000000000000000000000600052603260045260246000fd5b600082825260208201905092915050565b7f4552433732313a207472616e7366657220746f206e6f6e20455243373231526560008201527f63656976657220696d706c656d656e7465720000000000000000000000000000602082015250565b600062001b4c60328362001add565b915062001b598262001aee565b604082019050919050565b6000602082019050818103600083015262001b7f8162001b3d565b9050919050565b7f4552433732313a206d696e7420746f20746865207a65726f2061646472657373600082015250565b600062001bbe60208362001add565b915062001bcb8262001b86565b602082019050919050565b6000602082019050818103600083015262001bf18162001baf565b9050919050565b7f4552433732313a20746f6b656e20616c7265616479206d696e74656400000000600082015250565b600062001c30601c8362001add565b915062001c3d8262001bf8565b602082019050919050565b6000602082019050818103600083015262001c638162001c21565b9050919050565b600073ffffffffffffffffffffffffffffffffffffffff82169050919050565b600062001c978262001c6a565b9050919050565b62001ca98162001c8a565b82525050565b6000819050919050565b62001cc48162001caf565b82525050565b600081519050919050565b600082825260208201905092915050565b60005b8381101562001d0657808201518184015260208101905062001ce9565b8381111562001d16576000848401525b50505050565b6000601f19601f8301169050919050565b600062001d3a8262001cca565b62001d46818562001cd5565b935062001d5881856020860162001ce6565b62001d638162001d1c565b840191505092915050565b600060808201905062001d85600083018762001c9e565b62001d94602083018662001c9e565b62001da3604083018562001cb9565b818103606083015262001db7818462001d2d565b905095945050505050565b600080fd5b60007fffffffff0000000000000000000000000000000000000000000000000000000082169050919050565b62001dfe8162001dc7565b811462001e0a57600080fd5b50565b60008151905062001e1e8162001df3565b92915050565b60006020828403121562001e3d5762001e3c62001dc2565b5b600062001e4d8482850162001e0d565b91505092915050565b6000819050919050565b600067ffffffffffffffff82169050919050565b6000819050919050565b600062001e9f62001e9962001e938462001e56565b62001e74565b62001e60565b9050919050565b62001eb18162001e7e565b82525050565b600060208201905062001ece600083018462001ea6565b92915050565b7f4e487b7100000000000000000000000000000000000000000000000000000000600052601160045260246000fd5b600062001f108262001caf565b915062001f1d8362001caf565b92508282101562001f335762001f3262001ed4565b5b828203905092915050565b600062001f4b8262001caf565b915062001f588362001caf565b9250827fffffffffffffffffffffffffffffffffffffffffffffffffffffffffffffffff0382111562001f905762001f8f62001ed4565b5b828201905092915050565b7f4e487b7100000000000000000000000000000000000000000000000000000000600052602260045260246000fd5b6000600282049050600182168062001fe357607f821691505b60208210810362001ff95762001ff862001f9b565b5b50919050565b615d9b806200200f6000396000f3fe6080604052600436106101d75760003560e01c80636352211e11610102578063aa585d5611610095578063e030565e11610064578063e030565e146106af578063e985e9c5146106d8578063f6ea588214610715578063f9f027fa1461073e576101d7565b8063aa585d56146105e3578063b88d4fde1461060c578063c2f1f14a14610635578063c87b56dd14610672576101d7565b80638fc88c48116100d15780638fc88c481461052757806395d89b41146105645780639b2e0a2c1461058f578063a22cb465146105ba576101d7565b80636352211e1461044557806370a082311461048257806376e23cae146104bf5780638b4bd105146104fc576101d7565b806323b872dd1161017a57806340993b261161014957806340993b261461039857806342842e0e146103b4578063518de02f146103dd578063583d0e9314610408576101d7565b806323b872dd1461030657806329bc3fde1461032f5780632d58018d146103465780633e6ebaf91461036f576101d7565b806306fdde03116101b657806306fdde0314610259578063081812fc14610284578063095ea7b3146102c15780631d3ec396146102ea576101d7565b8062223f83146101dc57806301ffc9a71461020557806302362e7314610242575b600080fd5b3480156101e857600080fd5b5061020360048036038101906101fe9190614233565b610767565b005b34801561021157600080fd5b5061022c600480360381019061022791906142de565b610987565b604051610239919061431a565b60405180910390f35b34801561024e57600080fd5b50610257610a01565b005b34801561026557600080fd5b5061026e610b38565b60405161027b91906143ce565b60405180910390f35b34801561029057600080fd5b506102ab60048036038101906102a691906143f0565b610bca565b6040516102b8919061445e565b60405180910390f35b3480156102cd57600080fd5b506102e860048036038101906102e391906144a5565b610c10565b005b61030460048036038101906102ff9190614525565b610d27565b005b34801561031257600080fd5b5061032d6004803603810190610328919061458c565b61106e565b005b34801561033b57600080fd5b506103446110ce565b005b34801561035257600080fd5b5061036d600480360381019061036891906143f0565b61117d565b005b34801561037b57600080fd5b50610396600480360381019061039191906145df565b6112e1565b005b6103b260048036038101906103ad91906145df565b611400565b005b3480156103c057600080fd5b506103db60048036038101906103d6919061458c565b611781565b005b3480156103e957600080fd5b506103f26117a1565b6040516103ff91906147e3565b60405180910390f35b34801561041457600080fd5b5061042f600480360381019061042a9190614805565b611a49565b60405161043c91906148fc565b60405180910390f35b34801561045157600080fd5b5061046c600480360381019061046791906143f0565b611b12565b604051610479919061445e565b60405180910390f35b34801561048e57600080fd5b506104a960048036038101906104a49190614918565b611b98565b6040516104b69190614954565b60405180910390f35b3480156104cb57600080fd5b506104e660048036038101906104e19190614918565b611c4f565b6040516104f391906147e3565b60405180910390f35b34801561050857600080fd5b50610511611f27565b60405161051e9190614b6e565b60405180910390f35b34801561053357600080fd5b5061054e600480360381019061054991906143f0565b612097565b60405161055b9190614954565b60405180910390f35b34801561057057600080fd5b506105796120b7565b60405161058691906143ce565b60405180910390f35b34801561059b57600080fd5b506105a4612149565b6040516105b191906147e3565b60405180910390f35b3480156105c657600080fd5b506105e160048036038101906105dc9190614b90565b61244b565b005b3480156105ef57600080fd5b5061060a600480360381019061060591906145df565b612461565b005b34801561061857600080fd5b50610633600480360381019061062e9190614d05565b612580565b005b34801561064157600080fd5b5061065c600480360381019061065791906143f0565b6125e2565b604051610669919061445e565b60405180910390f35b34801561067e57600080fd5b50610699600480360381019061069491906143f0565b612649565b6040516106a691906143ce565b60405180910390f35b3480156106bb57600080fd5b506106d660048036038101906106d19190614d88565b61275b565b005b3480156106e457600080fd5b506106ff60048036038101906106fa9190614ddb565b612866565b60405161070c919061431a565b60405180910390f35b34801561072157600080fd5b5061073c60048036038101906107379190614233565b6128fa565b005b34801561074a57600080fd5b50610765600480360381019061076091906143f0565b612b1a565b005b6107b961077261302b565b600a858154811061078657610785614e1b565b5b9060005260206000200184815481106107a2576107a1614e1b565b5b906000526020600020906006020160010154613033565b6107f8576040517f08c379a00000000000000000000000000000000000000000000000000000000081526004016107ef90614ebc565b60405180910390fd5b600a805490508310801561082c5750600a838154811061081b5761081a614e1b565b5b906000526020600020018054905082105b61086b576040517f08c379a000000000000000000000000000000000000000000000000000000000815260040161086290614f28565b60405180910390fd5b6000600a848154811061088157610880614e1b565b5b90600052602060002001838154811061089d5761089c614e1b565b5b9060005260206000209060060201600101549050600073ffffffffffffffffffffffffffffffffffffffff166108d2826125e2565b73ffffffffffffffffffffffffffffffffffffffff1614610928576040517f08c379a000000000000000000000000000000000000000000000000000000000815260040161091f90614fe0565b60405180910390fd5b81600a858154811061093d5761093c614e1b565b5b90600052602060002001848154811061095957610958614e1b565b5b906000526020600020906006020160050160006101000a81548160ff02191690831515021790555050505050565b60007fad092b5c000000000000000000000000000000000000000000000000000000007bffffffffffffffffffffffffffffffffffffffffffffffffffffffff1916827bffffffffffffffffffffffffffffffffffffffffffffffffffffffff191614806109fa57506109f9826130c8565b5b9050919050565b600960009054906101000a900473ffffffffffffffffffffffffffffffffffffffff1673ffffffffffffffffffffffffffffffffffffffff163373ffffffffffffffffffffffffffffffffffffffff1614610a91576040517f08c379a0000000000000000000000000000000000000000000000000000000008152600401610a889061504c565b60405180910390fd5b6000600a6001600a80549050610aa7919061509b565b81548110610ab857610ab7614e1b565b5b906000526020600020018054905014610b06576040517f08c379a0000000000000000000000000000000000000000000000000000000008152600401610afd90615141565b60405180910390fd5b600a805480610b1857610b17615161565b5b600190038181906000526020600020016000610b349190613f12565b9055565b606060008054610b47906151bf565b80601f0160208091040260200160405190810160405280929190818152602001828054610b73906151bf565b8015610bc05780601f10610b9557610100808354040283529160200191610bc0565b820191906000526020600020905b815481529060010190602001808311610ba357829003601f168201915b5050505050905090565b6000610bd5826131aa565b6004600083815260200190815260200160002060009054906101000a900473ffffffffffffffffffffffffffffffffffffffff169050919050565b6000610c1b82611b12565b90508073ffffffffffffffffffffffffffffffffffffffff168373ffffffffffffffffffffffffffffffffffffffff1603610c8b576040517f08c379a0000000000000000000000000000000000000000000000000000000008152600401610c8290615262565b60405180910390fd5b8073ffffffffffffffffffffffffffffffffffffffff16610caa61302b565b73ffffffffffffffffffffffffffffffffffffffff161480610cd95750610cd881610cd361302b565b612866565b5b610d18576040517f08c379a0000000000000000000000000000000000000000000000000000000008152600401610d0f906152f4565b60405180910390fd5b610d2283836131f5565b505050565b600a8054905084108015610d5b5750600a8481548110610d4a57610d49614e1b565b5b906000526020600020018054905083105b610d9a576040517f08c379a0000000000000000000000000000000000000000000000000000000008152600401610d9190614f28565b60405180910390fd5b60008167ffffffffffffffff16600a8681548110610dbb57610dba614e1b565b5b906000526020600020018581548110610dd757610dd6614e1b565b5b906000526020600020906006020160030154610df39190615314565b9050803414610e37576040517f08c379a0000000000000000000000000000000000000000000000000000000008152600401610e2e906153ba565b60405180910390fd5b600073ffffffffffffffffffffffffffffffffffffffff16610e58846125e2565b73ffffffffffffffffffffffffffffffffffffffff1614610eae576040517f08c379a0000000000000000000000000000000000000000000000000000000008152600401610ea590615426565b60405180910390fd5b600a8581548110610ec257610ec1614e1b565b5b906000526020600020018481548110610ede57610edd614e1b565b5b906000526020600020906006020160050160019054906101000a900460ff16610f3c576040517f08c379a0000000000000000000000000000000000000000000000000000000008152600401610f3390615492565b60405180910390fd5b610f4583611b12565b73ffffffffffffffffffffffffffffffffffffffff166108fc829081150290604051600060405180830381858888f19350505050158015610f8a573d6000803e3d6000fd5b506000600760008581526020019081526020016000209050338160000160006101000a81548173ffffffffffffffffffffffffffffffffffffffff021916908373ffffffffffffffffffffffffffffffffffffffff16021790555060006228207284610ff691906154b2565b90508067ffffffffffffffff164261100e91906154f4565b82600101819055503373ffffffffffffffffffffffffffffffffffffffff16857f4e06b4e7000e659094299b3533b47b6aa8ad048e95e872d23d1f4ee55af89cfe8360405161105d9190615559565b60405180910390a350505050505050565b61107f61107961302b565b82613033565b6110be576040517f08c379a00000000000000000000000000000000000000000000000000000000081526004016110b5906155e6565b60405180910390fd5b6110c98383836132ae565b505050565b600960009054906101000a900473ffffffffffffffffffffffffffffffffffffffff1673ffffffffffffffffffffffffffffffffffffffff163373ffffffffffffffffffffffffffffffffffffffff161461115e576040517f08c379a00000000000000000000000000000000000000000000000000000000081526004016111559061504c565b60405180910390fd5b600a600181600181540180825580915050039060005260206000205050565b600960009054906101000a900473ffffffffffffffffffffffffffffffffffffffff1673ffffffffffffffffffffffffffffffffffffffff163373ffffffffffffffffffffffffffffffffffffffff161461120d576040517f08c379a00000000000000000000000000000000000000000000000000000000081526004016112049061504c565b60405180910390fd5b600a60018160018154018082558091505003906000526020600020505060006001600a8054905061123e919061509b565b90505b818111156112b357600a600182611258919061509b565b8154811061126957611268614e1b565b5b90600052602060002001600a828154811061128757611286614e1b565b5b9060005260206000200190805461129f929190613f36565b5080806112ab90615606565b915050611241565b50600a81815481106112c8576112c7614e1b565b5b9060005260206000200160006112de9190613f12565b50565b6113336112ec61302b565b600a8581548110611300576112ff614e1b565b5b90600052602060002001848154811061131c5761131b614e1b565b5b906000526020600020906006020160010154613033565b611372576040517f08c379a000000000000000000000000000000000000000000000000000000000815260040161136990614ebc565b60405180910390fd5b600081116113b5576040517f08c379a00000000000000000000000000000000000000000000000000000000081526004016113ac9061567b565b60405180910390fd5b80600a84815481106113ca576113c9614e1b565b5b9060005260206000200183815481106113e6576113e5614e1b565b5b906000526020600020906006020160040181905550505050565b600a80549050831080156114345750600a838154811061142357611422614e1b565b5b906000526020600020018054905082105b611473576040517f08c379a000000000000000000000000000000000000000000000000000000000815260040161146a90614f28565b60405180910390fd5b60011515600a848154811061148b5761148a614e1b565b5b9060005260206000200183815481106114a7576114a6614e1b565b5b906000526020600020906006020160050160009054906101000a900460ff16151514611508576040517f08c379a00000000000000000000000000000000000000000000000000000000081526004016114ff9061570d565b60405180910390fd5b600a838154811061151c5761151b614e1b565b5b90600052602060002001828154811061153857611537614e1b565b5b906000526020600020906006020160030154341461158b576040517f08c379a0000000000000000000000000000000000000000000000000000000008152600401611582906153ba565b60405180910390fd5b61159481611b12565b73ffffffffffffffffffffffffffffffffffffffff166108fc600a85815481106115c1576115c0614e1b565b5b9060005260206000200184815481106115dd576115dc614e1b565b5b9060005260206000209060060201600301549081150290604051600060405180830381858888f1935050505015801561161a573d6000803e3d6000fd5b506000600a848154811061163157611630614e1b565b5b90600052602060002001838154811061164d5761164c614e1b565b5b906000526020600020906006020160050160006101000a81548160ff0219169083151502179055506000600a848154811061168b5761168a614e1b565b5b9060005260206000200183815481106116a7576116a6614e1b565b5b906000526020600020906006020160050160016101000a81548160ff02191690831515021790555061177c600a84815481106116e6576116e5614e1b565b5b90600052602060002001838154811061170257611701614e1b565b5b906000526020600020906006020160000160009054906101000a900473ffffffffffffffffffffffffffffffffffffffff1633600a868154811061174957611748614e1b565b5b90600052602060002001858154811061176557611764614e1b565b5b906000526020600020906006020160010154611781565b505050565b61179c83838360405180602001604052806000815250612580565b505050565b6060600080606060005b600a805490508110156118975760005b600a82815481106117cf576117ce614e1b565b5b906000526020600020018054905081101561188357600073ffffffffffffffffffffffffffffffffffffffff16611846600a848154811061181357611812614e1b565b5b90600052602060002001838154811061182f5761182e614e1b565b5b9060005260206000209060060201600101546125e2565b73ffffffffffffffffffffffffffffffffffffffff161461187057848061186c9061572d565b9550505b808061187b9061572d565b9150506117bb565b50808061188f9061572d565b9150506117ab565b508267ffffffffffffffff8111156118b2576118b1614bda565b5b6040519080825280602002602001820160405280156118eb57816020015b6118d861409e565b8152602001906001900390816118d05790505b50905060005b600a80549050811015611a3f5760005b600a828154811061191557611914614e1b565b5b9060005260206000200180549050811015611a2b57600073ffffffffffffffffffffffffffffffffffffffff1661198c600a848154811061195957611958614e1b565b5b90600052602060002001838154811061197557611974614e1b565b5b9060005260206000209060060201600101546125e2565b73ffffffffffffffffffffffffffffffffffffffff1614611a18576119ed600a83815481106119be576119bd614e1b565b5b9060005260206000200182815481106119da576119d9614e1b565b5b90600052602060002090600602016135a7565b8385806119f99061572d565b965081518110611a0c57611a0b614e1b565b5b60200260200101819052505b8080611a239061572d565b915050611901565b508080611a379061572d565b9150506118f1565b5080935050505090565b611a5161409e565b600a8054905083108015611a855750600a8381548110611a7457611a73614e1b565b5b906000526020600020018054905082105b611ac4576040517f08c379a0000000000000000000000000000000000000000000000000000000008152600401611abb90614f28565b60405180910390fd5b611b0a600a8481548110611adb57611ada614e1b565b5b906000526020600020018381548110611af757611af6614e1b565b5b90600052602060002090600602016135a7565b905092915050565b600080611b1e836136e8565b9050600073ffffffffffffffffffffffffffffffffffffffff168173ffffffffffffffffffffffffffffffffffffffff1603611b8f576040517f08c379a0000000000000000000000000000000000000000000000000000000008152600401611b86906157c1565b60405180910390fd5b80915050919050565b60008073ffffffffffffffffffffffffffffffffffffffff168273ffffffffffffffffffffffffffffffffffffffff1603611c08576040517f08c379a0000000000000000000000000000000000000000000000000000000008152600401611bff90615853565b60405180910390fd5b600360008373ffffffffffffffffffffffffffffffffffffffff1673ffffffffffffffffffffffffffffffffffffffff168152602001908152602001600020549050919050565b6060600080606060005b600a80549050811015611d5c5760005b600a8281548110611c7d57611c7c614e1b565b5b9060005260206000200180549050811015611d48578673ffffffffffffffffffffffffffffffffffffffff16600a8381548110611cbd57611cbc614e1b565b5b906000526020600020018281548110611cd957611cd8614e1b565b5b906000526020600020906006020160000160009054906101000a900473ffffffffffffffffffffffffffffffffffffffff1673ffffffffffffffffffffffffffffffffffffffff1603611d35578480611d319061572d565b9550505b8080611d409061572d565b915050611c69565b508080611d549061572d565b915050611c59565b508267ffffffffffffffff811115611d7757611d76614bda565b5b604051908082528060200260200182016040528015611db057816020015b611d9d61409e565b815260200190600190039081611d955790505b50905060005b600a80549050811015611f1b5760005b600a8281548110611dda57611dd9614e1b565b5b9060005260206000200180549050811015611f07578673ffffffffffffffffffffffffffffffffffffffff16600a8381548110611e1a57611e19614e1b565b5b906000526020600020018281548110611e3657611e35614e1b565b5b906000526020600020906006020160000160009054906101000a900473ffffffffffffffffffffffffffffffffffffffff1673ffffffffffffffffffffffffffffffffffffffff1603611ef457611ec9600a8381548110611e9a57611e99614e1b565b5b906000526020600020018281548110611eb657611eb5614e1b565b5b90600052602060002090600602016135a7565b838580611ed59061572d565b965081518110611ee857611ee7614e1b565b5b60200260200101819052505b8080611eff9061572d565b915050611dc6565b508080611f139061572d565b915050611db6565b50809350505050919050565b6060600a805480602002602001604051908101604052809291908181526020016000905b8282101561208e57838290600052602060002001805480602002602001604051908101604052809291908181526020016000905b8282101561207b57838290600052602060002090600602016040518060e00160405290816000820160009054906101000a900473ffffffffffffffffffffffffffffffffffffffff1673ffffffffffffffffffffffffffffffffffffffff1673ffffffffffffffffffffffffffffffffffffffff168152602001600182015481526020016002820160009054906101000a900461ffff1661ffff1661ffff16815260200160038201548152602001600482015481526020016005820160009054906101000a900460ff161515151581526020016005820160019054906101000a900460ff16151515158152505081526020019060010190611f7f565b5050505081526020019060010190611f4b565b50505050905090565b600060076000838152602001908152602001600020600101549050919050565b6060600180546120c6906151bf565b80601f01602080910402602001604051908101604052809291908181526020018280546120f2906151bf565b801561213f5780601f106121145761010080835404028352916020019161213f565b820191906000526020600020905b81548152906001019060200180831161212257829003601f168201915b5050505050905090565b6060600080606060005b600a8054905081101561226c5760005b600a828154811061217757612176614e1b565b5b906000526020600020018054905081101561225857600a82815481106121a05761219f614e1b565b5b9060005260206000200181815481106121bc576121bb614e1b565b5b906000526020600020906006020160050160009054906101000a900460ff16806122315750600a82815481106121f5576121f4614e1b565b5b90600052602060002001818154811061221157612210614e1b565b5b906000526020600020906006020160050160019054906101000a900460ff165b156122455784806122419061572d565b9550505b80806122509061572d565b915050612163565b5080806122649061572d565b915050612153565b508267ffffffffffffffff81111561228757612286614bda565b5b6040519080825280602002602001820160405280156122c057816020015b6122ad61409e565b8152602001906001900390816122a55790505b50905060005b600a805490508110156124415760005b600a82815481106122ea576122e9614e1b565b5b906000526020600020018054905081101561242d57600a828154811061231357612312614e1b565b5b90600052602060002001818154811061232f5761232e614e1b565b5b906000526020600020906006020160050160009054906101000a900460ff16806123a45750600a828154811061236857612367614e1b565b5b90600052602060002001818154811061238457612383614e1b565b5b906000526020600020906006020160050160019054906101000a900460ff165b1561241a576123ef600a83815481106123c0576123bf614e1b565b5b9060005260206000200182815481106123dc576123db614e1b565b5b90600052602060002090600602016135a7565b8385806123fb9061572d565b96508151811061240e5761240d614e1b565b5b60200260200101819052505b80806124259061572d565b9150506122d6565b5080806124399061572d565b9150506122c6565b5080935050505090565b61245d61245661302b565b8383613725565b5050565b6124b361246c61302b565b600a85815481106124805761247f614e1b565b5b90600052602060002001848154811061249c5761249b614e1b565b5b906000526020600020906006020160010154613033565b6124f2576040517f08c379a00000000000000000000000000000000000000000000000000000000081526004016124e990614ebc565b60405180910390fd5b60008111612535576040517f08c379a000000000000000000000000000000000000000000000000000000000815260040161252c9061567b565b60405180910390fd5b80600a848154811061254a57612549614e1b565b5b90600052602060002001838154811061256657612565614e1b565b5b906000526020600020906006020160030181905550505050565b61259161258b61302b565b83613033565b6125d0576040517f08c379a00000000000000000000000000000000000000000000000000000000081526004016125c7906155e6565b60405180910390fd5b6125dc84848484613891565b50505050565b60004260076000848152602001908152602001600020600101541061263f576007600083815260200190815260200160002060000160009054906101000a900473ffffffffffffffffffffffffffffffffffffffff169050612644565b600090505b919050565b6060612654826131aa565b6000600660008481526020019081526020016000208054612674906151bf565b80601f01602080910402602001604051908101604052809291908181526020018280546126a0906151bf565b80156126ed5780601f106126c2576101008083540402835291602001916126ed565b820191906000526020600020905b8154815290600101906020018083116126d057829003601f168201915b5050505050905060006126fe6138ed565b90506000815103612713578192505050612756565b6000825111156127485780826040516020016127309291906158af565b60405160208183030381529060405292505050612756565b61275184613904565b925050505b919050565b6127653384613033565b6127a4576040517f08c379a000000000000000000000000000000000000000000000000000000000815260040161279b90615945565b60405180910390fd5b6000600760008581526020019081526020016000209050828160000160006101000a81548173ffffffffffffffffffffffffffffffffffffffff021916908373ffffffffffffffffffffffffffffffffffffffff1602179055508167ffffffffffffffff1681600101819055508273ffffffffffffffffffffffffffffffffffffffff16847f4e06b4e7000e659094299b3533b47b6aa8ad048e95e872d23d1f4ee55af89cfe846040516128589190615559565b60405180910390a350505050565b6000600560008473ffffffffffffffffffffffffffffffffffffffff1673ffffffffffffffffffffffffffffffffffffffff16815260200190815260200160002060008373ffffffffffffffffffffffffffffffffffffffff1673ffffffffffffffffffffffffffffffffffffffff16815260200190815260200160002060009054906101000a900460ff16905092915050565b61294c61290561302b565b600a858154811061291957612918614e1b565b5b90600052602060002001848154811061293557612934614e1b565b5b906000526020600020906006020160010154613033565b61298b576040517f08c379a000000000000000000000000000000000000000000000000000000000815260040161298290614ebc565b60405180910390fd5b600a80549050831080156129bf5750600a83815481106129ae576129ad614e1b565b5b906000526020600020018054905082105b6129fe576040517f08c379a00000000000000000000000000000000000000000000000000000000081526004016129f590614f28565b60405180910390fd5b6000600a8481548110612a1457612a13614e1b565b5b906000526020600020018381548110612a3057612a2f614e1b565b5b9060005260206000209060060201600101549050600073ffffffffffffffffffffffffffffffffffffffff16612a65826125e2565b73ffffffffffffffffffffffffffffffffffffffff1614612abb576040517f08c379a0000000000000000000000000000000000000000000000000000000008152600401612ab2906159b1565b60405180910390fd5b81600a8581548110612ad057612acf614e1b565b5b906000526020600020018481548110612aec57612aeb614e1b565b5b906000526020600020906006020160050160016101000a81548160ff02191690831515021790555050505050565b600960009054906101000a900473ffffffffffffffffffffffffffffffffffffffff1673ffffffffffffffffffffffffffffffffffffffff163373ffffffffffffffffffffffffffffffffffffffff1614612baa576040517f08c379a0000000000000000000000000000000000000000000000000000000008152600401612ba19061504c565b60405180910390fd5b6000600a8281548110612bc057612bbf614e1b565b5b906000526020600020018054905014612c0e576040517f08c379a0000000000000000000000000000000000000000000000000000000008152600401612c0590615141565b60405180910390fd5b60008190505b6001600a8381548110612c2a57612c29614e1b565b5b9060005260206000200180549050612c42919061509b565b811015612df757600a8281548110612c5d57612c5c614e1b565b5b90600052602060002001600182612c7491906154f4565b81548110612c8557612c84614e1b565b5b9060005260206000209060060201600a8381548110612ca757612ca6614e1b565b5b906000526020600020018281548110612cc357612cc2614e1b565b5b90600052602060002090600602016000820160009054906101000a900473ffffffffffffffffffffffffffffffffffffffff168160000160006101000a81548173ffffffffffffffffffffffffffffffffffffffff021916908373ffffffffffffffffffffffffffffffffffffffff160217905550600182015481600101556002820160009054906101000a900461ffff168160020160006101000a81548161ffff021916908361ffff16021790555060038201548160030155600482015481600401556005820160009054906101000a900460ff168160050160006101000a81548160ff0219169083151502179055506005820160019054906101000a900460ff168160050160016101000a81548160ff0219169083151502179055509050508080612def9061572d565b915050612c14565b50600a8181548110612e0c57612e0b614e1b565b5b90600052602060002001805480612e2657612e25615161565b5b6001900381819060005260206000209060060201600080820160006101000a81549073ffffffffffffffffffffffffffffffffffffffff021916905560018201600090556002820160006101000a81549061ffff0219169055600382016000905560048201600090556005820160006101000a81549060ff02191690556005820160016101000a81549060ff02191690555050905550565b6001816000016000828254019250508190555050565b600081600001549050919050565b6000808273ffffffffffffffffffffffffffffffffffffffff163b119050919050565b600181111561302557600073ffffffffffffffffffffffffffffffffffffffff168473ffffffffffffffffffffffffffffffffffffffff1614612f995780600360008673ffffffffffffffffffffffffffffffffffffffff1673ffffffffffffffffffffffffffffffffffffffff1681526020019081526020016000206000828254612f91919061509b565b925050819055505b600073ffffffffffffffffffffffffffffffffffffffff168373ffffffffffffffffffffffffffffffffffffffff16146130245780600360008573ffffffffffffffffffffffffffffffffffffffff1673ffffffffffffffffffffffffffffffffffffffff168152602001908152602001600020600082825461301c91906154f4565b925050819055505b5b50505050565b600033905090565b60008061303f83611b12565b90508073ffffffffffffffffffffffffffffffffffffffff168473ffffffffffffffffffffffffffffffffffffffff16148061308157506130808185612866565b5b806130bf57508373ffffffffffffffffffffffffffffffffffffffff166130a784610bca565b73ffffffffffffffffffffffffffffffffffffffff16145b91505092915050565b60007f80ac58cd000000000000000000000000000000000000000000000000000000007bffffffffffffffffffffffffffffffffffffffffffffffffffffffff1916827bffffffffffffffffffffffffffffffffffffffffffffffffffffffff1916148061319357507f5b5e139f000000000000000000000000000000000000000000000000000000007bffffffffffffffffffffffffffffffffffffffffffffffffffffffff1916827bffffffffffffffffffffffffffffffffffffffffffffffffffffffff1916145b806131a357506131a28261396c565b5b9050919050565b6131b3816139d6565b6131f2576040517f08c379a00000000000000000000000000000000000000000000000000000000081526004016131e9906157c1565b60405180910390fd5b50565b816004600083815260200190815260200160002060006101000a81548173ffffffffffffffffffffffffffffffffffffffff021916908373ffffffffffffffffffffffffffffffffffffffff160217905550808273ffffffffffffffffffffffffffffffffffffffff1661326883611b12565b73ffffffffffffffffffffffffffffffffffffffff167f8c5be1e5ebec7d5bd14f71427d1e84f3dd0314c0f7b2291e5b200ac8c7c3b92560405160405180910390a45050565b8273ffffffffffffffffffffffffffffffffffffffff166132ce82611b12565b73ffffffffffffffffffffffffffffffffffffffff1614613324576040517f08c379a000000000000000000000000000000000000000000000000000000000815260040161331b90615a43565b60405180910390fd5b600073ffffffffffffffffffffffffffffffffffffffff168273ffffffffffffffffffffffffffffffffffffffff1603613393576040517f08c379a000000000000000000000000000000000000000000000000000000000815260040161338a90615ad5565b60405180910390fd5b6133a08383836001613a17565b8273ffffffffffffffffffffffffffffffffffffffff166133c082611b12565b73ffffffffffffffffffffffffffffffffffffffff1614613416576040517f08c379a000000000000000000000000000000000000000000000000000000000815260040161340d90615a43565b60405180910390fd5b6004600082815260200190815260200160002060006101000a81549073ffffffffffffffffffffffffffffffffffffffff02191690556001600360008573ffffffffffffffffffffffffffffffffffffffff1673ffffffffffffffffffffffffffffffffffffffff168152602001908152602001600020600082825403925050819055506001600360008473ffffffffffffffffffffffffffffffffffffffff1673ffffffffffffffffffffffffffffffffffffffff16815260200190815260200160002060008282540192505081905550816002600083815260200190815260200160002060006101000a81548173ffffffffffffffffffffffffffffffffffffffff021916908373ffffffffffffffffffffffffffffffffffffffff160217905550808273ffffffffffffffffffffffffffffffffffffffff168473ffffffffffffffffffffffffffffffffffffffff167fddf252ad1be2c89b69c2b068fc378daa952ba7f163c4a11628f55a4df523b3ef60405160405180910390a46135a28383836001613b64565b505050565b6135af61409e565b60006040518061012001604052808460000160009054906101000a900473ffffffffffffffffffffffffffffffffffffffff1673ffffffffffffffffffffffffffffffffffffffff168152602001846001015481526020018460020160009054906101000a900461ffff1661ffff16815260200184600301548152602001846004015481526020018460050160009054906101000a900460ff16151581526020018460050160019054906101000a900460ff1615158152602001600760008660010154815260200190815260200160002060000160009054906101000a900473ffffffffffffffffffffffffffffffffffffffff1673ffffffffffffffffffffffffffffffffffffffff168152602001600760008660010154815260200190815260200160002060010154815250905080915050919050565b60006002600083815260200190815260200160002060009054906101000a900473ffffffffffffffffffffffffffffffffffffffff169050919050565b8173ffffffffffffffffffffffffffffffffffffffff168373ffffffffffffffffffffffffffffffffffffffff1603613793576040517f08c379a000000000000000000000000000000000000000000000000000000000815260040161378a90615b41565b60405180910390fd5b80600560008573ffffffffffffffffffffffffffffffffffffffff1673ffffffffffffffffffffffffffffffffffffffff16815260200190815260200160002060008473ffffffffffffffffffffffffffffffffffffffff1673ffffffffffffffffffffffffffffffffffffffff16815260200190815260200160002060006101000a81548160ff0219169083151502179055508173ffffffffffffffffffffffffffffffffffffffff168373ffffffffffffffffffffffffffffffffffffffff167f17307eab39ab6107e8899845ad3d59bd9653f200f220920489ca2b5937696c3183604051613884919061431a565b60405180910390a3505050565b61389c8484846132ae565b6138a884848484613b6a565b6138e7576040517f08c379a00000000000000000000000000000000000000000000000000000000081526004016138de90615bd3565b60405180910390fd5b50505050565b606060405180602001604052806000815250905090565b606061390f826131aa565b60006139196138ed565b905060008151116139395760405180602001604052806000815250613964565b8061394384613cf1565b6040516020016139549291906158af565b6040516020818303038152906040525b915050919050565b60007f01ffc9a7000000000000000000000000000000000000000000000000000000007bffffffffffffffffffffffffffffffffffffffffffffffffffffffff1916827bffffffffffffffffffffffffffffffffffffffffffffffffffffffff1916149050919050565b60008073ffffffffffffffffffffffffffffffffffffffff166139f8836136e8565b73ffffffffffffffffffffffffffffffffffffffff1614159050919050565b613a2384848484612f05565b8273ffffffffffffffffffffffffffffffffffffffff168473ffffffffffffffffffffffffffffffffffffffff1614158015613ac25750600073ffffffffffffffffffffffffffffffffffffffff166007600084815260200190815260200160002060000160009054906101000a900473ffffffffffffffffffffffffffffffffffffffff1673ffffffffffffffffffffffffffffffffffffffff1614155b15613b5e5760076000838152602001908152602001600020600080820160006101000a81549073ffffffffffffffffffffffffffffffffffffffff021916905560018201600090555050600073ffffffffffffffffffffffffffffffffffffffff16827f4e06b4e7000e659094299b3533b47b6aa8ad048e95e872d23d1f4ee55af89cfe6000604051613b559190615c38565b60405180910390a35b50505050565b50505050565b6000613b8b8473ffffffffffffffffffffffffffffffffffffffff16612ee2565b15613ce4578373ffffffffffffffffffffffffffffffffffffffff1663150b7a02613bb461302b565b8786866040518563ffffffff1660e01b8152600401613bd69493929190615ca8565b6020604051808303816000875af1925050508015613c1257506040513d601f19601f82011682018060405250810190613c0f9190615d09565b60015b613c94573d8060008114613c42576040519150601f19603f3d011682016040523d82523d6000602084013e613c47565b606091505b506000815103613c8c576040517f08c379a0000000000000000000000000000000000000000000000000000000008152600401613c8390615bd3565b60405180910390fd5b805181602001fd5b63150b7a0260e01b7bffffffffffffffffffffffffffffffffffffffffffffffffffffffff1916817bffffffffffffffffffffffffffffffffffffffffffffffffffffffff191614915050613ce9565b600190505b949350505050565b606060006001613d0084613dbf565b01905060008167ffffffffffffffff811115613d1f57613d1e614bda565b5b6040519080825280601f01601f191660200182016040528015613d515781602001600182028036833780820191505090505b509050600082602001820190505b600115613db4578080600190039150507f3031323334353637383961626364656600000000000000000000000000000000600a86061a8153600a8581613da857613da7615d36565b5b04945060008503613d5f575b819350505050919050565b600080600090507a184f03e93ff9f4daa797ed6e38ed64bf6a1f0100000000000000008310613e1d577a184f03e93ff9f4daa797ed6e38ed64bf6a1f0100000000000000008381613e1357613e12615d36565b5b0492506040810190505b6d04ee2d6d415b85acef81000000008310613e5a576d04ee2d6d415b85acef81000000008381613e5057613e4f615d36565b5b0492506020810190505b662386f26fc100008310613e8957662386f26fc100008381613e7f57613e7e615d36565b5b0492506010810190505b6305f5e1008310613eb2576305f5e1008381613ea857613ea7615d36565b5b0492506008810190505b6127108310613ed7576127108381613ecd57613ecc615d36565b5b0492506004810190505b60648310613efa5760648381613ef057613eef615d36565b5b0492506002810190505b600a8310613f09576001810190505b80915050919050565b5080546000825560060290600052602060002090810190613f33919061411e565b50565b82805482825590600052602060002090600602810192821561408d5760005260206000209160060282015b8281111561408c5782826000820160009054906101000a900473ffffffffffffffffffffffffffffffffffffffff168160000160006101000a81548173ffffffffffffffffffffffffffffffffffffffff021916908373ffffffffffffffffffffffffffffffffffffffff160217905550600182015481600101556002820160009054906101000a900461ffff168160020160006101000a81548161ffff021916908361ffff16021790555060038201548160030155600482015481600401556005820160009054906101000a900460ff168160050160006101000a81548160ff0219169083151502179055506005820160019054906101000a900460ff168160050160016101000a81548160ff021916908315150217905550505091600601919060060190613f61565b5b50905061409a919061411e565b5090565b604051806101200160405280600073ffffffffffffffffffffffffffffffffffffffff16815260200160008152602001600061ffff1681526020016000815260200160008152602001600015158152602001600015158152602001600073ffffffffffffffffffffffffffffffffffffffff168152602001600081525090565b5b808211156141ad57600080820160006101000a81549073ffffffffffffffffffffffffffffffffffffffff021916905560018201600090556002820160006101000a81549061ffff0219169055600382016000905560048201600090556005820160006101000a81549060ff02191690556005820160016101000a81549060ff02191690555060060161411f565b5090565b6000604051905090565b600080fd5b600080fd5b6000819050919050565b6141d8816141c5565b81146141e357600080fd5b50565b6000813590506141f5816141cf565b92915050565b60008115159050919050565b614210816141fb565b811461421b57600080fd5b50565b60008135905061422d81614207565b92915050565b60008060006060848603121561424c5761424b6141bb565b5b600061425a868287016141e6565b935050602061426b868287016141e6565b925050604061427c8682870161421e565b9150509250925092565b60007fffffffff0000000000000000000000000000000000000000000000000000000082169050919050565b6142bb81614286565b81146142c657600080fd5b50565b6000813590506142d8816142b2565b92915050565b6000602082840312156142f4576142f36141bb565b5b6000614302848285016142c9565b91505092915050565b614314816141fb565b82525050565b600060208201905061432f600083018461430b565b92915050565b600081519050919050565b600082825260208201905092915050565b60005b8381101561436f578082015181840152602081019050614354565b8381111561437e576000848401525b50505050565b6000601f19601f8301169050919050565b60006143a082614335565b6143aa8185614340565b93506143ba818560208601614351565b6143c381614384565b840191505092915050565b600060208201905081810360008301526143e88184614395565b905092915050565b600060208284031215614406576144056141bb565b5b6000614414848285016141e6565b91505092915050565b600073ffffffffffffffffffffffffffffffffffffffff82169050919050565b60006144488261441d565b9050919050565b6144588161443d565b82525050565b6000602082019050614473600083018461444f565b92915050565b6144828161443d565b811461448d57600080fd5b50565b60008135905061449f81614479565b92915050565b600080604083850312156144bc576144bb6141bb565b5b60006144ca85828601614490565b92505060206144db858286016141e6565b9150509250929050565b600067ffffffffffffffff82169050919050565b614502816144e5565b811461450d57600080fd5b50565b60008135905061451f816144f9565b92915050565b6000806000806080858703121561453f5761453e6141bb565b5b600061454d878288016141e6565b945050602061455e878288016141e6565b935050604061456f878288016141e6565b925050606061458087828801614510565b91505092959194509250565b6000806000606084860312156145a5576145a46141bb565b5b60006145b386828701614490565b93505060206145c486828701614490565b92505060406145d5868287016141e6565b9150509250925092565b6000806000606084860312156145f8576145f76141bb565b5b6000614606868287016141e6565b9350506020614617868287016141e6565b9250506040614628868287016141e6565b9150509250925092565b600081519050919050565b600082825260208201905092915050565b6000819050602082019050919050565b6146678161443d565b82525050565b614676816141c5565b82525050565b600061ffff82169050919050565b6146938161467c565b82525050565b6146a2816141fb565b82525050565b610120820160008201516146bf600085018261465e565b5060208201516146d2602085018261466d565b5060408201516146e5604085018261468a565b5060608201516146f8606085018261466d565b50608082015161470b608085018261466d565b5060a082015161471e60a0850182614699565b5060c082015161473160c0850182614699565b5060e082015161474460e085018261465e565b5061010082015161475961010085018261466d565b50505050565b600061476b83836146a8565b6101208301905092915050565b6000602082019050919050565b600061479082614632565b61479a818561463d565b93506147a58361464e565b8060005b838110156147d65781516147bd888261475f565b97506147c883614778565b9250506001810190506147a9565b5085935050505092915050565b600060208201905081810360008301526147fd8184614785565b905092915050565b6000806040838503121561481c5761481b6141bb565b5b600061482a858286016141e6565b925050602061483b858286016141e6565b9150509250929050565b6101208201600082015161485c600085018261465e565b50602082015161486f602085018261466d565b506040820151614882604085018261468a565b506060820151614895606085018261466d565b5060808201516148a8608085018261466d565b5060a08201516148bb60a0850182614699565b5060c08201516148ce60c0850182614699565b5060e08201516148e160e085018261465e565b506101008201516148f661010085018261466d565b50505050565b6000610120820190506149126000830184614845565b92915050565b60006020828403121561492e5761492d6141bb565b5b600061493c84828501614490565b91505092915050565b61494e816141c5565b82525050565b60006020820190506149696000830184614945565b92915050565b600081519050919050565b600082825260208201905092915050565b6000819050602082019050919050565b600081519050919050565b600082825260208201905092915050565b6000819050602082019050919050565b60e0820160008201516149dd600085018261465e565b5060208201516149f0602085018261466d565b506040820151614a03604085018261468a565b506060820151614a16606085018261466d565b506080820151614a29608085018261466d565b5060a0820151614a3c60a0850182614699565b5060c0820151614a4f60c0850182614699565b50505050565b6000614a6183836149c7565b60e08301905092915050565b6000602082019050919050565b6000614a858261499b565b614a8f81856149a6565b9350614a9a836149b7565b8060005b83811015614acb578151614ab28882614a55565b9750614abd83614a6d565b925050600181019050614a9e565b5085935050505092915050565b6000614ae48383614a7a565b905092915050565b6000602082019050919050565b6000614b048261496f565b614b0e818561497a565b935083602082028501614b208561498b565b8060005b85811015614b5c5784840389528151614b3d8582614ad8565b9450614b4883614aec565b925060208a01995050600181019050614b24565b50829750879550505050505092915050565b60006020820190508181036000830152614b888184614af9565b905092915050565b60008060408385031215614ba757614ba66141bb565b5b6000614bb585828601614490565b9250506020614bc68582860161421e565b9150509250929050565b600080fd5b600080fd5b7f4e487b7100000000000000000000000000000000000000000000000000000000600052604160045260246000fd5b614c1282614384565b810181811067ffffffffffffffff82111715614c3157614c30614bda565b5b80604052505050565b6000614c446141b1565b9050614c508282614c09565b919050565b600067ffffffffffffffff821115614c7057614c6f614bda565b5b614c7982614384565b9050602081019050919050565b82818337600083830152505050565b6000614ca8614ca384614c55565b614c3a565b905082815260208101848484011115614cc457614cc3614bd5565b5b614ccf848285614c86565b509392505050565b600082601f830112614cec57614ceb614bd0565b5b8135614cfc848260208601614c95565b91505092915050565b60008060008060808587031215614d1f57614d1e6141bb565b5b6000614d2d87828801614490565b9450506020614d3e87828801614490565b9350506040614d4f878288016141e6565b925050606085013567ffffffffffffffff811115614d7057614d6f6141c0565b5b614d7c87828801614cd7565b91505092959194509250565b600080600060608486031215614da157614da06141bb565b5b6000614daf868287016141e6565b9350506020614dc086828701614490565b9250506040614dd186828701614510565b9150509250925092565b60008060408385031215614df257614df16141bb565b5b6000614e0085828601614490565b9250506020614e1185828601614490565b9150509250929050565b7f4e487b7100000000000000000000000000000000000000000000000000000000600052603260045260246000fd5b7f43616c6c6572206973206e6f7420746f6b656e206f776e6572206e6f7220617060008201527f70726f7665640000000000000000000000000000000000000000000000000000602082015250565b6000614ea6602683614340565b9150614eb182614e4a565b604082019050919050565b60006020820190508181036000830152614ed581614e99565b9050919050565b7f496e76616c69642053746f726500000000000000000000000000000000000000600082015250565b6000614f12600d83614340565b9150614f1d82614edc565b602082019050919050565b60006020820190508181036000830152614f4181614f05565b9050919050565b7f53746f72652069732072656e746564206f75742e205761697420666f7220726560008201527f6e742074656e75726520746f206265206f766572206265666f72652073656c6c60208201527f696e672e00000000000000000000000000000000000000000000000000000000604082015250565b6000614fca604483614340565b9150614fd582614f48565b606082019050919050565b60006020820190508181036000830152614ff981614fbd565b9050919050565b7f4e6f7420417574686f7269736564000000000000000000000000000000000000600082015250565b6000615036600e83614340565b915061504182615000565b602082019050919050565b6000602082019050818103600083015261506581615029565b9050919050565b7f4e487b7100000000000000000000000000000000000000000000000000000000600052601160045260246000fd5b60006150a6826141c5565b91506150b1836141c5565b9250828210156150c4576150c361506c565b5b828203905092915050565b7f466c6f6f72206d75737420626520656d70747920746f2062652064656c65746560008201527f6400000000000000000000000000000000000000000000000000000000000000602082015250565b600061512b602183614340565b9150615136826150cf565b604082019050919050565b6000602082019050818103600083015261515a8161511e565b9050919050565b7f4e487b7100000000000000000000000000000000000000000000000000000000600052603160045260246000fd5b7f4e487b7100000000000000000000000000000000000000000000000000000000600052602260045260246000fd5b600060028204905060018216806151d757607f821691505b6020821081036151ea576151e9615190565b5b50919050565b7f4552433732313a20617070726f76616c20746f2063757272656e74206f776e6560008201527f7200000000000000000000000000000000000000000000000000000000000000602082015250565b600061524c602183614340565b9150615257826151f0565b604082019050919050565b6000602082019050818103600083015261527b8161523f565b9050919050565b7f4552433732313a20617070726f76652063616c6c6572206973206e6f7420746f60008201527f6b656e206f776e6572206f7220617070726f76656420666f7220616c6c000000602082015250565b60006152de603d83614340565b91506152e982615282565b604082019050919050565b6000602082019050818103600083015261530d816152d1565b9050919050565b600061531f826141c5565b915061532a836141c5565b9250817fffffffffffffffffffffffffffffffffffffffffffffffffffffffffffffffff04831182151516156153635761536261506c565b5b828202905092915050565b7f496e636f727265637420616d6f756e7400000000000000000000000000000000600082015250565b60006153a4601083614340565b91506153af8261536e565b602082019050919050565b600060208201905081810360008301526153d381615397565b9050919050565b7f416c72656164792072656e746564000000000000000000000000000000000000600082015250565b6000615410600e83614340565b915061541b826153da565b602082019050919050565b6000602082019050818103600083015261543f81615403565b9050919050565b7f52656e74696e672064697361626c656420666f7220746865204e465400000000600082015250565b600061547c601c83614340565b915061548782615446565b602082019050919050565b600060208201905081810360008301526154ab8161546f565b9050919050565b60006154bd826144e5565b91506154c8836144e5565b92508167ffffffffffffffff04831182151516156154e9576154e861506c565b5b828202905092915050565b60006154ff826141c5565b915061550a836141c5565b9250827fffffffffffffffffffffffffffffffffffffffffffffffffffffffffffffffff0382111561553f5761553e61506c565b5b828201905092915050565b615553816144e5565b82525050565b600060208201905061556e600083018461554a565b92915050565b7f4552433732313a2063616c6c6572206973206e6f7420746f6b656e206f776e6560008201527f72206f7220617070726f76656400000000000000000000000000000000000000602082015250565b60006155d0602d83614340565b91506155db82615574565b604082019050919050565b600060208201905081810360008301526155ff816155c3565b9050919050565b6000615611826141c5565b9150600082036156245761562361506c565b5b600182039050919050565b7f496e76616c696420507269636500000000000000000000000000000000000000600082015250565b6000615665600d83614340565b91506156708261562f565b602082019050919050565b6000602082019050818103600083015261569481615658565b9050919050565b7f54686973206c616e64206973206e6f7420617661696c626c6520666f7220736160008201527f6c652e0000000000000000000000000000000000000000000000000000000000602082015250565b60006156f7602383614340565b91506157028261569b565b604082019050919050565b60006020820190508181036000830152615726816156ea565b9050919050565b6000615738826141c5565b91507fffffffffffffffffffffffffffffffffffffffffffffffffffffffffffffffff820361576a5761576961506c565b5b600182019050919050565b7f4552433732313a20696e76616c696420746f6b656e2049440000000000000000600082015250565b60006157ab601883614340565b91506157b682615775565b602082019050919050565b600060208201905081810360008301526157da8161579e565b9050919050565b7f4552433732313a2061646472657373207a65726f206973206e6f74206120766160008201527f6c6964206f776e65720000000000000000000000000000000000000000000000602082015250565b600061583d602983614340565b9150615848826157e1565b604082019050919050565b6000602082019050818103600083015261586c81615830565b9050919050565b600081905092915050565b600061588982614335565b6158938185615873565b93506158a3818560208601614351565b80840191505092915050565b60006158bb828561587e565b91506158c7828461587e565b91508190509392505050565b7f4552433732313a207472616e736665722063616c6c6572206973206e6f74206f60008201527f776e6572206e6f7220617070726f766564000000000000000000000000000000602082015250565b600061592f603183614340565b915061593a826158d3565b604082019050919050565b6000602082019050818103600083015261595e81615922565b9050919050565b7f53746f726520616c72656164792072656e746564000000000000000000000000600082015250565b600061599b601483614340565b91506159a682615965565b602082019050919050565b600060208201905081810360008301526159ca8161598e565b9050919050565b7f4552433732313a207472616e736665722066726f6d20696e636f72726563742060008201527f6f776e6572000000000000000000000000000000000000000000000000000000602082015250565b6000615a2d602583614340565b9150615a38826159d1565b604082019050919050565b60006020820190508181036000830152615a5c81615a20565b9050919050565b7f4552433732313a207472616e7366657220746f20746865207a65726f2061646460008201527f7265737300000000000000000000000000000000000000000000000000000000602082015250565b6000615abf602483614340565b9150615aca82615a63565b604082019050919050565b60006020820190508181036000830152615aee81615ab2565b9050919050565b7f4552433732313a20617070726f766520746f2063616c6c657200000000000000600082015250565b6000615b2b601983614340565b9150615b3682615af5565b602082019050919050565b60006020820190508181036000830152615b5a81615b1e565b9050919050565b7f4552433732313a207472616e7366657220746f206e6f6e20455243373231526560008201527f63656976657220696d706c656d656e7465720000000000000000000000000000602082015250565b6000615bbd603283614340565b9150615bc882615b61565b604082019050919050565b60006020820190508181036000830152615bec81615bb0565b9050919050565b6000819050919050565b6000819050919050565b6000615c22615c1d615c1884615bf3565b615bfd565b6144e5565b9050919050565b615c3281615c07565b82525050565b6000602082019050615c4d6000830184615c29565b92915050565b600081519050919050565b600082825260208201905092915050565b6000615c7a82615c53565b615c848185615c5e565b9350615c94818560208601614351565b615c9d81614384565b840191505092915050565b6000608082019050615cbd600083018761444f565b615cca602083018661444f565b615cd76040830185614945565b8181036060830152615ce98184615c6f565b905095945050505050565b600081519050615d03816142b2565b92915050565b600060208284031215615d1f57615d1e6141bb565b5b6000615d2d84828501615cf4565b91505092915050565b7f4e487b7100000000000000000000000000000000000000000000000000000000600052601260045260246000fdfea2646970667358221220ebdba811a8e7c1f58b1d42a688d58136da95992e2543776ea7ad68f4a74a7c8c64736f6c634300080e0033",
  "immutableReferences": {},
  "source": "// SPDX-License-Identifier: UNLICENSED\r\npragma solidity ^0.8.0;\r\n\r\nimport './ERC4907.sol';\r\nimport \"../node_modules/@openzeppelin/contracts/utils/Counters.sol\";\r\n\r\ncontract MetaMall is ERC4907 {\r\n    \r\n    using Counters for Counters.Counter;\r\n    Counters.Counter private currentTokenId;\r\n\r\n    address contractOwner;\r\n\r\n    struct Store {\r\n        address owner;\r\n        uint256 tokenId;\r\n        uint16 storeNumber;\r\n        uint256 price;  ///price per month\r\n        uint256 rent;\r\n        bool isSaleable;\r\n        bool isRentable;\r\n    }\r\n\r\n    struct StoreDetails {\r\n        address owner;\r\n        uint256 tokenId;\r\n        uint16 storeNumber;\r\n        uint256 price;\r\n        uint256 rent;\r\n        bool isSaleable;   //sale rent owned\r\n        bool isRentable;\r\n        address user;\r\n        uint256 expires;\r\n    }\r\n\r\n    Store[][] stores;\r\n\r\n    function getStoreDetails(Store storage store) internal view returns (StoreDetails memory) {\r\n        StoreDetails memory s = StoreDetails({\r\n            owner: store.owner,\r\n            tokenId: store.tokenId,\r\n            storeNumber: store.storeNumber,\r\n            price: store.price,\r\n            rent: store.rent,\r\n            isSaleable: store.isSaleable,\r\n            isRentable: store.isRentable,\r\n            user: _users[store.tokenId].user,\r\n            expires: _users[store.tokenId].expires\r\n        });\r\n        return s; \r\n    }\r\n\r\n    function mint() internal returns (uint256) {\r\n        currentTokenId.increment();\r\n        uint256 newItemId = currentTokenId.current();\r\n        _safeMint(contractOwner, newItemId);\r\n        return newItemId;\r\n    }\r\n\r\n    constructor() ERC4907(\"MetaMall Shops\", \"LL\") {\r\n\r\n        contractOwner = msg.sender;\r\n        \r\n        //Floors\r\n        stores.push();\r\n        stores.push();\r\n        stores.push();\r\n        stores.push();\r\n        stores.push();\r\n\r\n        //Floor 0\r\n        \r\n            stores[0].push(Store(contractOwner, mint(), 0, 100, 0, true, false));\r\n            stores[0].push(Store(contractOwner, mint(), 1, 100, 0, true, false));\r\n            stores[0].push(Store(contractOwner, mint(), 2, 100, 0, true, false));\r\n            stores[0].push(Store(contractOwner, mint(), 3, 100, 0, true, false));\r\n            stores[0].push(Store(contractOwner, mint(), 4, 100, 0, true, false));\r\n            stores[0].push(Store(contractOwner, mint(), 5, 100, 0, true, false));\r\n            stores[0].push(Store(contractOwner, mint(), 6, 100, 0, true, false));\r\n            stores[0].push(Store(contractOwner, mint(), 7, 100, 0, true, false));\r\n            stores[0].push(Store(contractOwner, mint(), 8, 100, 0, true, false));\r\n            stores[0].push(Store(contractOwner, mint(), 9, 100, 0, true, false));\r\n\r\n\r\n        //Floor 1\r\n        /*for (uint16 i = 0; i < 32; i++) {\r\n            stores[1].push(Store(contractOwner, mint(), i + uint16(stores[0].length), 50, 0, true, false));\r\n        }*/\r\n    }\r\n\r\n\r\n    //--------------- F L O O R   M A N A G E M E N T ----------------\r\n\r\n    function removeFloor() public {\r\n        require(msg.sender == contractOwner, \"Not Authorised\");\r\n        require(stores[stores.length - 1].length == 0, \"Floor must be empty to be deleted\");\r\n\r\n        stores.pop();\r\n    }\r\n\r\n    function addFloor() public {\r\n        require(msg.sender == contractOwner, \"Not Authorised\");\r\n        stores.push();\r\n    }\r\n\r\n    function addFloorAtIndex(uint index) public {\r\n        //GAS EXPENSIVE\r\n        require(msg.sender == contractOwner, \"Not Authorised\");\r\n\r\n        stores.push();\r\n        for(uint i = stores.length - 1; i > index; i--){\r\n            stores[i] = stores[i-1];    \r\n        }\r\n\r\n        delete stores[index];\r\n    }\r\n\r\n    function removeFloorAtIndex(uint index) public {\r\n        require(msg.sender == contractOwner, \"Not Authorised\");\r\n        require(stores[index].length == 0, \"Floor must be empty to be deleted\");\r\n\r\n        for(uint i = index; i < stores[index].length - 1; i++){\r\n        stores[index][i] = stores[index][i+1];      \r\n        }\r\n        stores[index].pop();\r\n    }\r\n\r\n    // ------------- G E T T E R   V I E W   F U N C T I O N S -----------------\r\n\r\n    function getStore(uint floor, uint index) public view returns (StoreDetails memory) {\r\n        require(floor < stores.length && index < stores[floor].length, \"Invalid Store\");\r\n        return getStoreDetails(stores[floor][index]);\r\n    }\r\n\r\n    function getAllStores() public view returns (Store[][] memory) {\r\n        return stores;\r\n    }\r\n\r\n    function getOwnedStores(address owner) public view returns (StoreDetails[] memory) {\r\n        uint count = 0;\r\n        uint index = 0;\r\n\r\n        StoreDetails[] memory owned;\r\n        for (uint i = 0; i < stores.length; i++) {\r\n            for (uint j = 0; j < stores[i].length; j++) {\r\n                if(stores[i][j].owner == owner) {\r\n                    count++;\r\n                }\r\n            }\r\n        }\r\n\r\n        owned = new StoreDetails[](count);\r\n        for (uint i = 0; i < stores.length; i++) {\r\n            for (uint j = 0; j < stores[i].length; j++) {\r\n                if(stores[i][j].owner == owner) {\r\n                    owned[index++] = getStoreDetails(stores[i][j]);\r\n                }\r\n            }\r\n        }\r\n        return owned;\r\n    }\r\n\r\n    function getRentedStores() public view returns (StoreDetails[] memory) {\r\n        uint count = 0;\r\n        uint index = 0;\r\n\r\n        StoreDetails[] memory rented;\r\n        for (uint i = 0; i < stores.length; i++) {\r\n            for (uint j = 0; j < stores[i].length; j++) {\r\n                if(userOf(stores[i][j].tokenId) != address(0)) {\r\n                    count++;\r\n                }\r\n            }\r\n        }\r\n\r\n        rented = new StoreDetails[](count);\r\n        for (uint i = 0; i < stores.length; i++) {\r\n            for (uint j = 0; j < stores[i].length; j++) {\r\n                if(userOf(stores[i][j].tokenId) != address(0)) {\r\n                    rented[index++] = getStoreDetails(stores[i][j]);\r\n                }\r\n            }\r\n        }\r\n        return rented;\r\n    }\r\n\r\n    function getAvailableStores() public view returns (StoreDetails[] memory) {\r\n        uint count = 0;\r\n        uint index = 0;\r\n\r\n        StoreDetails[] memory available;\r\n        for (uint i = 0; i < stores.length; i++) {\r\n            for (uint j = 0; j < stores[i].length; j++) {\r\n                if(stores[i][j].isSaleable || stores[i][j].isRentable) {\r\n                    count++;\r\n                }\r\n            }\r\n        }\r\n\r\n        available = new StoreDetails[](count);\r\n        for (uint i = 0; i < stores.length; i++) {\r\n            for (uint j = 0; j < stores[i].length; j++) {\r\n                if(stores[i][j].isSaleable || stores[i][j].isRentable) {\r\n                    available[index++] = getStoreDetails(stores[i][j]);\r\n                }\r\n            }\r\n        }\r\n        return available;\r\n    }\r\n\r\n    // ----------------- S H O P   N F T   M A N A G E M E N T -----------------\r\n\r\n    function setRentFee(uint floor, uint storeNumber, uint256 _amountPerMonth) public {\r\n        require(_isApprovedOrOwner(_msgSender(), stores[floor][storeNumber].tokenId), \"Caller is not token owner nor approved\");\r\n        require(_amountPerMonth > 0, \"Invalid Price\");\r\n        stores[floor][storeNumber].rent = _amountPerMonth;\r\n    }\r\n\r\n    function setPrice(uint floor, uint storeNumber, uint256 _price) public {\r\n        require(_isApprovedOrOwner(_msgSender(), stores[floor][storeNumber].tokenId), \"Caller is not token owner nor approved\");\r\n        require(_price > 0, \"Invalid Price\");\r\n        stores[floor][storeNumber].price = _price;\r\n    }\r\n\r\n    function setRentable(uint floor, uint storeNumber, bool _rentable) public {\r\n        require(_isApprovedOrOwner(_msgSender(), stores[floor][storeNumber].tokenId), \"Caller is not token owner nor approved\");\r\n        require(floor < stores.length && storeNumber < stores[floor].length, \"Invalid Store\");\r\n        \r\n        uint256 tokenId = stores[floor][storeNumber].tokenId;\r\n\r\n        require(userOf(tokenId) == address(0), \"Store already rented\");\r\n        stores[floor][storeNumber].isRentable = _rentable;\r\n    }\r\n\r\n    function setSaleable(uint floor, uint storeNumber, bool _saleable) public {\r\n        require(_isApprovedOrOwner(_msgSender(), stores[floor][storeNumber].tokenId), \"Caller is not token owner nor approved\");\r\n        require(floor < stores.length && storeNumber < stores[floor].length, \"Invalid Store\");\r\n        \r\n        \r\n        uint256 tokenId = stores[floor][storeNumber].tokenId;\r\n        require(userOf(tokenId) == address(0), \"Store is rented out. Wait for rent tenure to be over before selling.\");\r\n\r\n        stores[floor][storeNumber].isSaleable = _saleable;\r\n    }\r\n\r\n    function rent(uint floor, uint storeNumber, uint256 _tokenId, uint64 month) public payable virtual {\r\n        require(floor < stores.length && storeNumber < stores[floor].length, \"Invalid Store\");\r\n\r\n        uint256 dueAmount = stores[floor][storeNumber].price * month;\r\n        require(msg.value == dueAmount, \"Incorrect amount\");\r\n        require(userOf(_tokenId) == address(0), \"Already rented\");\r\n        require(stores[floor][storeNumber].isRentable, \"Renting disabled for the NFT\");\r\n        \r\n        payable(ownerOf(_tokenId)).transfer(dueAmount);\r\n        UserInfo storage info = _users[_tokenId];\r\n        info.user = msg.sender;\r\n        uint64 timeInSeconds = month * 2629746;\r\n        info.expires = uint256(block.timestamp) + timeInSeconds;//convert months to seconds\r\n        \r\n        emit UpdateUser(_tokenId, msg.sender, timeInSeconds);\r\n    }\r\n\r\n    function buy(uint floor, uint storeNumber, uint256 _tokenId) public payable {\r\n        require(floor < stores.length && storeNumber < stores[floor].length, \"Invalid Store\");\r\n\r\n        require(stores[floor][storeNumber].isSaleable == true, \"This land is not availble for sale.\");\r\n        require(msg.value == stores[floor][storeNumber].price, \"Incorrect amount\");\r\n\r\n        payable(ownerOf(_tokenId)).transfer(stores[floor][storeNumber].price);\r\n        stores[floor][storeNumber].isSaleable = false;\r\n        stores[floor][storeNumber].isRentable = false;\r\n\r\n        safeTransferFrom(\r\n            stores[floor][storeNumber].owner,\r\n            msg.sender,\r\n            stores[floor][storeNumber].tokenId\r\n        );\r\n    }\r\n}\r\n",
  "sourcePath": "F:\\Notes\\FYP\\MetaMall-FE\\truffle\\contracts\\MetaMall.sol",
  "compiler": {
    "name": "solc",
    "version": "0.8.14+commit.80d49f37.Emscripten.clang"
  },
  "schemaVersion": "3.4.11",
  "updatedAt": "2023-04-03T08:57:33.723Z",
  "networkType": "ethereum",
  "devdoc": {
    "kind": "dev",
    "methods": {
      "approve(address,uint256)": {
        "details": "See {IERC721-approve}."
      },
      "balanceOf(address)": {
        "details": "See {IERC721-balanceOf}."
      },
      "getApproved(uint256)": {
        "details": "See {IERC721-getApproved}."
      },
      "isApprovedForAll(address,address)": {
        "details": "See {IERC721-isApprovedForAll}."
      },
      "name()": {
        "details": "See {IERC721Metadata-name}."
      },
      "ownerOf(uint256)": {
        "details": "See {IERC721-ownerOf}."
      },
      "safeTransferFrom(address,address,uint256)": {
        "details": "See {IERC721-safeTransferFrom}."
      },
      "safeTransferFrom(address,address,uint256,bytes)": {
        "details": "See {IERC721-safeTransferFrom}."
      },
      "setApprovalForAll(address,bool)": {
        "details": "See {IERC721-setApprovalForAll}."
      },
      "setUser(uint256,address,uint64)": {
        "details": "The zero address indicates there is no user Throws if `tokenId` is not valid NFT",
        "params": {
          "expires": "UNIX timestamp, The new user could use the NFT before expires",
          "user": "The new user of the NFT"
        }
      },
      "supportsInterface(bytes4)": {
        "details": "See {IERC165-supportsInterface}."
      },
      "symbol()": {
        "details": "See {IERC721Metadata-symbol}."
      },
      "tokenURI(uint256)": {
        "details": "See {IERC721Metadata-tokenURI}."
      },
      "transferFrom(address,address,uint256)": {
        "details": "See {IERC721-transferFrom}."
      },
      "userExpires(uint256)": {
        "details": "The zero value indicates that there is no user",
        "params": {
          "tokenId": "The NFT to get the user expires for"
        },
        "returns": {
          "_0": "The user expires for this NFT"
        }
      },
      "userOf(uint256)": {
        "details": "The zero address indicates that there is no user or the user is expired",
        "params": {
          "tokenId": "The NFT to get the user address for"
        },
        "returns": {
          "_0": "The user address for this NFT"
        }
      }
    },
    "version": 1
  },
  "userdoc": {
    "events": {
      "UpdateUser(uint256,address,uint64)": {
        "notice": "Emitted when the `user` of an NFT or the `expires` of the `user` is changed The zero address for user indicates that there is no user address"
      }
    },
    "kind": "user",
    "methods": {
      "setUser(uint256,address,uint64)": {
        "notice": "set the user and expires of a NFT"
      },
      "userExpires(uint256)": {
        "notice": "Get the user expires of an NFT"
      },
      "userOf(uint256)": {
        "notice": "Get the user address of an NFT"
      }
    },
    "version": 1
  }
}