{
  "contractName": "MetaMall",
  "abi": [
    {
      "inputs": [],
      "stateMutability": "nonpayable",
      "type": "constructor"
    },
    {
      "anonymous": false,
      "inputs": [
        {
          "indexed": true,
          "internalType": "address",
          "name": "owner",
          "type": "address"
        },
        {
          "indexed": true,
          "internalType": "address",
          "name": "approved",
          "type": "address"
        },
        {
          "indexed": true,
          "internalType": "uint256",
          "name": "tokenId",
          "type": "uint256"
        }
      ],
      "name": "Approval",
      "type": "event"
    },
    {
      "anonymous": false,
      "inputs": [
        {
          "indexed": true,
          "internalType": "address",
          "name": "owner",
          "type": "address"
        },
        {
          "indexed": true,
          "internalType": "address",
          "name": "operator",
          "type": "address"
        },
        {
          "indexed": false,
          "internalType": "bool",
          "name": "approved",
          "type": "bool"
        }
      ],
      "name": "ApprovalForAll",
      "type": "event"
    },
    {
      "anonymous": false,
      "inputs": [
        {
          "indexed": true,
          "internalType": "address",
          "name": "from",
          "type": "address"
        },
        {
          "indexed": true,
          "internalType": "address",
          "name": "to",
          "type": "address"
        },
        {
          "indexed": true,
          "internalType": "uint256",
          "name": "tokenId",
          "type": "uint256"
        }
      ],
      "name": "Transfer",
      "type": "event"
    },
    {
      "anonymous": false,
      "inputs": [
        {
          "indexed": true,
          "internalType": "uint256",
          "name": "tokenId",
          "type": "uint256"
        },
        {
          "indexed": true,
          "internalType": "address",
          "name": "user",
          "type": "address"
        },
        {
          "indexed": false,
          "internalType": "uint64",
          "name": "expires",
          "type": "uint64"
        }
      ],
      "name": "UpdateUser",
      "type": "event"
    },
    {
      "inputs": [
        {
          "internalType": "address",
          "name": "to",
          "type": "address"
        },
        {
          "internalType": "uint256",
          "name": "tokenId",
          "type": "uint256"
        }
      ],
      "name": "approve",
      "outputs": [],
      "stateMutability": "nonpayable",
      "type": "function"
    },
    {
      "inputs": [
        {
          "internalType": "address",
          "name": "owner",
          "type": "address"
        }
      ],
      "name": "balanceOf",
      "outputs": [
        {
          "internalType": "uint256",
          "name": "",
          "type": "uint256"
        }
      ],
      "stateMutability": "view",
      "type": "function",
      "constant": true
    },
    {
      "inputs": [
        {
          "internalType": "uint256",
          "name": "tokenId",
          "type": "uint256"
        }
      ],
      "name": "getApproved",
      "outputs": [
        {
          "internalType": "address",
          "name": "",
          "type": "address"
        }
      ],
      "stateMutability": "view",
      "type": "function",
      "constant": true
    },
    {
      "inputs": [
        {
          "internalType": "address",
          "name": "owner",
          "type": "address"
        },
        {
          "internalType": "address",
          "name": "operator",
          "type": "address"
        }
      ],
      "name": "isApprovedForAll",
      "outputs": [
        {
          "internalType": "bool",
          "name": "",
          "type": "bool"
        }
      ],
      "stateMutability": "view",
      "type": "function",
      "constant": true
    },
    {
      "inputs": [],
      "name": "name",
      "outputs": [
        {
          "internalType": "string",
          "name": "",
          "type": "string"
        }
      ],
      "stateMutability": "view",
      "type": "function",
      "constant": true
    },
    {
      "inputs": [
        {
          "internalType": "uint256",
          "name": "tokenId",
          "type": "uint256"
        }
      ],
      "name": "ownerOf",
      "outputs": [
        {
          "internalType": "address",
          "name": "",
          "type": "address"
        }
      ],
      "stateMutability": "view",
      "type": "function",
      "constant": true
    },
    {
      "inputs": [
        {
          "internalType": "address",
          "name": "from",
          "type": "address"
        },
        {
          "internalType": "address",
          "name": "to",
          "type": "address"
        },
        {
          "internalType": "uint256",
          "name": "tokenId",
          "type": "uint256"
        }
      ],
      "name": "safeTransferFrom",
      "outputs": [],
      "stateMutability": "nonpayable",
      "type": "function"
    },
    {
      "inputs": [
        {
          "internalType": "address",
          "name": "from",
          "type": "address"
        },
        {
          "internalType": "address",
          "name": "to",
          "type": "address"
        },
        {
          "internalType": "uint256",
          "name": "tokenId",
          "type": "uint256"
        },
        {
          "internalType": "bytes",
          "name": "data",
          "type": "bytes"
        }
      ],
      "name": "safeTransferFrom",
      "outputs": [],
      "stateMutability": "nonpayable",
      "type": "function"
    },
    {
      "inputs": [
        {
          "internalType": "address",
          "name": "operator",
          "type": "address"
        },
        {
          "internalType": "bool",
          "name": "approved",
          "type": "bool"
        }
      ],
      "name": "setApprovalForAll",
      "outputs": [],
      "stateMutability": "nonpayable",
      "type": "function"
    },
    {
      "inputs": [
        {
          "internalType": "uint256",
          "name": "tokenId",
          "type": "uint256"
        },
        {
          "internalType": "address",
          "name": "user",
          "type": "address"
        },
        {
          "internalType": "uint64",
          "name": "expires",
          "type": "uint64"
        }
      ],
      "name": "setUser",
      "outputs": [],
      "stateMutability": "nonpayable",
      "type": "function"
    },
    {
      "inputs": [
        {
          "internalType": "bytes4",
          "name": "interfaceId",
          "type": "bytes4"
        }
      ],
      "name": "supportsInterface",
      "outputs": [
        {
          "internalType": "bool",
          "name": "",
          "type": "bool"
        }
      ],
      "stateMutability": "view",
      "type": "function",
      "constant": true
    },
    {
      "inputs": [],
      "name": "symbol",
      "outputs": [
        {
          "internalType": "string",
          "name": "",
          "type": "string"
        }
      ],
      "stateMutability": "view",
      "type": "function",
      "constant": true
    },
    {
      "inputs": [
        {
          "internalType": "uint256",
          "name": "tokenId",
          "type": "uint256"
        }
      ],
      "name": "tokenURI",
      "outputs": [
        {
          "internalType": "string",
          "name": "",
          "type": "string"
        }
      ],
      "stateMutability": "view",
      "type": "function",
      "constant": true
    },
    {
      "inputs": [
        {
          "internalType": "address",
          "name": "from",
          "type": "address"
        },
        {
          "internalType": "address",
          "name": "to",
          "type": "address"
        },
        {
          "internalType": "uint256",
          "name": "tokenId",
          "type": "uint256"
        }
      ],
      "name": "transferFrom",
      "outputs": [],
      "stateMutability": "nonpayable",
      "type": "function"
    },
    {
      "inputs": [
        {
          "internalType": "uint256",
          "name": "tokenId",
          "type": "uint256"
        }
      ],
      "name": "userExpires",
      "outputs": [
        {
          "internalType": "uint256",
          "name": "",
          "type": "uint256"
        }
      ],
      "stateMutability": "view",
      "type": "function",
      "constant": true
    },
    {
      "inputs": [
        {
          "internalType": "uint256",
          "name": "tokenId",
          "type": "uint256"
        }
      ],
      "name": "userOf",
      "outputs": [
        {
          "internalType": "address",
          "name": "",
          "type": "address"
        }
      ],
      "stateMutability": "view",
      "type": "function",
      "constant": true
    },
    {
      "inputs": [],
      "name": "removeFloor",
      "outputs": [],
      "stateMutability": "nonpayable",
      "type": "function"
    },
    {
      "inputs": [],
      "name": "addFloor",
      "outputs": [],
      "stateMutability": "nonpayable",
      "type": "function"
    },
    {
      "inputs": [
        {
          "internalType": "uint256",
          "name": "index",
          "type": "uint256"
        }
      ],
      "name": "addFloorAtIndex",
      "outputs": [],
      "stateMutability": "nonpayable",
      "type": "function"
    },
    {
      "inputs": [
        {
          "internalType": "uint256",
          "name": "index",
          "type": "uint256"
        }
      ],
      "name": "removeFloorAtIndex",
      "outputs": [],
      "stateMutability": "nonpayable",
      "type": "function"
    },
    {
      "inputs": [
        {
          "internalType": "uint256",
          "name": "floor",
          "type": "uint256"
        },
        {
          "internalType": "uint256",
          "name": "index",
          "type": "uint256"
        }
      ],
      "name": "getStore",
      "outputs": [
        {
          "components": [
            {
              "internalType": "address",
              "name": "owner",
              "type": "address"
            },
            {
              "internalType": "uint256",
              "name": "tokenId",
              "type": "uint256"
            },
            {
              "internalType": "uint16",
              "name": "storeNumber",
              "type": "uint16"
            },
            {
              "internalType": "uint256",
              "name": "price",
              "type": "uint256"
            },
            {
              "internalType": "uint256",
              "name": "rent",
              "type": "uint256"
            },
            {
              "internalType": "bool",
              "name": "isSaleable",
              "type": "bool"
            },
            {
              "internalType": "bool",
              "name": "isRentable",
              "type": "bool"
            },
            {
              "internalType": "address",
              "name": "user",
              "type": "address"
            },
            {
              "internalType": "uint256",
              "name": "expires",
              "type": "uint256"
            }
          ],
          "internalType": "struct MetaMall.StoreDetails",
          "name": "",
          "type": "tuple"
        }
      ],
      "stateMutability": "view",
      "type": "function",
      "constant": true
    },
    {
      "inputs": [
        {
          "components": [
            {
              "internalType": "address",
              "name": "owner",
              "type": "address"
            },
            {
              "internalType": "uint256",
              "name": "tokenId",
              "type": "uint256"
            },
            {
              "internalType": "uint16",
              "name": "storeNumber",
              "type": "uint16"
            },
            {
              "internalType": "uint256",
              "name": "price",
              "type": "uint256"
            },
            {
              "internalType": "uint256",
              "name": "rent",
              "type": "uint256"
            },
            {
              "internalType": "bool",
              "name": "isSaleable",
              "type": "bool"
            },
            {
              "internalType": "bool",
              "name": "isRentable",
              "type": "bool"
            }
          ],
          "internalType": "struct MetaMall.Store",
          "name": "store",
          "type": "tuple"
        }
      ],
      "name": "getStoreDetails",
      "outputs": [
        {
          "components": [
            {
              "internalType": "address",
              "name": "owner",
              "type": "address"
            },
            {
              "internalType": "uint256",
              "name": "tokenId",
              "type": "uint256"
            },
            {
              "internalType": "uint16",
              "name": "storeNumber",
              "type": "uint16"
            },
            {
              "internalType": "uint256",
              "name": "price",
              "type": "uint256"
            },
            {
              "internalType": "uint256",
              "name": "rent",
              "type": "uint256"
            },
            {
              "internalType": "bool",
              "name": "isSaleable",
              "type": "bool"
            },
            {
              "internalType": "bool",
              "name": "isRentable",
              "type": "bool"
            },
            {
              "internalType": "address",
              "name": "user",
              "type": "address"
            },
            {
              "internalType": "uint256",
              "name": "expires",
              "type": "uint256"
            }
          ],
          "internalType": "struct MetaMall.StoreDetails",
          "name": "",
          "type": "tuple"
        }
      ],
      "stateMutability": "view",
      "type": "function",
      "constant": true
    },
    {
      "inputs": [],
      "name": "getAllStores",
      "outputs": [
        {
          "components": [
            {
              "internalType": "address",
              "name": "owner",
              "type": "address"
            },
            {
              "internalType": "uint256",
              "name": "tokenId",
              "type": "uint256"
            },
            {
              "internalType": "uint16",
              "name": "storeNumber",
              "type": "uint16"
            },
            {
              "internalType": "uint256",
              "name": "price",
              "type": "uint256"
            },
            {
              "internalType": "uint256",
              "name": "rent",
              "type": "uint256"
            },
            {
              "internalType": "bool",
              "name": "isSaleable",
              "type": "bool"
            },
            {
              "internalType": "bool",
              "name": "isRentable",
              "type": "bool"
            }
          ],
          "internalType": "struct MetaMall.Store[][]",
          "name": "",
          "type": "tuple[][]"
        }
      ],
      "stateMutability": "view",
      "type": "function",
      "constant": true
    },
    {
      "inputs": [
        {
          "internalType": "address",
          "name": "owner",
          "type": "address"
        }
      ],
      "name": "getOwnedStores",
      "outputs": [
        {
          "components": [
            {
              "internalType": "address",
              "name": "owner",
              "type": "address"
            },
            {
              "internalType": "uint256",
              "name": "tokenId",
              "type": "uint256"
            },
            {
              "internalType": "uint16",
              "name": "storeNumber",
              "type": "uint16"
            },
            {
              "internalType": "uint256",
              "name": "price",
              "type": "uint256"
            },
            {
              "internalType": "uint256",
              "name": "rent",
              "type": "uint256"
            },
            {
              "internalType": "bool",
              "name": "isSaleable",
              "type": "bool"
            },
            {
              "internalType": "bool",
              "name": "isRentable",
              "type": "bool"
            },
            {
              "internalType": "address",
              "name": "user",
              "type": "address"
            },
            {
              "internalType": "uint256",
              "name": "expires",
              "type": "uint256"
            }
          ],
          "internalType": "struct MetaMall.StoreDetails[]",
          "name": "",
          "type": "tuple[]"
        }
      ],
      "stateMutability": "view",
      "type": "function",
      "constant": true
    },
    {
      "inputs": [
        {
          "internalType": "uint256",
          "name": "floor",
          "type": "uint256"
        },
        {
          "internalType": "uint256",
          "name": "storeNumber",
          "type": "uint256"
        },
        {
          "internalType": "uint256",
          "name": "_amountPerMonth",
          "type": "uint256"
        }
      ],
      "name": "setRentFee",
      "outputs": [],
      "stateMutability": "nonpayable",
      "type": "function"
    },
    {
      "inputs": [
        {
          "internalType": "uint256",
          "name": "floor",
          "type": "uint256"
        },
        {
          "internalType": "uint256",
          "name": "storeNumber",
          "type": "uint256"
        },
        {
          "internalType": "uint256",
          "name": "_price",
          "type": "uint256"
        }
      ],
      "name": "setPrice",
      "outputs": [],
      "stateMutability": "nonpayable",
      "type": "function"
    },
    {
      "inputs": [
        {
          "internalType": "uint256",
          "name": "floor",
          "type": "uint256"
        },
        {
          "internalType": "uint256",
          "name": "storeNumber",
          "type": "uint256"
        },
        {
          "internalType": "bool",
          "name": "_rentable",
          "type": "bool"
        }
      ],
      "name": "setRentable",
      "outputs": [],
      "stateMutability": "nonpayable",
      "type": "function"
    },
    {
      "inputs": [
        {
          "internalType": "uint256",
          "name": "floor",
          "type": "uint256"
        },
        {
          "internalType": "uint256",
          "name": "storeNumber",
          "type": "uint256"
        },
        {
          "internalType": "bool",
          "name": "_saleable",
          "type": "bool"
        }
      ],
      "name": "setSaleable",
      "outputs": [],
      "stateMutability": "nonpayable",
      "type": "function"
    },
    {
      "inputs": [
        {
          "internalType": "uint256",
          "name": "floor",
          "type": "uint256"
        },
        {
          "internalType": "uint256",
          "name": "storeNumber",
          "type": "uint256"
        },
        {
          "internalType": "uint256",
          "name": "_tokenId",
          "type": "uint256"
        },
        {
          "internalType": "uint64",
          "name": "month",
          "type": "uint64"
        }
      ],
      "name": "rent",
      "outputs": [],
      "stateMutability": "payable",
      "type": "function",
      "payable": true
    },
    {
      "inputs": [
        {
          "internalType": "uint256",
          "name": "floor",
          "type": "uint256"
        },
        {
          "internalType": "uint256",
          "name": "storeNumber",
          "type": "uint256"
        },
        {
          "internalType": "uint256",
          "name": "_tokenId",
          "type": "uint256"
        }
      ],
      "name": "buy",
      "outputs": [],
      "stateMutability": "payable",
      "type": "function",
      "payable": true
    }
  ],
  "bytecode": "0x60806040523480156200001157600080fd5b506040518060400160405280600e81526020017f4d6574614d616c6c2053686f70730000000000000000000000000000000000008152506040518060400160405280600281526020017f4c4c000000000000000000000000000000000000000000000000000000000000815250818181600090805190602001906200009892919062000f12565b508060019080519060200190620000b192919062000f12565b505050505033600960006101000a81548173ffffffffffffffffffffffffffffffffffffffff021916908373ffffffffffffffffffffffffffffffffffffffff160217905550600a600181600181540180825580915050039060005260206000205050600a600181600181540180825580915050039060005260206000205050600a600181600181540180825580915050039060005260206000205050600a600181600181540180825580915050039060005260206000205050600a60018160018154018082558091505003906000526020600020505060005b60208161ffff1610156200032f57600a600081548110620001b157620001b062000fc2565b5b906000526020600020016040518060e001604052803073ffffffffffffffffffffffffffffffffffffffff168152602001620001f26200052360201b60201c565b81526020018361ffff16815260200167016345785d8a000081526020016000815260200160011515815260200160001515815250908060018154018082558091505060019003906000526020600020906006020160009091909190915060008201518160000160006101000a81548173ffffffffffffffffffffffffffffffffffffffff021916908373ffffffffffffffffffffffffffffffffffffffff1602179055506020820151816001015560408201518160020160006101000a81548161ffff021916908361ffff160217905550606082015181600301556080820151816004015560a08201518160050160006101000a81548160ff02191690831515021790555060c08201518160050160016101000a81548160ff0219169083151502179055505050808062000326906200102e565b9150506200018b565b5060005b60208161ffff1610156200050957600a60018154811062000359576200035862000fc2565b5b906000526020600020016040518060e001604052803073ffffffffffffffffffffffffffffffffffffffff1681526020016200039a6200052360201b60201c565b8152602001600a600081548110620003b757620003b662000fc2565b5b906000526020600020018054905084620003d291906200105d565b61ffff16815260200167016345785d8a000081526020016000815260200160011515815260200160001515815250908060018154018082558091505060019003906000526020600020906006020160009091909190915060008201518160000160006101000a81548173ffffffffffffffffffffffffffffffffffffffff021916908373ffffffffffffffffffffffffffffffffffffffff1602179055506020820151816001015560408201518160020160006101000a81548161ffff021916908361ffff160217905550606082015181600301556080820151816004015560a08201518160050160006101000a81548160ff02191690831515021790555060c08201518160050160016101000a81548160ff0219169083151502179055505050808062000500906200102e565b91505062000333565b506200051d3060016200059260201b60201c565b6200163b565b60006200053c6008620005b860201b62002df91760201c565b6000620005556008620005ce60201b62002e0f1760201c565b90506200058b600960009054906101000a900473ffffffffffffffffffffffffffffffffffffffff1682620005dc60201b60201c565b8091505090565b620005b4620005a66200060260201b60201c565b83836200060a60201b60201c565b5050565b6001816000016000828254019250508190555050565b600081600001549050919050565b620005fe8282604051806020016040528060008152506200077b60201b60201c565b5050565b600033905090565b8173ffffffffffffffffffffffffffffffffffffffff168373ffffffffffffffffffffffffffffffffffffffff16036200067b576040517f08c379a00000000000000000000000000000000000000000000000000000000081526004016200067290620010fd565b60405180910390fd5b80600560008573ffffffffffffffffffffffffffffffffffffffff1673ffffffffffffffffffffffffffffffffffffffff16815260200190815260200160002060008473ffffffffffffffffffffffffffffffffffffffff1673ffffffffffffffffffffffffffffffffffffffff16815260200190815260200160002060006101000a81548160ff0219169083151502179055508173ffffffffffffffffffffffffffffffffffffffff168373ffffffffffffffffffffffffffffffffffffffff167f17307eab39ab6107e8899845ad3d59bd9653f200f220920489ca2b5937696c31836040516200076e91906200113c565b60405180910390a3505050565b6200078d8383620007e960201b60201c565b620007a2600084848462000a2f60201b60201c565b620007e4576040517f08c379a0000000000000000000000000000000000000000000000000000000008152600401620007db90620011cf565b60405180910390fd5b505050565b600073ffffffffffffffffffffffffffffffffffffffff168273ffffffffffffffffffffffffffffffffffffffff16036200085b576040517f08c379a0000000000000000000000000000000000000000000000000000000008152600401620008529062001241565b60405180910390fd5b6200086c8162000bd860201b60201c565b15620008af576040517f08c379a0000000000000000000000000000000000000000000000000000000008152600401620008a690620012b3565b60405180910390fd5b620008c560008383600162000c2160201b60201c565b620008d68162000bd860201b60201c565b1562000919576040517f08c379a00000000000000000000000000000000000000000000000000000000081526004016200091090620012b3565b60405180910390fd5b6001600360008473ffffffffffffffffffffffffffffffffffffffff1673ffffffffffffffffffffffffffffffffffffffff16815260200190815260200160002060008282540192505081905550816002600083815260200190815260200160002060006101000a81548173ffffffffffffffffffffffffffffffffffffffff021916908373ffffffffffffffffffffffffffffffffffffffff160217905550808273ffffffffffffffffffffffffffffffffffffffff16600073ffffffffffffffffffffffffffffffffffffffff167fddf252ad1be2c89b69c2b068fc378daa952ba7f163c4a11628f55a4df523b3ef60405160405180910390a462000a2b60008383600162000d7f60201b60201c565b5050565b600062000a5d8473ffffffffffffffffffffffffffffffffffffffff1662000d8560201b62002e1d1760201c565b1562000bcb578373ffffffffffffffffffffffffffffffffffffffff1663150b7a0262000a8f6200060260201b60201c565b8786866040518563ffffffff1660e01b815260040162000ab39493929190620013d9565b6020604051808303816000875af192505050801562000af257506040513d601f19601f8201168201806040525081019062000aef91906200148f565b60015b62000b7a573d806000811462000b25576040519150601f19603f3d011682016040523d82523d6000602084013e62000b2a565b606091505b50600081510362000b72576040517f08c379a000000000000000000000000000000000000000000000000000000000815260040162000b6990620011cf565b60405180910390fd5b805181602001fd5b63150b7a0260e01b7bffffffffffffffffffffffffffffffffffffffffffffffffffffffff1916817bffffffffffffffffffffffffffffffffffffffffffffffffffffffff19161491505062000bd0565b600190505b949350505050565b60008073ffffffffffffffffffffffffffffffffffffffff1662000c028362000da860201b60201c565b73ffffffffffffffffffffffffffffffffffffffff1614159050919050565b62000c3a8484848462000de560201b62002e401760201c565b8273ffffffffffffffffffffffffffffffffffffffff168473ffffffffffffffffffffffffffffffffffffffff161415801562000cda5750600073ffffffffffffffffffffffffffffffffffffffff166007600084815260200190815260200160002060000160009054906101000a900473ffffffffffffffffffffffffffffffffffffffff1673ffffffffffffffffffffffffffffffffffffffff1614155b1562000d795760076000838152602001908152602001600020600080820160006101000a81549073ffffffffffffffffffffffffffffffffffffffff021916905560018201600090555050600073ffffffffffffffffffffffffffffffffffffffff16827f4e06b4e7000e659094299b3533b47b6aa8ad048e95e872d23d1f4ee55af89cfe600060405162000d70919062001522565b60405180910390a35b50505050565b50505050565b6000808273ffffffffffffffffffffffffffffffffffffffff163b119050919050565b60006002600083815260200190815260200160002060009054906101000a900473ffffffffffffffffffffffffffffffffffffffff169050919050565b600181111562000f0c57600073ffffffffffffffffffffffffffffffffffffffff168473ffffffffffffffffffffffffffffffffffffffff161462000e7d5780600360008673ffffffffffffffffffffffffffffffffffffffff1673ffffffffffffffffffffffffffffffffffffffff168152602001908152602001600020600082825462000e7591906200153f565b925050819055505b600073ffffffffffffffffffffffffffffffffffffffff168373ffffffffffffffffffffffffffffffffffffffff161462000f0b5780600360008573ffffffffffffffffffffffffffffffffffffffff1673ffffffffffffffffffffffffffffffffffffffff168152602001908152602001600020600082825462000f0391906200157a565b925050819055505b5b50505050565b82805462000f209062001606565b90600052602060002090601f01602090048101928262000f44576000855562000f90565b82601f1062000f5f57805160ff191683800117855562000f90565b8280016001018555821562000f90579182015b8281111562000f8f57825182559160200191906001019062000f72565b5b50905062000f9f919062000fa3565b5090565b5b8082111562000fbe57600081600090555060010162000fa4565b5090565b7f4e487b7100000000000000000000000000000000000000000000000000000000600052603260045260246000fd5b7f4e487b7100000000000000000000000000000000000000000000000000000000600052601160045260246000fd5b600061ffff82169050919050565b60006200103b8262001020565b915061ffff820362001052576200105162000ff1565b5b600182019050919050565b60006200106a8262001020565b9150620010778362001020565b92508261ffff0382111562001091576200109062000ff1565b5b828201905092915050565b600082825260208201905092915050565b7f4552433732313a20617070726f766520746f2063616c6c657200000000000000600082015250565b6000620010e56019836200109c565b9150620010f282620010ad565b602082019050919050565b600060208201905081810360008301526200111881620010d6565b9050919050565b60008115159050919050565b62001136816200111f565b82525050565b60006020820190506200115360008301846200112b565b92915050565b7f4552433732313a207472616e7366657220746f206e6f6e20455243373231526560008201527f63656976657220696d706c656d656e7465720000000000000000000000000000602082015250565b6000620011b76032836200109c565b9150620011c48262001159565b604082019050919050565b60006020820190508181036000830152620011ea81620011a8565b9050919050565b7f4552433732313a206d696e7420746f20746865207a65726f2061646472657373600082015250565b6000620012296020836200109c565b91506200123682620011f1565b602082019050919050565b600060208201905081810360008301526200125c816200121a565b9050919050565b7f4552433732313a20746f6b656e20616c7265616479206d696e74656400000000600082015250565b60006200129b601c836200109c565b9150620012a88262001263565b602082019050919050565b60006020820190508181036000830152620012ce816200128c565b9050919050565b600073ffffffffffffffffffffffffffffffffffffffff82169050919050565b60006200130282620012d5565b9050919050565b6200131481620012f5565b82525050565b6000819050919050565b6200132f816200131a565b82525050565b600081519050919050565b600082825260208201905092915050565b60005b838110156200137157808201518184015260208101905062001354565b8381111562001381576000848401525b50505050565b6000601f19601f8301169050919050565b6000620013a58262001335565b620013b1818562001340565b9350620013c381856020860162001351565b620013ce8162001387565b840191505092915050565b6000608082019050620013f0600083018762001309565b620013ff602083018662001309565b6200140e604083018562001324565b818103606083015262001422818462001398565b905095945050505050565b600080fd5b60007fffffffff0000000000000000000000000000000000000000000000000000000082169050919050565b620014698162001432565b81146200147557600080fd5b50565b60008151905062001489816200145e565b92915050565b600060208284031215620014a857620014a76200142d565b5b6000620014b88482850162001478565b91505092915050565b6000819050919050565b600067ffffffffffffffff82169050919050565b6000819050919050565b60006200150a62001504620014fe84620014c1565b620014df565b620014cb565b9050919050565b6200151c81620014e9565b82525050565b600060208201905062001539600083018462001511565b92915050565b60006200154c826200131a565b915062001559836200131a565b9250828210156200156f576200156e62000ff1565b5b828203905092915050565b600062001587826200131a565b915062001594836200131a565b9250827fffffffffffffffffffffffffffffffffffffffffffffffffffffffffffffffff03821115620015cc57620015cb62000ff1565b5b828201905092915050565b7f4e487b7100000000000000000000000000000000000000000000000000000000600052602260045260246000fd5b600060028204905060018216806200161f57607f821691505b602082108103620016355762001634620015d7565b5b50919050565b615d13806200164b6000396000f3fe6080604052600436106101cc5760003560e01c806370a08231116100f7578063aa585d5611610095578063e030565e11610064578063e030565e1461068b578063e985e9c5146106b4578063f6ea5882146106f1578063f9f027fa1461071a576101cc565b8063aa585d56146105bf578063b88d4fde146105e8578063c2f1f14a14610611578063c87b56dd1461064e576101cc565b80638fc88c48116100d15780638fc88c48146104f157806390e3019e1461052e57806395d89b411461056b578063a22cb46514610596576101cc565b806370a082311461044c57806376e23cae146104895780638b4bd105146104c6576101cc565b806323b872dd1161016f57806340993b261161013e57806340993b261461038d57806342842e0e146103a9578063583d0e93146103d25780636352211e1461040f576101cc565b806323b872dd146102fb57806329bc3fde146103245780632d58018d1461033b5780633e6ebaf914610364576101cc565b806306fdde03116101ab57806306fdde031461024e578063081812fc14610279578063095ea7b3146102b65780631d3ec396146102df576101cc565b8062223f83146101d157806301ffc9a7146101fa57806302362e7314610237575b600080fd5b3480156101dd57600080fd5b506101f860048036038101906101f3919061402d565b610743565b005b34801561020657600080fd5b50610221600480360381019061021c91906140d8565b6109fa565b60405161022e9190614114565b60405180910390f35b34801561024357600080fd5b5061024c610a74565b005b34801561025a57600080fd5b50610263610bab565b60405161027091906141c8565b60405180910390f35b34801561028557600080fd5b506102a0600480360381019061029b91906141ea565b610c3d565b6040516102ad9190614258565b60405180910390f35b3480156102c257600080fd5b506102dd60048036038101906102d8919061429f565b610c83565b005b6102f960048036038101906102f4919061431f565b610d9a565b005b34801561030757600080fd5b50610322600480360381019061031d9190614386565b61122c565b005b34801561033057600080fd5b5061033961128c565b005b34801561034757600080fd5b50610362600480360381019061035d91906141ea565b61133b565b005b34801561037057600080fd5b5061038b600480360381019061038691906143d9565b61149f565b005b6103a760048036038101906103a291906143d9565b6115be565b005b3480156103b557600080fd5b506103d060048036038101906103cb9190614386565b61197c565b005b3480156103de57600080fd5b506103f960048036038101906103f4919061442c565b61199c565b604051610406919061456d565b60405180910390f35b34801561041b57600080fd5b50610436600480360381019061043191906141ea565b611b3a565b6040516104439190614258565b60405180910390f35b34801561045857600080fd5b50610473600480360381019061046e9190614589565b611bc0565b60405161048091906145c5565b60405180910390f35b34801561049557600080fd5b506104b060048036038101906104ab9190614589565b611c77565b6040516104bd9190614747565b60405180910390f35b3480156104d257600080fd5b506104db612024565b6040516104e89190614968565b60405180910390f35b3480156104fd57600080fd5b50610518600480360381019061051391906141ea565b612194565b60405161052591906145c5565b60405180910390f35b34801561053a57600080fd5b5061055560048036038101906105509190614aea565b6121b4565b604051610562919061456d565b60405180910390f35b34801561057757600080fd5b506105806122ad565b60405161058d91906141c8565b60405180910390f35b3480156105a257600080fd5b506105bd60048036038101906105b89190614b17565b61233f565b005b3480156105cb57600080fd5b506105e660048036038101906105e191906143d9565b612355565b005b3480156105f457600080fd5b5061060f600480360381019061060a9190614c11565b612474565b005b34801561061d57600080fd5b50610638600480360381019061063391906141ea565b612486565b6040516106459190614258565b60405180910390f35b34801561065a57600080fd5b50610675600480360381019061067091906141ea565b6124ed565b60405161068291906141c8565b60405180910390f35b34801561069757600080fd5b506106b260048036038101906106ad9190614c94565b6125ff565b005b3480156106c057600080fd5b506106db60048036038101906106d69190614ce7565b61270a565b6040516106e89190614114565b60405180910390f35b3480156106fd57600080fd5b506107186004803603810190610713919061402d565b61279e565b005b34801561072657600080fd5b50610741600480360381019061073c91906141ea565b612a55565b005b61079561074e612f66565b600a858154811061076257610761614d27565b5b90600052602060002001848154811061077e5761077d614d27565b5b906000526020600020906006020160010154612f6e565b6107d4576040517f08c379a00000000000000000000000000000000000000000000000000000000081526004016107cb90614dc8565b60405180910390fd5b600a80549050831061081b576040517f08c379a000000000000000000000000000000000000000000000000000000000815260040161081290614e34565b60405180910390fd5b600a838154811061082f5761082e614d27565b5b906000526020600020016001600a858154811061084f5761084e614d27565b5b90600052602060002001805490506108679190614e83565b8154811061087857610877614d27565b5b906000526020600020906006020160020160009054906101000a900461ffff1661ffff168211156108de576040517f08c379a00000000000000000000000000000000000000000000000000000000081526004016108d590614f03565b60405180910390fd5b6000600a84815481106108f4576108f3614d27565b5b9060005260206000200183815481106109105761090f614d27565b5b9060005260206000209060060201600101549050600073ffffffffffffffffffffffffffffffffffffffff1661094582612486565b73ffffffffffffffffffffffffffffffffffffffff161461099b576040517f08c379a000000000000000000000000000000000000000000000000000000000815260040161099290614fbb565b60405180910390fd5b81600a85815481106109b0576109af614d27565b5b9060005260206000200184815481106109cc576109cb614d27565b5b906000526020600020906006020160050160006101000a81548160ff02191690831515021790555050505050565b60007fad092b5c000000000000000000000000000000000000000000000000000000007bffffffffffffffffffffffffffffffffffffffffffffffffffffffff1916827bffffffffffffffffffffffffffffffffffffffffffffffffffffffff19161480610a6d5750610a6c82613003565b5b9050919050565b600960009054906101000a900473ffffffffffffffffffffffffffffffffffffffff1673ffffffffffffffffffffffffffffffffffffffff163373ffffffffffffffffffffffffffffffffffffffff1614610b04576040517f08c379a0000000000000000000000000000000000000000000000000000000008152600401610afb90615027565b60405180910390fd5b6000600a6001600a80549050610b1a9190614e83565b81548110610b2b57610b2a614d27565b5b906000526020600020018054905014610b79576040517f08c379a0000000000000000000000000000000000000000000000000000000008152600401610b70906150b9565b60405180910390fd5b600a805480610b8b57610b8a6150d9565b5b600190038181906000526020600020016000610ba79190613d0c565b9055565b606060008054610bba90615137565b80601f0160208091040260200160405190810160405280929190818152602001828054610be690615137565b8015610c335780601f10610c0857610100808354040283529160200191610c33565b820191906000526020600020905b815481529060010190602001808311610c1657829003601f168201915b5050505050905090565b6000610c48826130e5565b6004600083815260200190815260200160002060009054906101000a900473ffffffffffffffffffffffffffffffffffffffff169050919050565b6000610c8e82611b3a565b90508073ffffffffffffffffffffffffffffffffffffffff168373ffffffffffffffffffffffffffffffffffffffff1603610cfe576040517f08c379a0000000000000000000000000000000000000000000000000000000008152600401610cf5906151da565b60405180910390fd5b8073ffffffffffffffffffffffffffffffffffffffff16610d1d612f66565b73ffffffffffffffffffffffffffffffffffffffff161480610d4c5750610d4b81610d46612f66565b61270a565b5b610d8b576040517f08c379a0000000000000000000000000000000000000000000000000000000008152600401610d829061526c565b60405180910390fd5b610d958383613130565b505050565b600a805490508410610de1576040517f08c379a0000000000000000000000000000000000000000000000000000000008152600401610dd890614e34565b60405180910390fd5b600a8481548110610df557610df4614d27565b5b906000526020600020016001600a8681548110610e1557610e14614d27565b5b9060005260206000200180549050610e2d9190614e83565b81548110610e3e57610e3d614d27565b5b906000526020600020906006020160020160009054906101000a900461ffff1661ffff16831115610ea4576040517f08c379a0000000000000000000000000000000000000000000000000000000008152600401610e9b90614f03565b60405180910390fd5b60008167ffffffffffffffff16600a8681548110610ec557610ec4614d27565b5b906000526020600020018581548110610ee157610ee0614d27565b5b906000526020600020906006020160040154610efd919061528c565b9050803414610f41576040517f08c379a0000000000000000000000000000000000000000000000000000000008152600401610f3890615332565b60405180910390fd5b600073ffffffffffffffffffffffffffffffffffffffff16610f6284612486565b73ffffffffffffffffffffffffffffffffffffffff1614610fb8576040517f08c379a0000000000000000000000000000000000000000000000000000000008152600401610faf9061539e565b60405180910390fd5b600a8581548110610fcc57610fcb614d27565b5b906000526020600020018481548110610fe857610fe7614d27565b5b906000526020600020906006020160050160019054906101000a900460ff16611046576040517f08c379a000000000000000000000000000000000000000000000000000000000815260040161103d9061540a565b60405180910390fd5b61104f83611b3a565b73ffffffffffffffffffffffffffffffffffffffff166108fc829081150290604051600060405180830381858888f19350505050158015611094573d6000803e3d6000fd5b506000600760008581526020019081526020016000209050338160000160006101000a81548173ffffffffffffffffffffffffffffffffffffffff021916908373ffffffffffffffffffffffffffffffffffffffff16021790555060006228207284611100919061542a565b90508067ffffffffffffffff1642611118919061546c565b82600101819055503373ffffffffffffffffffffffffffffffffffffffff16857f4e06b4e7000e659094299b3533b47b6aa8ad048e95e872d23d1f4ee55af89cfe8360405161116791906154d1565b60405180910390a36000600a888154811061118557611184614d27565b5b9060005260206000200187815481106111a1576111a0614d27565b5b906000526020600020906006020160050160016101000a81548160ff0219169083151502179055506000600a88815481106111df576111de614d27565b5b9060005260206000200187815481106111fb576111fa614d27565b5b906000526020600020906006020160050160006101000a81548160ff02191690831515021790555050505050505050565b61123d611237612f66565b82612f6e565b61127c576040517f08c379a00000000000000000000000000000000000000000000000000000000081526004016112739061555e565b60405180910390fd5b6112878383836131e9565b505050565b600960009054906101000a900473ffffffffffffffffffffffffffffffffffffffff1673ffffffffffffffffffffffffffffffffffffffff163373ffffffffffffffffffffffffffffffffffffffff161461131c576040517f08c379a000000000000000000000000000000000000000000000000000000000815260040161131390615027565b60405180910390fd5b600a600181600181540180825580915050039060005260206000205050565b600960009054906101000a900473ffffffffffffffffffffffffffffffffffffffff1673ffffffffffffffffffffffffffffffffffffffff163373ffffffffffffffffffffffffffffffffffffffff16146113cb576040517f08c379a00000000000000000000000000000000000000000000000000000000081526004016113c290615027565b60405180910390fd5b600a60018160018154018082558091505003906000526020600020505060006001600a805490506113fc9190614e83565b90505b8181111561147157600a6001826114169190614e83565b8154811061142757611426614d27565b5b90600052602060002001600a828154811061144557611444614d27565b5b9060005260206000200190805461145d929190613d30565b5080806114699061557e565b9150506113ff565b50600a818154811061148657611485614d27565b5b90600052602060002001600061149c9190613d0c565b50565b6114f16114aa612f66565b600a85815481106114be576114bd614d27565b5b9060005260206000200184815481106114da576114d9614d27565b5b906000526020600020906006020160010154612f6e565b611530576040517f08c379a000000000000000000000000000000000000000000000000000000000815260040161152790614dc8565b60405180910390fd5b60008111611573576040517f08c379a000000000000000000000000000000000000000000000000000000000815260040161156a906155f3565b60405180910390fd5b80600a848154811061158857611587614d27565b5b9060005260206000200183815481106115a4576115a3614d27565b5b906000526020600020906006020160040181905550505050565b600a805490508310611605576040517f08c379a00000000000000000000000000000000000000000000000000000000081526004016115fc90614e34565b60405180910390fd5b600a838154811061161957611618614d27565b5b906000526020600020016001600a858154811061163957611638614d27565b5b90600052602060002001805490506116519190614e83565b8154811061166257611661614d27565b5b906000526020600020906006020160020160009054906101000a900461ffff1661ffff168211156116c8576040517f08c379a00000000000000000000000000000000000000000000000000000000081526004016116bf90614f03565b60405180910390fd5b60011515600a84815481106116e0576116df614d27565b5b9060005260206000200183815481106116fc576116fb614d27565b5b906000526020600020906006020160050160009054906101000a900460ff1615151461175d576040517f08c379a000000000000000000000000000000000000000000000000000000000815260040161175490615685565b60405180910390fd5b600a838154811061177157611770614d27565b5b90600052602060002001828154811061178d5761178c614d27565b5b9060005260206000209060060201600301543410156117e1576040517f08c379a00000000000000000000000000000000000000000000000000000000081526004016117d890615332565b60405180910390fd5b6117ea81611b3a565b73ffffffffffffffffffffffffffffffffffffffff166108fc349081150290604051600060405180830381858888f1935050505015801561182f573d6000803e3d6000fd5b5061184361183c82611b3a565b338361197c565b33600a848154811061185857611857614d27565b5b90600052602060002001838154811061187457611873614d27565b5b906000526020600020906006020160000160006101000a81548173ffffffffffffffffffffffffffffffffffffffff021916908373ffffffffffffffffffffffffffffffffffffffff1602179055506000600a84815481106118d9576118d8614d27565b5b9060005260206000200183815481106118f5576118f4614d27565b5b906000526020600020906006020160050160006101000a81548160ff0219169083151502179055506000600a848154811061193357611932614d27565b5b90600052602060002001838154811061194f5761194e614d27565b5b906000526020600020906006020160050160016101000a81548160ff021916908315150217905550505050565b61199783838360405180602001604052806000815250612474565b505050565b6119a4613e98565b600a80549050831080156119d85750600a83815481106119c7576119c6614d27565b5b906000526020600020018054905082105b611a17576040517f08c379a0000000000000000000000000000000000000000000000000000000008152600401611a0e90614f03565b60405180910390fd5b611b32600a8481548110611a2e57611a2d614d27565b5b906000526020600020018381548110611a4a57611a49614d27565b5b90600052602060002090600602016040518060e00160405290816000820160009054906101000a900473ffffffffffffffffffffffffffffffffffffffff1673ffffffffffffffffffffffffffffffffffffffff1673ffffffffffffffffffffffffffffffffffffffff168152602001600182015481526020016002820160009054906101000a900461ffff1661ffff1661ffff16815260200160038201548152602001600482015481526020016005820160009054906101000a900460ff161515151581526020016005820160019054906101000a900460ff1615151515815250506121b4565b905092915050565b600080611b46836134e2565b9050600073ffffffffffffffffffffffffffffffffffffffff168173ffffffffffffffffffffffffffffffffffffffff1603611bb7576040517f08c379a0000000000000000000000000000000000000000000000000000000008152600401611bae906156f1565b60405180910390fd5b80915050919050565b60008073ffffffffffffffffffffffffffffffffffffffff168273ffffffffffffffffffffffffffffffffffffffff1603611c30576040517f08c379a0000000000000000000000000000000000000000000000000000000008152600401611c2790615783565b60405180910390fd5b600360008373ffffffffffffffffffffffffffffffffffffffff1673ffffffffffffffffffffffffffffffffffffffff168152602001908152602001600020549050919050565b6060600080606060005b600a80549050811015611d845760005b600a8281548110611ca557611ca4614d27565b5b9060005260206000200180549050811015611d70578673ffffffffffffffffffffffffffffffffffffffff16600a8381548110611ce557611ce4614d27565b5b906000526020600020018281548110611d0157611d00614d27565b5b906000526020600020906006020160000160009054906101000a900473ffffffffffffffffffffffffffffffffffffffff1673ffffffffffffffffffffffffffffffffffffffff1603611d5d578480611d59906157a3565b9550505b8080611d68906157a3565b915050611c91565b508080611d7c906157a3565b915050611c81565b508267ffffffffffffffff811115611d9f57611d9e61498f565b5b604051908082528060200260200182016040528015611dd857816020015b611dc5613e98565b815260200190600190039081611dbd5790505b50905060005b600a805490508110156120185760005b600a8281548110611e0257611e01614d27565b5b9060005260206000200180549050811015612004578673ffffffffffffffffffffffffffffffffffffffff16600a8381548110611e4257611e41614d27565b5b906000526020600020018281548110611e5e57611e5d614d27565b5b906000526020600020906006020160000160009054906101000a900473ffffffffffffffffffffffffffffffffffffffff1673ffffffffffffffffffffffffffffffffffffffff1603611ff157611fc6600a8381548110611ec257611ec1614d27565b5b906000526020600020018281548110611ede57611edd614d27565b5b90600052602060002090600602016040518060e00160405290816000820160009054906101000a900473ffffffffffffffffffffffffffffffffffffffff1673ffffffffffffffffffffffffffffffffffffffff1673ffffffffffffffffffffffffffffffffffffffff168152602001600182015481526020016002820160009054906101000a900461ffff1661ffff1661ffff16815260200160038201548152602001600482015481526020016005820160009054906101000a900460ff161515151581526020016005820160019054906101000a900460ff1615151515815250506121b4565b838580611fd2906157a3565b965081518110611fe557611fe4614d27565b5b60200260200101819052505b8080611ffc906157a3565b915050611dee565b508080612010906157a3565b915050611dde565b50809350505050919050565b6060600a805480602002602001604051908101604052809291908181526020016000905b8282101561218b57838290600052602060002001805480602002602001604051908101604052809291908181526020016000905b8282101561217857838290600052602060002090600602016040518060e00160405290816000820160009054906101000a900473ffffffffffffffffffffffffffffffffffffffff1673ffffffffffffffffffffffffffffffffffffffff1673ffffffffffffffffffffffffffffffffffffffff168152602001600182015481526020016002820160009054906101000a900461ffff1661ffff1661ffff16815260200160038201548152602001600482015481526020016005820160009054906101000a900460ff161515151581526020016005820160019054906101000a900460ff1615151515815250508152602001906001019061207c565b5050505081526020019060010190612048565b50505050905090565b600060076000838152602001908152602001600020600101549050919050565b6121bc613e98565b6000604051806101200160405280846000015173ffffffffffffffffffffffffffffffffffffffff16815260200184602001518152602001846040015161ffff16815260200184606001518152602001846080015181526020018460a00151151581526020018460c0015115158152602001600760008660200151815260200190815260200160002060000160009054906101000a900473ffffffffffffffffffffffffffffffffffffffff1673ffffffffffffffffffffffffffffffffffffffff168152602001600760008660200151815260200190815260200160002060010154815250905080915050919050565b6060600180546122bc90615137565b80601f01602080910402602001604051908101604052809291908181526020018280546122e890615137565b80156123355780601f1061230a57610100808354040283529160200191612335565b820191906000526020600020905b81548152906001019060200180831161231857829003601f168201915b5050505050905090565b61235161234a612f66565b838361351f565b5050565b6123a7612360612f66565b600a858154811061237457612373614d27565b5b9060005260206000200184815481106123905761238f614d27565b5b906000526020600020906006020160010154612f6e565b6123e6576040517f08c379a00000000000000000000000000000000000000000000000000000000081526004016123dd90614dc8565b60405180910390fd5b60008111612429576040517f08c379a0000000000000000000000000000000000000000000000000000000008152600401612420906155f3565b60405180910390fd5b80600a848154811061243e5761243d614d27565b5b90600052602060002001838154811061245a57612459614d27565b5b906000526020600020906006020160030181905550505050565b6124808484848461368b565b50505050565b6000426007600084815260200190815260200160002060010154106124e3576007600083815260200190815260200160002060000160009054906101000a900473ffffffffffffffffffffffffffffffffffffffff1690506124e8565b600090505b919050565b60606124f8826130e5565b600060066000848152602001908152602001600020805461251890615137565b80601f016020809104026020016040519081016040528092919081815260200182805461254490615137565b80156125915780601f1061256657610100808354040283529160200191612591565b820191906000526020600020905b81548152906001019060200180831161257457829003601f168201915b5050505050905060006125a26136e7565b905060008151036125b75781925050506125fa565b6000825111156125ec5780826040516020016125d4929190615827565b604051602081830303815290604052925050506125fa565b6125f5846136fe565b925050505b919050565b6126093384612f6e565b612648576040517f08c379a000000000000000000000000000000000000000000000000000000000815260040161263f906158bd565b60405180910390fd5b6000600760008581526020019081526020016000209050828160000160006101000a81548173ffffffffffffffffffffffffffffffffffffffff021916908373ffffffffffffffffffffffffffffffffffffffff1602179055508167ffffffffffffffff1681600101819055508273ffffffffffffffffffffffffffffffffffffffff16847f4e06b4e7000e659094299b3533b47b6aa8ad048e95e872d23d1f4ee55af89cfe846040516126fc91906154d1565b60405180910390a350505050565b6000600560008473ffffffffffffffffffffffffffffffffffffffff1673ffffffffffffffffffffffffffffffffffffffff16815260200190815260200160002060008373ffffffffffffffffffffffffffffffffffffffff1673ffffffffffffffffffffffffffffffffffffffff16815260200190815260200160002060009054906101000a900460ff16905092915050565b6127f06127a9612f66565b600a85815481106127bd576127bc614d27565b5b9060005260206000200184815481106127d9576127d8614d27565b5b906000526020600020906006020160010154612f6e565b61282f576040517f08c379a000000000000000000000000000000000000000000000000000000000815260040161282690614dc8565b60405180910390fd5b600a805490508310612876576040517f08c379a000000000000000000000000000000000000000000000000000000000815260040161286d90614e34565b60405180910390fd5b600a838154811061288a57612889614d27565b5b906000526020600020016001600a85815481106128aa576128a9614d27565b5b90600052602060002001805490506128c29190614e83565b815481106128d3576128d2614d27565b5b906000526020600020906006020160020160009054906101000a900461ffff1661ffff16821115612939576040517f08c379a000000000000000000000000000000000000000000000000000000000815260040161293090614f03565b60405180910390fd5b6000600a848154811061294f5761294e614d27565b5b90600052602060002001838154811061296b5761296a614d27565b5b9060005260206000209060060201600101549050600073ffffffffffffffffffffffffffffffffffffffff166129a082612486565b73ffffffffffffffffffffffffffffffffffffffff16146129f6576040517f08c379a00000000000000000000000000000000000000000000000000000000081526004016129ed90615929565b60405180910390fd5b81600a8581548110612a0b57612a0a614d27565b5b906000526020600020018481548110612a2757612a26614d27565b5b906000526020600020906006020160050160016101000a81548160ff02191690831515021790555050505050565b600960009054906101000a900473ffffffffffffffffffffffffffffffffffffffff1673ffffffffffffffffffffffffffffffffffffffff163373ffffffffffffffffffffffffffffffffffffffff1614612ae5576040517f08c379a0000000000000000000000000000000000000000000000000000000008152600401612adc90615027565b60405180910390fd5b6000600a8281548110612afb57612afa614d27565b5b906000526020600020018054905014612b49576040517f08c379a0000000000000000000000000000000000000000000000000000000008152600401612b40906150b9565b60405180910390fd5b60008190505b6001600a8381548110612b6557612b64614d27565b5b9060005260206000200180549050612b7d9190614e83565b811015612d3257600a8281548110612b9857612b97614d27565b5b90600052602060002001600182612baf919061546c565b81548110612bc057612bbf614d27565b5b9060005260206000209060060201600a8381548110612be257612be1614d27565b5b906000526020600020018281548110612bfe57612bfd614d27565b5b90600052602060002090600602016000820160009054906101000a900473ffffffffffffffffffffffffffffffffffffffff168160000160006101000a81548173ffffffffffffffffffffffffffffffffffffffff021916908373ffffffffffffffffffffffffffffffffffffffff160217905550600182015481600101556002820160009054906101000a900461ffff168160020160006101000a81548161ffff021916908361ffff16021790555060038201548160030155600482015481600401556005820160009054906101000a900460ff168160050160006101000a81548160ff0219169083151502179055506005820160019054906101000a900460ff168160050160016101000a81548160ff0219169083151502179055509050508080612d2a906157a3565b915050612b4f565b50600a8181548110612d4757612d46614d27565b5b90600052602060002001805480612d6157612d606150d9565b5b6001900381819060005260206000209060060201600080820160006101000a81549073ffffffffffffffffffffffffffffffffffffffff021916905560018201600090556002820160006101000a81549061ffff0219169055600382016000905560048201600090556005820160006101000a81549060ff02191690556005820160016101000a81549060ff02191690555050905550565b6001816000016000828254019250508190555050565b600081600001549050919050565b6000808273ffffffffffffffffffffffffffffffffffffffff163b119050919050565b6001811115612f6057600073ffffffffffffffffffffffffffffffffffffffff168473ffffffffffffffffffffffffffffffffffffffff1614612ed45780600360008673ffffffffffffffffffffffffffffffffffffffff1673ffffffffffffffffffffffffffffffffffffffff1681526020019081526020016000206000828254612ecc9190614e83565b925050819055505b600073ffffffffffffffffffffffffffffffffffffffff168373ffffffffffffffffffffffffffffffffffffffff1614612f5f5780600360008573ffffffffffffffffffffffffffffffffffffffff1673ffffffffffffffffffffffffffffffffffffffff1681526020019081526020016000206000828254612f57919061546c565b925050819055505b5b50505050565b600033905090565b600080612f7a83611b3a565b90508073ffffffffffffffffffffffffffffffffffffffff168473ffffffffffffffffffffffffffffffffffffffff161480612fbc5750612fbb818561270a565b5b80612ffa57508373ffffffffffffffffffffffffffffffffffffffff16612fe284610c3d565b73ffffffffffffffffffffffffffffffffffffffff16145b91505092915050565b60007f80ac58cd000000000000000000000000000000000000000000000000000000007bffffffffffffffffffffffffffffffffffffffffffffffffffffffff1916827bffffffffffffffffffffffffffffffffffffffffffffffffffffffff191614806130ce57507f5b5e139f000000000000000000000000000000000000000000000000000000007bffffffffffffffffffffffffffffffffffffffffffffffffffffffff1916827bffffffffffffffffffffffffffffffffffffffffffffffffffffffff1916145b806130de57506130dd82613766565b5b9050919050565b6130ee816137d0565b61312d576040517f08c379a0000000000000000000000000000000000000000000000000000000008152600401613124906156f1565b60405180910390fd5b50565b816004600083815260200190815260200160002060006101000a81548173ffffffffffffffffffffffffffffffffffffffff021916908373ffffffffffffffffffffffffffffffffffffffff160217905550808273ffffffffffffffffffffffffffffffffffffffff166131a383611b3a565b73ffffffffffffffffffffffffffffffffffffffff167f8c5be1e5ebec7d5bd14f71427d1e84f3dd0314c0f7b2291e5b200ac8c7c3b92560405160405180910390a45050565b8273ffffffffffffffffffffffffffffffffffffffff1661320982611b3a565b73ffffffffffffffffffffffffffffffffffffffff161461325f576040517f08c379a0000000000000000000000000000000000000000000000000000000008152600401613256906159bb565b60405180910390fd5b600073ffffffffffffffffffffffffffffffffffffffff168273ffffffffffffffffffffffffffffffffffffffff16036132ce576040517f08c379a00000000000000000000000000000000000000000000000000000000081526004016132c590615a4d565b60405180910390fd5b6132db8383836001613811565b8273ffffffffffffffffffffffffffffffffffffffff166132fb82611b3a565b73ffffffffffffffffffffffffffffffffffffffff1614613351576040517f08c379a0000000000000000000000000000000000000000000000000000000008152600401613348906159bb565b60405180910390fd5b6004600082815260200190815260200160002060006101000a81549073ffffffffffffffffffffffffffffffffffffffff02191690556001600360008573ffffffffffffffffffffffffffffffffffffffff1673ffffffffffffffffffffffffffffffffffffffff168152602001908152602001600020600082825403925050819055506001600360008473ffffffffffffffffffffffffffffffffffffffff1673ffffffffffffffffffffffffffffffffffffffff16815260200190815260200160002060008282540192505081905550816002600083815260200190815260200160002060006101000a81548173ffffffffffffffffffffffffffffffffffffffff021916908373ffffffffffffffffffffffffffffffffffffffff160217905550808273ffffffffffffffffffffffffffffffffffffffff168473ffffffffffffffffffffffffffffffffffffffff167fddf252ad1be2c89b69c2b068fc378daa952ba7f163c4a11628f55a4df523b3ef60405160405180910390a46134dd838383600161395e565b505050565b60006002600083815260200190815260200160002060009054906101000a900473ffffffffffffffffffffffffffffffffffffffff169050919050565b8173ffffffffffffffffffffffffffffffffffffffff168373ffffffffffffffffffffffffffffffffffffffff160361358d576040517f08c379a000000000000000000000000000000000000000000000000000000000815260040161358490615ab9565b60405180910390fd5b80600560008573ffffffffffffffffffffffffffffffffffffffff1673ffffffffffffffffffffffffffffffffffffffff16815260200190815260200160002060008473ffffffffffffffffffffffffffffffffffffffff1673ffffffffffffffffffffffffffffffffffffffff16815260200190815260200160002060006101000a81548160ff0219169083151502179055508173ffffffffffffffffffffffffffffffffffffffff168373ffffffffffffffffffffffffffffffffffffffff167f17307eab39ab6107e8899845ad3d59bd9653f200f220920489ca2b5937696c318360405161367e9190614114565b60405180910390a3505050565b6136968484846131e9565b6136a284848484613964565b6136e1576040517f08c379a00000000000000000000000000000000000000000000000000000000081526004016136d890615b4b565b60405180910390fd5b50505050565b606060405180602001604052806000815250905090565b6060613709826130e5565b60006137136136e7565b90506000815111613733576040518060200160405280600081525061375e565b8061373d84613aeb565b60405160200161374e929190615827565b6040516020818303038152906040525b915050919050565b60007f01ffc9a7000000000000000000000000000000000000000000000000000000007bffffffffffffffffffffffffffffffffffffffffffffffffffffffff1916827bffffffffffffffffffffffffffffffffffffffffffffffffffffffff1916149050919050565b60008073ffffffffffffffffffffffffffffffffffffffff166137f2836134e2565b73ffffffffffffffffffffffffffffffffffffffff1614159050919050565b61381d84848484612e40565b8273ffffffffffffffffffffffffffffffffffffffff168473ffffffffffffffffffffffffffffffffffffffff16141580156138bc5750600073ffffffffffffffffffffffffffffffffffffffff166007600084815260200190815260200160002060000160009054906101000a900473ffffffffffffffffffffffffffffffffffffffff1673ffffffffffffffffffffffffffffffffffffffff1614155b156139585760076000838152602001908152602001600020600080820160006101000a81549073ffffffffffffffffffffffffffffffffffffffff021916905560018201600090555050600073ffffffffffffffffffffffffffffffffffffffff16827f4e06b4e7000e659094299b3533b47b6aa8ad048e95e872d23d1f4ee55af89cfe600060405161394f9190615bb0565b60405180910390a35b50505050565b50505050565b60006139858473ffffffffffffffffffffffffffffffffffffffff16612e1d565b15613ade578373ffffffffffffffffffffffffffffffffffffffff1663150b7a026139ae612f66565b8786866040518563ffffffff1660e01b81526004016139d09493929190615c20565b6020604051808303816000875af1925050508015613a0c57506040513d601f19601f82011682018060405250810190613a099190615c81565b60015b613a8e573d8060008114613a3c576040519150601f19603f3d011682016040523d82523d6000602084013e613a41565b606091505b506000815103613a86576040517f08c379a0000000000000000000000000000000000000000000000000000000008152600401613a7d90615b4b565b60405180910390fd5b805181602001fd5b63150b7a0260e01b7bffffffffffffffffffffffffffffffffffffffffffffffffffffffff1916817bffffffffffffffffffffffffffffffffffffffffffffffffffffffff191614915050613ae3565b600190505b949350505050565b606060006001613afa84613bb9565b01905060008167ffffffffffffffff811115613b1957613b1861498f565b5b6040519080825280601f01601f191660200182016040528015613b4b5781602001600182028036833780820191505090505b509050600082602001820190505b600115613bae578080600190039150507f3031323334353637383961626364656600000000000000000000000000000000600a86061a8153600a8581613ba257613ba1615cae565b5b04945060008503613b59575b819350505050919050565b600080600090507a184f03e93ff9f4daa797ed6e38ed64bf6a1f0100000000000000008310613c17577a184f03e93ff9f4daa797ed6e38ed64bf6a1f0100000000000000008381613c0d57613c0c615cae565b5b0492506040810190505b6d04ee2d6d415b85acef81000000008310613c54576d04ee2d6d415b85acef81000000008381613c4a57613c49615cae565b5b0492506020810190505b662386f26fc100008310613c8357662386f26fc100008381613c7957613c78615cae565b5b0492506010810190505b6305f5e1008310613cac576305f5e1008381613ca257613ca1615cae565b5b0492506008810190505b6127108310613cd1576127108381613cc757613cc6615cae565b5b0492506004810190505b60648310613cf45760648381613cea57613ce9615cae565b5b0492506002810190505b600a8310613d03576001810190505b80915050919050565b5080546000825560060290600052602060002090810190613d2d9190613f18565b50565b828054828255906000526020600020906006028101928215613e875760005260206000209160060282015b82811115613e865782826000820160009054906101000a900473ffffffffffffffffffffffffffffffffffffffff168160000160006101000a81548173ffffffffffffffffffffffffffffffffffffffff021916908373ffffffffffffffffffffffffffffffffffffffff160217905550600182015481600101556002820160009054906101000a900461ffff168160020160006101000a81548161ffff021916908361ffff16021790555060038201548160030155600482015481600401556005820160009054906101000a900460ff168160050160006101000a81548160ff0219169083151502179055506005820160019054906101000a900460ff168160050160016101000a81548160ff021916908315150217905550505091600601919060060190613d5b565b5b509050613e949190613f18565b5090565b604051806101200160405280600073ffffffffffffffffffffffffffffffffffffffff16815260200160008152602001600061ffff1681526020016000815260200160008152602001600015158152602001600015158152602001600073ffffffffffffffffffffffffffffffffffffffff168152602001600081525090565b5b80821115613fa757600080820160006101000a81549073ffffffffffffffffffffffffffffffffffffffff021916905560018201600090556002820160006101000a81549061ffff0219169055600382016000905560048201600090556005820160006101000a81549060ff02191690556005820160016101000a81549060ff021916905550600601613f19565b5090565b6000604051905090565b600080fd5b600080fd5b6000819050919050565b613fd281613fbf565b8114613fdd57600080fd5b50565b600081359050613fef81613fc9565b92915050565b60008115159050919050565b61400a81613ff5565b811461401557600080fd5b50565b60008135905061402781614001565b92915050565b60008060006060848603121561404657614045613fb5565b5b600061405486828701613fe0565b935050602061406586828701613fe0565b925050604061407686828701614018565b9150509250925092565b60007fffffffff0000000000000000000000000000000000000000000000000000000082169050919050565b6140b581614080565b81146140c057600080fd5b50565b6000813590506140d2816140ac565b92915050565b6000602082840312156140ee576140ed613fb5565b5b60006140fc848285016140c3565b91505092915050565b61410e81613ff5565b82525050565b60006020820190506141296000830184614105565b92915050565b600081519050919050565b600082825260208201905092915050565b60005b8381101561416957808201518184015260208101905061414e565b83811115614178576000848401525b50505050565b6000601f19601f8301169050919050565b600061419a8261412f565b6141a4818561413a565b93506141b481856020860161414b565b6141bd8161417e565b840191505092915050565b600060208201905081810360008301526141e2818461418f565b905092915050565b600060208284031215614200576141ff613fb5565b5b600061420e84828501613fe0565b91505092915050565b600073ffffffffffffffffffffffffffffffffffffffff82169050919050565b600061424282614217565b9050919050565b61425281614237565b82525050565b600060208201905061426d6000830184614249565b92915050565b61427c81614237565b811461428757600080fd5b50565b60008135905061429981614273565b92915050565b600080604083850312156142b6576142b5613fb5565b5b60006142c48582860161428a565b92505060206142d585828601613fe0565b9150509250929050565b600067ffffffffffffffff82169050919050565b6142fc816142df565b811461430757600080fd5b50565b600081359050614319816142f3565b92915050565b6000806000806080858703121561433957614338613fb5565b5b600061434787828801613fe0565b945050602061435887828801613fe0565b935050604061436987828801613fe0565b925050606061437a8782880161430a565b91505092959194509250565b60008060006060848603121561439f5761439e613fb5565b5b60006143ad8682870161428a565b93505060206143be8682870161428a565b92505060406143cf86828701613fe0565b9150509250925092565b6000806000606084860312156143f2576143f1613fb5565b5b600061440086828701613fe0565b935050602061441186828701613fe0565b925050604061442286828701613fe0565b9150509250925092565b6000806040838503121561444357614442613fb5565b5b600061445185828601613fe0565b925050602061446285828601613fe0565b9150509250929050565b61447581614237565b82525050565b61448481613fbf565b82525050565b600061ffff82169050919050565b6144a18161448a565b82525050565b6144b081613ff5565b82525050565b610120820160008201516144cd600085018261446c565b5060208201516144e0602085018261447b565b5060408201516144f36040850182614498565b506060820151614506606085018261447b565b506080820151614519608085018261447b565b5060a082015161452c60a08501826144a7565b5060c082015161453f60c08501826144a7565b5060e082015161455260e085018261446c565b5061010082015161456761010085018261447b565b50505050565b60006101208201905061458360008301846144b6565b92915050565b60006020828403121561459f5761459e613fb5565b5b60006145ad8482850161428a565b91505092915050565b6145bf81613fbf565b82525050565b60006020820190506145da60008301846145b6565b92915050565b600081519050919050565b600082825260208201905092915050565b6000819050602082019050919050565b61012082016000820151614623600085018261446c565b506020820151614636602085018261447b565b5060408201516146496040850182614498565b50606082015161465c606085018261447b565b50608082015161466f608085018261447b565b5060a082015161468260a08501826144a7565b5060c082015161469560c08501826144a7565b5060e08201516146a860e085018261446c565b506101008201516146bd61010085018261447b565b50505050565b60006146cf838361460c565b6101208301905092915050565b6000602082019050919050565b60006146f4826145e0565b6146fe81856145eb565b9350614709836145fc565b8060005b8381101561473a57815161472188826146c3565b975061472c836146dc565b92505060018101905061470d565b5085935050505092915050565b6000602082019050818103600083015261476181846146e9565b905092915050565b600081519050919050565b600082825260208201905092915050565b6000819050602082019050919050565b600081519050919050565b600082825260208201905092915050565b6000819050602082019050919050565b60e0820160008201516147d7600085018261446c565b5060208201516147ea602085018261447b565b5060408201516147fd6040850182614498565b506060820151614810606085018261447b565b506080820151614823608085018261447b565b5060a082015161483660a08501826144a7565b5060c082015161484960c08501826144a7565b50505050565b600061485b83836147c1565b60e08301905092915050565b6000602082019050919050565b600061487f82614795565b61488981856147a0565b9350614894836147b1565b8060005b838110156148c55781516148ac888261484f565b97506148b783614867565b925050600181019050614898565b5085935050505092915050565b60006148de8383614874565b905092915050565b6000602082019050919050565b60006148fe82614769565b6149088185614774565b93508360208202850161491a85614785565b8060005b85811015614956578484038952815161493785826148d2565b9450614942836148e6565b925060208a0199505060018101905061491e565b50829750879550505050505092915050565b6000602082019050818103600083015261498281846148f3565b905092915050565b600080fd5b7f4e487b7100000000000000000000000000000000000000000000000000000000600052604160045260246000fd5b6149c78261417e565b810181811067ffffffffffffffff821117156149e6576149e561498f565b5b80604052505050565b60006149f9613fab565b9050614a0582826149be565b919050565b614a138161448a565b8114614a1e57600080fd5b50565b600081359050614a3081614a0a565b92915050565b600060e08284031215614a4c57614a4b61498a565b5b614a5660e06149ef565b90506000614a668482850161428a565b6000830152506020614a7a84828501613fe0565b6020830152506040614a8e84828501614a21565b6040830152506060614aa284828501613fe0565b6060830152506080614ab684828501613fe0565b60808301525060a0614aca84828501614018565b60a08301525060c0614ade84828501614018565b60c08301525092915050565b600060e08284031215614b0057614aff613fb5565b5b6000614b0e84828501614a36565b91505092915050565b60008060408385031215614b2e57614b2d613fb5565b5b6000614b3c8582860161428a565b9250506020614b4d85828601614018565b9150509250929050565b600080fd5b600080fd5b600067ffffffffffffffff821115614b7c57614b7b61498f565b5b614b858261417e565b9050602081019050919050565b82818337600083830152505050565b6000614bb4614baf84614b61565b6149ef565b905082815260208101848484011115614bd057614bcf614b5c565b5b614bdb848285614b92565b509392505050565b600082601f830112614bf857614bf7614b57565b5b8135614c08848260208601614ba1565b91505092915050565b60008060008060808587031215614c2b57614c2a613fb5565b5b6000614c398782880161428a565b9450506020614c4a8782880161428a565b9350506040614c5b87828801613fe0565b925050606085013567ffffffffffffffff811115614c7c57614c7b613fba565b5b614c8887828801614be3565b91505092959194509250565b600080600060608486031215614cad57614cac613fb5565b5b6000614cbb86828701613fe0565b9350506020614ccc8682870161428a565b9250506040614cdd8682870161430a565b9150509250925092565b60008060408385031215614cfe57614cfd613fb5565b5b6000614d0c8582860161428a565b9250506020614d1d8582860161428a565b9150509250929050565b7f4e487b7100000000000000000000000000000000000000000000000000000000600052603260045260246000fd5b7f43616c6c6572206973206e6f7420746f6b656e206f776e6572206e6f7220617060008201527f70726f7665640000000000000000000000000000000000000000000000000000602082015250565b6000614db260268361413a565b9150614dbd82614d56565b604082019050919050565b60006020820190508181036000830152614de181614da5565b9050919050565b7f496e76616c696420466c6f6f7200000000000000000000000000000000000000600082015250565b6000614e1e600d8361413a565b9150614e2982614de8565b602082019050919050565b60006020820190508181036000830152614e4d81614e11565b9050919050565b7f4e487b7100000000000000000000000000000000000000000000000000000000600052601160045260246000fd5b6000614e8e82613fbf565b9150614e9983613fbf565b925082821015614eac57614eab614e54565b5b828203905092915050565b7f496e76616c69642053746f726500000000000000000000000000000000000000600082015250565b6000614eed600d8361413a565b9150614ef882614eb7565b602082019050919050565b60006020820190508181036000830152614f1c81614ee0565b9050919050565b7f53746f72652069732072656e746564206f75742e205761697420666f7220726560008201527f6e742074656e75726520746f206265206f766572206265666f72652073656c6c60208201527f696e672e00000000000000000000000000000000000000000000000000000000604082015250565b6000614fa560448361413a565b9150614fb082614f23565b606082019050919050565b60006020820190508181036000830152614fd481614f98565b9050919050565b7f4e6f7420417574686f7269736564000000000000000000000000000000000000600082015250565b6000615011600e8361413a565b915061501c82614fdb565b602082019050919050565b6000602082019050818103600083015261504081615004565b9050919050565b7f466c6f6f72206d75737420626520656d70747920746f2062652064656c65746560008201527f6400000000000000000000000000000000000000000000000000000000000000602082015250565b60006150a360218361413a565b91506150ae82615047565b604082019050919050565b600060208201905081810360008301526150d281615096565b9050919050565b7f4e487b7100000000000000000000000000000000000000000000000000000000600052603160045260246000fd5b7f4e487b7100000000000000000000000000000000000000000000000000000000600052602260045260246000fd5b6000600282049050600182168061514f57607f821691505b60208210810361516257615161615108565b5b50919050565b7f4552433732313a20617070726f76616c20746f2063757272656e74206f776e6560008201527f7200000000000000000000000000000000000000000000000000000000000000602082015250565b60006151c460218361413a565b91506151cf82615168565b604082019050919050565b600060208201905081810360008301526151f3816151b7565b9050919050565b7f4552433732313a20617070726f76652063616c6c6572206973206e6f7420746f60008201527f6b656e206f776e6572206f7220617070726f76656420666f7220616c6c000000602082015250565b6000615256603d8361413a565b9150615261826151fa565b604082019050919050565b6000602082019050818103600083015261528581615249565b9050919050565b600061529782613fbf565b91506152a283613fbf565b9250817fffffffffffffffffffffffffffffffffffffffffffffffffffffffffffffffff04831182151516156152db576152da614e54565b5b828202905092915050565b7f496e636f727265637420616d6f756e7400000000000000000000000000000000600082015250565b600061531c60108361413a565b9150615327826152e6565b602082019050919050565b6000602082019050818103600083015261534b8161530f565b9050919050565b7f416c72656164792072656e746564000000000000000000000000000000000000600082015250565b6000615388600e8361413a565b915061539382615352565b602082019050919050565b600060208201905081810360008301526153b78161537b565b9050919050565b7f52656e74696e672064697361626c656420666f7220746865204e465400000000600082015250565b60006153f4601c8361413a565b91506153ff826153be565b602082019050919050565b60006020820190508181036000830152615423816153e7565b9050919050565b6000615435826142df565b9150615440836142df565b92508167ffffffffffffffff048311821515161561546157615460614e54565b5b828202905092915050565b600061547782613fbf565b915061548283613fbf565b9250827fffffffffffffffffffffffffffffffffffffffffffffffffffffffffffffffff038211156154b7576154b6614e54565b5b828201905092915050565b6154cb816142df565b82525050565b60006020820190506154e660008301846154c2565b92915050565b7f4552433732313a2063616c6c6572206973206e6f7420746f6b656e206f776e6560008201527f72206f7220617070726f76656400000000000000000000000000000000000000602082015250565b6000615548602d8361413a565b9150615553826154ec565b604082019050919050565b600060208201905081810360008301526155778161553b565b9050919050565b600061558982613fbf565b91506000820361559c5761559b614e54565b5b600182039050919050565b7f496e76616c696420507269636500000000000000000000000000000000000000600082015250565b60006155dd600d8361413a565b91506155e8826155a7565b602082019050919050565b6000602082019050818103600083015261560c816155d0565b9050919050565b7f54686973206c616e64206973206e6f7420617661696c626c6520666f7220736160008201527f6c652e0000000000000000000000000000000000000000000000000000000000602082015250565b600061566f60238361413a565b915061567a82615613565b604082019050919050565b6000602082019050818103600083015261569e81615662565b9050919050565b7f4552433732313a20696e76616c696420746f6b656e2049440000000000000000600082015250565b60006156db60188361413a565b91506156e6826156a5565b602082019050919050565b6000602082019050818103600083015261570a816156ce565b9050919050565b7f4552433732313a2061646472657373207a65726f206973206e6f74206120766160008201527f6c6964206f776e65720000000000000000000000000000000000000000000000602082015250565b600061576d60298361413a565b915061577882615711565b604082019050919050565b6000602082019050818103600083015261579c81615760565b9050919050565b60006157ae82613fbf565b91507fffffffffffffffffffffffffffffffffffffffffffffffffffffffffffffffff82036157e0576157df614e54565b5b600182019050919050565b600081905092915050565b60006158018261412f565b61580b81856157eb565b935061581b81856020860161414b565b80840191505092915050565b600061583382856157f6565b915061583f82846157f6565b91508190509392505050565b7f4552433732313a207472616e736665722063616c6c6572206973206e6f74206f60008201527f776e6572206e6f7220617070726f766564000000000000000000000000000000602082015250565b60006158a760318361413a565b91506158b28261584b565b604082019050919050565b600060208201905081810360008301526158d68161589a565b9050919050565b7f53746f726520616c72656164792072656e746564000000000000000000000000600082015250565b600061591360148361413a565b915061591e826158dd565b602082019050919050565b6000602082019050818103600083015261594281615906565b9050919050565b7f4552433732313a207472616e736665722066726f6d20696e636f72726563742060008201527f6f776e6572000000000000000000000000000000000000000000000000000000602082015250565b60006159a560258361413a565b91506159b082615949565b604082019050919050565b600060208201905081810360008301526159d481615998565b9050919050565b7f4552433732313a207472616e7366657220746f20746865207a65726f2061646460008201527f7265737300000000000000000000000000000000000000000000000000000000602082015250565b6000615a3760248361413a565b9150615a42826159db565b604082019050919050565b60006020820190508181036000830152615a6681615a2a565b9050919050565b7f4552433732313a20617070726f766520746f2063616c6c657200000000000000600082015250565b6000615aa360198361413a565b9150615aae82615a6d565b602082019050919050565b60006020820190508181036000830152615ad281615a96565b9050919050565b7f4552433732313a207472616e7366657220746f206e6f6e20455243373231526560008201527f63656976657220696d706c656d656e7465720000000000000000000000000000602082015250565b6000615b3560328361413a565b9150615b4082615ad9565b604082019050919050565b60006020820190508181036000830152615b6481615b28565b9050919050565b6000819050919050565b6000819050919050565b6000615b9a615b95615b9084615b6b565b615b75565b6142df565b9050919050565b615baa81615b7f565b82525050565b6000602082019050615bc56000830184615ba1565b92915050565b600081519050919050565b600082825260208201905092915050565b6000615bf282615bcb565b615bfc8185615bd6565b9350615c0c81856020860161414b565b615c158161417e565b840191505092915050565b6000608082019050615c356000830187614249565b615c426020830186614249565b615c4f60408301856145b6565b8181036060830152615c618184615be7565b905095945050505050565b600081519050615c7b816140ac565b92915050565b600060208284031215615c9757615c96613fb5565b5b6000615ca584828501615c6c565b91505092915050565b7f4e487b7100000000000000000000000000000000000000000000000000000000600052601260045260246000fdfea264697066735822122091f6c06464f763778584a4e966475cc8ada984a3cb2509a2f0586c8e0c5d168c64736f6c634300080e0033",
  "immutableReferences": {},
  "source": "// SPDX-License-Identifier: UNLICENSED\r\npragma solidity ^0.8.0;\r\n\r\nimport \"./ERC4907.sol\";\r\nimport \"../node_modules/@openzeppelin/contracts/utils/Counters.sol\";\r\n\r\ncontract MetaMall is ERC4907 {\r\n    using Counters for Counters.Counter;\r\n    Counters.Counter private currentTokenId;\r\n\r\n    address contractOwner;\r\n\r\n    struct Store {\r\n        address owner;\r\n        uint256 tokenId;\r\n        uint16 storeNumber;\r\n        uint256 price; ///price per month\r\n        uint256 rent;\r\n        bool isSaleable;\r\n        bool isRentable;\r\n    }\r\n\r\n    struct StoreDetails {\r\n        address owner;\r\n        uint256 tokenId;\r\n        uint16 storeNumber;\r\n        uint256 price; //wei currency\r\n        uint256 rent;\r\n        bool isSaleable; //sale rent owned\r\n        bool isRentable;\r\n        address user;\r\n        uint256 expires;\r\n    }\r\n\r\n    Store[][] stores;\r\n\r\n    function mint() internal returns (uint256) {\r\n        currentTokenId.increment();\r\n        uint256 newItemId = currentTokenId.current();\r\n        _safeMint(contractOwner, newItemId);\r\n        return newItemId;\r\n    }\r\n\r\n    constructor() ERC4907(\"MetaMall Shops\", \"LL\") {\r\n        contractOwner = msg.sender;\r\n\r\n        //Floors\r\n        stores.push();\r\n        stores.push();\r\n        stores.push();\r\n        stores.push();\r\n        stores.push();\r\n\r\n        //Floor 0\r\n        for (uint16 i = 0; i < 32; i++) {\r\n            stores[0].push(Store(address(this), mint(), i, 100000000000000000, 0, true, false));\r\n        }\r\n\r\n        //Floor 1\r\n        for (uint16 i = 0; i < 32; i++) {\r\n            stores[1].push(Store(address(this), mint(), i + uint16(stores[0].length), 100000000000000000, 0, true, false));\r\n        }\r\n\r\n        setApprovalForAll(address(this), true);\r\n    }\r\n\r\n    //--------------- F L O O R   M A N A G E M E N T ----------------\r\n\r\n    function removeFloor() public {\r\n        require(msg.sender == contractOwner, \"Not Authorised\");\r\n        require(stores[stores.length - 1].length == 0, \"Floor must be empty to be deleted\");\r\n        stores.pop();\r\n    }\r\n\r\n    function addFloor() public {\r\n        require(msg.sender == contractOwner, \"Not Authorised\");\r\n        stores.push();\r\n    }\r\n\r\n    function addFloorAtIndex(uint index) public {\r\n        //GAS EXPENSIVE\r\n        require(msg.sender == contractOwner, \"Not Authorised\");\r\n\r\n        stores.push();\r\n        for (uint i = stores.length - 1; i > index; i--) { stores[i] = stores[i - 1]; }\r\n        delete stores[index];\r\n    }\r\n\r\n    function removeFloorAtIndex(uint index) public {\r\n        require(msg.sender == contractOwner, \"Not Authorised\");\r\n        require(stores[index].length == 0, \"Floor must be empty to be deleted\");\r\n\r\n        for (uint i = index; i < stores[index].length - 1; i++) { stores[index][i] = stores[index][i + 1]; }\r\n        stores[index].pop();\r\n    }\r\n\r\n    // ------------- G E T T E R   V I E W   F U N C T I O N S -----------------\r\n\r\n    function getStore(uint floor, uint index) public view returns (StoreDetails memory) {\r\n        require(floor < stores.length && index < stores[floor].length, \"Invalid Store\");\r\n        return getStoreDetails(stores[floor][index]);\r\n    }\r\n\r\n    function getStoreDetails(Store memory store) public view returns (StoreDetails memory) {\r\n        StoreDetails memory s = StoreDetails({\r\n            owner: store.owner,\r\n            tokenId: store.tokenId,\r\n            storeNumber: store.storeNumber,\r\n            price: store.price,\r\n            rent: store.rent,\r\n            isSaleable: store.isSaleable,\r\n            isRentable: store.isRentable,\r\n            user: _users[store.tokenId].user,\r\n            expires: _users[store.tokenId].expires\r\n        });\r\n        return s;\r\n    }\r\n\r\n    function getAllStores() public view returns (Store[][] memory) { return stores; }\r\n\r\n    function getOwnedStores(address owner) public view returns (StoreDetails[] memory) {\r\n        uint count = 0;\r\n        uint index = 0;\r\n\r\n        StoreDetails[] memory owned;\r\n        for (uint i = 0; i < stores.length; i++) {\r\n            for (uint j = 0; j < stores[i].length; j++) {\r\n                if (stores[i][j].owner == owner) { count++; }\r\n            }\r\n        }\r\n\r\n        owned = new StoreDetails[](count);\r\n        for (uint i = 0; i < stores.length; i++) {\r\n            for (uint j = 0; j < stores[i].length; j++) {\r\n                if (stores[i][j].owner == owner) {\r\n                    owned[index++] = getStoreDetails(stores[i][j]);\r\n                }\r\n            }\r\n        }\r\n        return owned;\r\n    }\r\n\r\n    // function getRentedStores() public view returns (StoreDetails[] memory) {\r\n    //     uint count = 0;\r\n    //     uint index = 0;\r\n    //\r\n    //     StoreDetails[] memory rented;\r\n    //     for (uint i = 0; i < stores.length; i++) {\r\n    //         for (uint j = 0; j < stores[i].length; j++) {\r\n    //             if (userOf(stores[i][j].tokenId) != address(0)) { count++; }\r\n    //         }\r\n    //     }\r\n    //\r\n    //     rented = new StoreDetails[](count);\r\n    //     for (uint i = 0; i < stores.length; i++) {\r\n    //         for (uint j = 0; j < stores[i].length; j++) {\r\n    //             if (userOf(stores[i][j].tokenId) != address(0)) {\r\n    //                 rented[index++] = getStoreDetails(stores[i][j]);\r\n    //             }\r\n    //         }\r\n    //     }\r\n    //     return rented;\r\n    // }\r\n\r\n    // function getAvailableStores() public view returns (StoreDetails[] memory) {\r\n    //     uint count = 0;\r\n    //     uint index = 0;\r\n\r\n    //     StoreDetails[] memory available;\r\n    //     for (uint i = 0; i < stores.length; i++) {\r\n    //         for (uint j = 0; j < stores[i].length; j++) {\r\n    //             if (stores[i][j].isSaleable || stores[i][j].isRentable) { count++; }\r\n    //         }\r\n    //     }\r\n\r\n    //     available = new StoreDetails[](count);\r\n    //     for (uint i = 0; i < stores.length; i++) {\r\n    //         for (uint j = 0; j < stores[i].length; j++) {\r\n    //             if (stores[i][j].isSaleable || stores[i][j].isRentable) {\r\n    //                 available[index++] = getStoreDetails(stores[i][j]);\r\n    //             }\r\n    //         }\r\n    //     }\r\n    //     return available;\r\n    // }\r\n\r\n    // ----------------- S H O P   N F T   M A N A G E M E N T -----------------\r\n\r\n    function setRentFee(uint floor, uint storeNumber, uint256 _amountPerMonth) public {\r\n        require(_isApprovedOrOwner(_msgSender(), stores[floor][storeNumber].tokenId), \"Caller is not token owner nor approved\");\r\n        require(_amountPerMonth > 0, \"Invalid Price\");\r\n        stores[floor][storeNumber].rent = _amountPerMonth;\r\n    }\r\n\r\n    function setPrice(uint floor, uint storeNumber, uint256 _price) public {\r\n        require(_isApprovedOrOwner(_msgSender(), stores[floor][storeNumber].tokenId), \"Caller is not token owner nor approved\");\r\n        require(_price > 0, \"Invalid Price\");\r\n        stores[floor][storeNumber].price = _price;\r\n    }\r\n\r\n    function setRentable(uint floor, uint storeNumber, bool _rentable) public {\r\n        require(_isApprovedOrOwner(_msgSender(), stores[floor][storeNumber].tokenId), \"Caller is not token owner nor approved\");\r\n        require(floor < stores.length, \"Invalid Floor\");\r\n        require(storeNumber <= stores[floor][stores[floor].length - 1].storeNumber , \"Invalid Store\");\r\n\r\n        uint256 tokenId = stores[floor][storeNumber].tokenId;\r\n        require(userOf(tokenId) == address(0), \"Store already rented\");\r\n        stores[floor][storeNumber].isRentable = _rentable;\r\n    }\r\n\r\n    function setSaleable(uint floor, uint storeNumber, bool _saleable) public {\r\n        require(_isApprovedOrOwner(_msgSender(), stores[floor][storeNumber].tokenId), \"Caller is not token owner nor approved\");\r\n        require(floor < stores.length, \"Invalid Floor\");\r\n        require(storeNumber <= stores[floor][stores[floor].length - 1].storeNumber , \"Invalid Store\");\r\n\r\n        uint256 tokenId = stores[floor][storeNumber].tokenId;\r\n        require(userOf(tokenId) == address(0), \"Store is rented out. Wait for rent tenure to be over before selling.\");\r\n        stores[floor][storeNumber].isSaleable = _saleable;\r\n    }\r\n\r\n    function rent(uint floor, uint storeNumber, uint256 _tokenId, uint64 month) public payable virtual {\r\n       require(floor < stores.length, \"Invalid Floor\");\r\n        require(storeNumber <= stores[floor][stores[floor].length - 1].storeNumber , \"Invalid Store\");\r\n\r\n        uint256 dueAmount = stores[floor][storeNumber].rent * month;\r\n        require(msg.value == dueAmount, \"Incorrect amount\");\r\n        require(userOf(_tokenId) == address(0), \"Already rented\");\r\n        require(stores[floor][storeNumber].isRentable, \"Renting disabled for the NFT\");\r\n\r\n        payable(ownerOf(_tokenId)).transfer(dueAmount);\r\n        UserInfo storage info = _users[_tokenId];\r\n        info.user = msg.sender;\r\n        uint64 timeInSeconds = month * 2629746;\r\n        info.expires = uint256(block.timestamp) + timeInSeconds; //convert months to seconds\r\n\r\n        emit UpdateUser(_tokenId, msg.sender, timeInSeconds);\r\n        stores[floor][storeNumber].isRentable = false;\r\n        stores[floor][storeNumber].isSaleable = false;\r\n    }\r\n\r\n    function buy(uint floor, uint storeNumber, uint256 _tokenId) public payable {\r\n        require(floor < stores.length, \"Invalid Floor\");\r\n        require(storeNumber <= stores[floor][stores[floor].length - 1].storeNumber , \"Invalid Store\");\r\n        require(stores[floor][storeNumber].isSaleable == true, \"This land is not availble for sale.\");\r\n        require(msg.value >= stores[floor][storeNumber].price, \"Incorrect amount\");\r\n\r\n        payable(ownerOf(_tokenId)).transfer(msg.value);\r\n        safeTransferFrom(ownerOf(_tokenId), msg.sender, _tokenId);\r\n\r\n        stores[floor][storeNumber].owner = msg.sender;\r\n        stores[floor][storeNumber].isSaleable = false;\r\n        stores[floor][storeNumber].isRentable = false;\r\n    }\r\n}\r\n",
  "sourcePath": "C:\\My Data\\MetaMall\\MetaMall-SmartContract\\contracts\\MetaMall.sol",
  "compiler": {
    "name": "solc",
    "version": "0.8.14+commit.80d49f37.Emscripten.clang"
  },
  "schemaVersion": "3.4.14",
  "updatedAt": "2023-06-24T20:15:44.915Z",
  "networkType": "ethereum",
  "devdoc": {
    "kind": "dev",
    "methods": {
      "approve(address,uint256)": {
        "details": "See {IERC721-approve}."
      },
      "balanceOf(address)": {
        "details": "See {IERC721-balanceOf}."
      },
      "getApproved(uint256)": {
        "details": "See {IERC721-getApproved}."
      },
      "isApprovedForAll(address,address)": {
        "details": "See {IERC721-isApprovedForAll}."
      },
      "name()": {
        "details": "See {IERC721Metadata-name}."
      },
      "ownerOf(uint256)": {
        "details": "See {IERC721-ownerOf}."
      },
      "safeTransferFrom(address,address,uint256)": {
        "details": "See {IERC721-safeTransferFrom}."
      },
      "safeTransferFrom(address,address,uint256,bytes)": {
        "details": "See {IERC721-safeTransferFrom}."
      },
      "setApprovalForAll(address,bool)": {
        "details": "See {IERC721-setApprovalForAll}."
      },
      "setUser(uint256,address,uint64)": {
        "details": "The zero address indicates there is no user Throws if `tokenId` is not valid NFT",
        "params": {
          "expires": "UNIX timestamp, The new user could use the NFT before expires",
          "user": "The new user of the NFT"
        }
      },
      "supportsInterface(bytes4)": {
        "details": "See {IERC165-supportsInterface}."
      },
      "symbol()": {
        "details": "See {IERC721Metadata-symbol}."
      },
      "tokenURI(uint256)": {
        "details": "See {IERC721Metadata-tokenURI}."
      },
      "transferFrom(address,address,uint256)": {
        "details": "See {IERC721-transferFrom}."
      },
      "userExpires(uint256)": {
        "details": "The zero value indicates that there is no user",
        "params": {
          "tokenId": "The NFT to get the user expires for"
        },
        "returns": {
          "_0": "The user expires for this NFT"
        }
      },
      "userOf(uint256)": {
        "details": "The zero address indicates that there is no user or the user is expired",
        "params": {
          "tokenId": "The NFT to get the user address for"
        },
        "returns": {
          "_0": "The user address for this NFT"
        }
      }
    },
    "version": 1
  },
  "userdoc": {
    "events": {
      "UpdateUser(uint256,address,uint64)": {
        "notice": "Emitted when the `user` of an NFT or the `expires` of the `user` is changed The zero address for user indicates that there is no user address"
      }
    },
    "kind": "user",
    "methods": {
      "setUser(uint256,address,uint64)": {
        "notice": "set the user and expires of a NFT"
      },
      "userExpires(uint256)": {
        "notice": "Get the user expires of an NFT"
      },
      "userOf(uint256)": {
        "notice": "Get the user address of an NFT"
      }
    },
    "version": 1
  }
}