{
  "contractName": "MetaMall",
  "abi": [
    {
      "inputs": [],
      "stateMutability": "nonpayable",
      "type": "constructor"
    },
    {
      "inputs": [],
      "name": "removeFloor",
      "outputs": [],
      "stateMutability": "nonpayable",
      "type": "function"
    },
    {
      "inputs": [],
      "name": "addFloor",
      "outputs": [],
      "stateMutability": "nonpayable",
      "type": "function"
    },
    {
      "inputs": [
        {
          "internalType": "uint256",
          "name": "index",
          "type": "uint256"
        }
      ],
      "name": "addFloorAtIndex",
      "outputs": [],
      "stateMutability": "nonpayable",
      "type": "function"
    },
    {
      "inputs": [],
      "name": "getAllStores",
      "outputs": [
        {
          "components": [
            {
              "internalType": "uint256",
              "name": "price",
              "type": "uint256"
            },
            {
              "internalType": "uint256",
              "name": "rent",
              "type": "uint256"
            },
            {
              "internalType": "uint256",
              "name": "area",
              "type": "uint256"
            },
            {
              "internalType": "uint16",
              "name": "storeNumber",
              "type": "uint16"
            },
            {
              "internalType": "address",
              "name": "owner",
              "type": "address"
            },
            {
              "internalType": "uint256",
              "name": "tokenId",
              "type": "uint256"
            },
            {
              "components": [
                {
                  "internalType": "address",
                  "name": "user",
                  "type": "address"
                },
                {
                  "internalType": "uint256",
                  "name": "expires",
                  "type": "uint256"
                }
              ],
              "internalType": "struct MetaMall.UserInfo",
              "name": "currentUser",
              "type": "tuple"
            },
            {
              "internalType": "uint8",
              "name": "status",
              "type": "uint8"
            }
          ],
          "internalType": "struct MetaMall.Store[][]",
          "name": "",
          "type": "tuple[][]"
        }
      ],
      "stateMutability": "view",
      "type": "function",
      "constant": true
    },
    {
      "inputs": [
        {
          "internalType": "uint256",
          "name": "floor",
          "type": "uint256"
        },
        {
          "internalType": "uint256",
          "name": "index",
          "type": "uint256"
        }
      ],
      "name": "getStore",
      "outputs": [
        {
          "components": [
            {
              "internalType": "uint256",
              "name": "price",
              "type": "uint256"
            },
            {
              "internalType": "uint256",
              "name": "rent",
              "type": "uint256"
            },
            {
              "internalType": "uint256",
              "name": "area",
              "type": "uint256"
            },
            {
              "internalType": "uint16",
              "name": "storeNumber",
              "type": "uint16"
            },
            {
              "internalType": "address",
              "name": "owner",
              "type": "address"
            },
            {
              "internalType": "uint256",
              "name": "tokenId",
              "type": "uint256"
            },
            {
              "components": [
                {
                  "internalType": "address",
                  "name": "user",
                  "type": "address"
                },
                {
                  "internalType": "uint256",
                  "name": "expires",
                  "type": "uint256"
                }
              ],
              "internalType": "struct MetaMall.UserInfo",
              "name": "currentUser",
              "type": "tuple"
            },
            {
              "internalType": "uint8",
              "name": "status",
              "type": "uint8"
            }
          ],
          "internalType": "struct MetaMall.Store",
          "name": "",
          "type": "tuple"
        }
      ],
      "stateMutability": "view",
      "type": "function",
      "constant": true
    }
  ],
  "bytecode": "0x60806040523480156200001157600080fd5b50336000806101000a81548173ffffffffffffffffffffffffffffffffffffffff021916908373ffffffffffffffffffffffffffffffffffffffff16021790555060018081600181540180825580915050039060005260206000205050600180816001815401808255809150500390600052602060002050506001808160018154018082558091505003906000526020600020505060018081600181540180825580915050039060005260206000205050600180816001815401808255809150500390600052602060002050506001600081548110620000f657620000f562001d62565b5b90600052602060002001604051806101000160405280600a81526020016000815260200160648152602001600161ffff168152602001600073ffffffffffffffffffffffffffffffffffffffff168152602001600181526020016040518060400160405280600073ffffffffffffffffffffffffffffffffffffffff16815260200160008152508152602001600160ff16815250908060018154018082558091505060019003906000526020600020906008020160009091909190915060008201518160000155602082015181600101556040820151816002015560608201518160030160006101000a81548161ffff021916908361ffff16021790555060808201518160030160026101000a81548173ffffffffffffffffffffffffffffffffffffffff021916908373ffffffffffffffffffffffffffffffffffffffff16021790555060a0820151816004015560c08201518160050160008201518160000160006101000a81548173ffffffffffffffffffffffffffffffffffffffff021916908373ffffffffffffffffffffffffffffffffffffffff16021790555060208201518160010155505060e08201518160070160006101000a81548160ff021916908360ff16021790555050506001600081548110620002dc57620002db62001d62565b5b90600052602060002001604051806101000160405280600a81526020016000815260200160648152602001600261ffff168152602001600073ffffffffffffffffffffffffffffffffffffffff168152602001600181526020016040518060400160405280600073ffffffffffffffffffffffffffffffffffffffff16815260200160008152508152602001600160ff16815250908060018154018082558091505060019003906000526020600020906008020160009091909190915060008201518160000155602082015181600101556040820151816002015560608201518160030160006101000a81548161ffff021916908361ffff16021790555060808201518160030160026101000a81548173ffffffffffffffffffffffffffffffffffffffff021916908373ffffffffffffffffffffffffffffffffffffffff16021790555060a0820151816004015560c08201518160050160008201518160000160006101000a81548173ffffffffffffffffffffffffffffffffffffffff021916908373ffffffffffffffffffffffffffffffffffffffff16021790555060208201518160010155505060e08201518160070160006101000a81548160ff021916908360ff16021790555050506001600081548110620004c257620004c162001d62565b5b90600052602060002001604051806101000160405280600a81526020016000815260200160648152602001600361ffff168152602001600073ffffffffffffffffffffffffffffffffffffffff168152602001600181526020016040518060400160405280600073ffffffffffffffffffffffffffffffffffffffff16815260200160008152508152602001600160ff16815250908060018154018082558091505060019003906000526020600020906008020160009091909190915060008201518160000155602082015181600101556040820151816002015560608201518160030160006101000a81548161ffff021916908361ffff16021790555060808201518160030160026101000a81548173ffffffffffffffffffffffffffffffffffffffff021916908373ffffffffffffffffffffffffffffffffffffffff16021790555060a0820151816004015560c08201518160050160008201518160000160006101000a81548173ffffffffffffffffffffffffffffffffffffffff021916908373ffffffffffffffffffffffffffffffffffffffff16021790555060208201518160010155505060e08201518160070160006101000a81548160ff021916908360ff16021790555050506001600081548110620006a857620006a762001d62565b5b90600052602060002001604051806101000160405280600f8152602001600081526020016101f48152602001600461ffff168152602001600073ffffffffffffffffffffffffffffffffffffffff168152602001600581526020016040518060400160405280600073ffffffffffffffffffffffffffffffffffffffff16815260200160008152508152602001600560ff16815250908060018154018082558091505060019003906000526020600020906008020160009091909190915060008201518160000155602082015181600101556040820151816002015560608201518160030160006101000a81548161ffff021916908361ffff16021790555060808201518160030160026101000a81548173ffffffffffffffffffffffffffffffffffffffff021916908373ffffffffffffffffffffffffffffffffffffffff16021790555060a0820151816004015560c08201518160050160008201518160000160006101000a81548173ffffffffffffffffffffffffffffffffffffffff021916908373ffffffffffffffffffffffffffffffffffffffff16021790555060208201518160010155505060e08201518160070160006101000a81548160ff021916908360ff160217905550505060016000815481106200088f576200088e62001d62565b5b90600052602060002001604051806101000160405280600f8152602001600081526020016101f48152602001600561ffff168152602001600073ffffffffffffffffffffffffffffffffffffffff168152602001600581526020016040518060400160405280600073ffffffffffffffffffffffffffffffffffffffff16815260200160008152508152602001600560ff16815250908060018154018082558091505060019003906000526020600020906008020160009091909190915060008201518160000155602082015181600101556040820151816002015560608201518160030160006101000a81548161ffff021916908361ffff16021790555060808201518160030160026101000a81548173ffffffffffffffffffffffffffffffffffffffff021916908373ffffffffffffffffffffffffffffffffffffffff16021790555060a0820151816004015560c08201518160050160008201518160000160006101000a81548173ffffffffffffffffffffffffffffffffffffffff021916908373ffffffffffffffffffffffffffffffffffffffff16021790555060208201518160010155505060e08201518160070160006101000a81548160ff021916908360ff1602179055505050600160008154811062000a765762000a7562001d62565b5b9060005260206000200160405180610100016040528060148152602001600081526020016102bc8152602001600661ffff168152602001600073ffffffffffffffffffffffffffffffffffffffff168152602001600581526020016040518060400160405280600073ffffffffffffffffffffffffffffffffffffffff16815260200160008152508152602001600560ff16815250908060018154018082558091505060019003906000526020600020906008020160009091909190915060008201518160000155602082015181600101556040820151816002015560608201518160030160006101000a81548161ffff021916908361ffff16021790555060808201518160030160026101000a81548173ffffffffffffffffffffffffffffffffffffffff021916908373ffffffffffffffffffffffffffffffffffffffff16021790555060a0820151816004015560c08201518160050160008201518160000160006101000a81548173ffffffffffffffffffffffffffffffffffffffff021916908373ffffffffffffffffffffffffffffffffffffffff16021790555060208201518160010155505060e08201518160070160006101000a81548160ff021916908360ff1602179055505050600160008154811062000c5d5762000c5c62001d62565b5b9060005260206000200160405180610100016040528060148152602001600081526020016102bc8152602001600761ffff168152602001600073ffffffffffffffffffffffffffffffffffffffff168152602001600581526020016040518060400160405280600073ffffffffffffffffffffffffffffffffffffffff16815260200160008152508152602001600560ff16815250908060018154018082558091505060019003906000526020600020906008020160009091909190915060008201518160000155602082015181600101556040820151816002015560608201518160030160006101000a81548161ffff021916908361ffff16021790555060808201518160030160026101000a81548173ffffffffffffffffffffffffffffffffffffffff021916908373ffffffffffffffffffffffffffffffffffffffff16021790555060a0820151816004015560c08201518160050160008201518160000160006101000a81548173ffffffffffffffffffffffffffffffffffffffff021916908373ffffffffffffffffffffffffffffffffffffffff16021790555060208201518160010155505060e08201518160070160006101000a81548160ff021916908360ff1602179055505050600160008154811062000e445762000e4362001d62565b5b9060005260206000200160405180610100016040528060198152602001600081526020016103208152602001600861ffff168152602001600073ffffffffffffffffffffffffffffffffffffffff168152602001600581526020016040518060400160405280600073ffffffffffffffffffffffffffffffffffffffff16815260200160008152508152602001600560ff16815250908060018154018082558091505060019003906000526020600020906008020160009091909190915060008201518160000155602082015181600101556040820151816002015560608201518160030160006101000a81548161ffff021916908361ffff16021790555060808201518160030160026101000a81548173ffffffffffffffffffffffffffffffffffffffff021916908373ffffffffffffffffffffffffffffffffffffffff16021790555060a0820151816004015560c08201518160050160008201518160000160006101000a81548173ffffffffffffffffffffffffffffffffffffffff021916908373ffffffffffffffffffffffffffffffffffffffff16021790555060208201518160010155505060e08201518160070160006101000a81548160ff021916908360ff160217905550505060016000815481106200102b576200102a62001d62565b5b9060005260206000200160405180610100016040528060198152602001600081526020016103208152602001600961ffff168152602001600073ffffffffffffffffffffffffffffffffffffffff168152602001600581526020016040518060400160405280600073ffffffffffffffffffffffffffffffffffffffff16815260200160008152508152602001600560ff16815250908060018154018082558091505060019003906000526020600020906008020160009091909190915060008201518160000155602082015181600101556040820151816002015560608201518160030160006101000a81548161ffff021916908361ffff16021790555060808201518160030160026101000a81548173ffffffffffffffffffffffffffffffffffffffff021916908373ffffffffffffffffffffffffffffffffffffffff16021790555060a0820151816004015560c08201518160050160008201518160000160006101000a81548173ffffffffffffffffffffffffffffffffffffffff021916908373ffffffffffffffffffffffffffffffffffffffff16021790555060208201518160010155505060e08201518160070160006101000a81548160ff021916908360ff1602179055505050600160008154811062001212576200121162001d62565b5b90600052602060002001604051806101000160405280601e8152602001600081526020016103e88152602001600a61ffff168152602001600073ffffffffffffffffffffffffffffffffffffffff168152602001600581526020016040518060400160405280600073ffffffffffffffffffffffffffffffffffffffff16815260200160008152508152602001600560ff16815250908060018154018082558091505060019003906000526020600020906008020160009091909190915060008201518160000155602082015181600101556040820151816002015560608201518160030160006101000a81548161ffff021916908361ffff16021790555060808201518160030160026101000a81548173ffffffffffffffffffffffffffffffffffffffff021916908373ffffffffffffffffffffffffffffffffffffffff16021790555060a0820151816004015560c08201518160050160008201518160000160006101000a81548173ffffffffffffffffffffffffffffffffffffffff021916908373ffffffffffffffffffffffffffffffffffffffff16021790555060208201518160010155505060e08201518160070160006101000a81548160ff021916908360ff160217905550505060018081548110620013f857620013f762001d62565b5b90600052602060002001604051806101000160405280600581526020016000815260200160648152602001600b61ffff168152602001600073ffffffffffffffffffffffffffffffffffffffff168152602001600181526020016040518060400160405280600073ffffffffffffffffffffffffffffffffffffffff16815260200160008152508152602001600160ff16815250908060018154018082558091505060019003906000526020600020906008020160009091909190915060008201518160000155602082015181600101556040820151816002015560608201518160030160006101000a81548161ffff021916908361ffff16021790555060808201518160030160026101000a81548173ffffffffffffffffffffffffffffffffffffffff021916908373ffffffffffffffffffffffffffffffffffffffff16021790555060a0820151816004015560c08201518160050160008201518160000160006101000a81548173ffffffffffffffffffffffffffffffffffffffff021916908373ffffffffffffffffffffffffffffffffffffffff16021790555060208201518160010155505060e08201518160070160006101000a81548160ff021916908360ff160217905550505060018081548110620015dd57620015dc62001d62565b5b90600052602060002001604051806101000160405280600581526020016000815260200160648152602001600c61ffff168152602001600073ffffffffffffffffffffffffffffffffffffffff168152602001600181526020016040518060400160405280600073ffffffffffffffffffffffffffffffffffffffff16815260200160008152508152602001600160ff16815250908060018154018082558091505060019003906000526020600020906008020160009091909190915060008201518160000155602082015181600101556040820151816002015560608201518160030160006101000a81548161ffff021916908361ffff16021790555060808201518160030160026101000a81548173ffffffffffffffffffffffffffffffffffffffff021916908373ffffffffffffffffffffffffffffffffffffffff16021790555060a0820151816004015560c08201518160050160008201518160000160006101000a81548173ffffffffffffffffffffffffffffffffffffffff021916908373ffffffffffffffffffffffffffffffffffffffff16021790555060208201518160010155505060e08201518160070160006101000a81548160ff021916908360ff160217905550505060018081548110620017c257620017c162001d62565b5b90600052602060002001604051806101000160405280600581526020016000815260200160648152602001600d61ffff168152602001600073ffffffffffffffffffffffffffffffffffffffff168152602001600181526020016040518060400160405280600073ffffffffffffffffffffffffffffffffffffffff16815260200160008152508152602001600160ff16815250908060018154018082558091505060019003906000526020600020906008020160009091909190915060008201518160000155602082015181600101556040820151816002015560608201518160030160006101000a81548161ffff021916908361ffff16021790555060808201518160030160026101000a81548173ffffffffffffffffffffffffffffffffffffffff021916908373ffffffffffffffffffffffffffffffffffffffff16021790555060a0820151816004015560c08201518160050160008201518160000160006101000a81548173ffffffffffffffffffffffffffffffffffffffff021916908373ffffffffffffffffffffffffffffffffffffffff16021790555060208201518160010155505060e08201518160070160006101000a81548160ff021916908360ff160217905550505060018081548110620019a757620019a662001d62565b5b9060005260206000200160405180610100016040528060088152602001600081526020016101f48152602001600e61ffff168152602001600073ffffffffffffffffffffffffffffffffffffffff168152602001600581526020016040518060400160405280600073ffffffffffffffffffffffffffffffffffffffff16815260200160008152508152602001600560ff16815250908060018154018082558091505060019003906000526020600020906008020160009091909190915060008201518160000155602082015181600101556040820151816002015560608201518160030160006101000a81548161ffff021916908361ffff16021790555060808201518160030160026101000a81548173ffffffffffffffffffffffffffffffffffffffff021916908373ffffffffffffffffffffffffffffffffffffffff16021790555060a0820151816004015560c08201518160050160008201518160000160006101000a81548173ffffffffffffffffffffffffffffffffffffffff021916908373ffffffffffffffffffffffffffffffffffffffff16021790555060208201518160010155505060e08201518160070160006101000a81548160ff021916908360ff16021790555050506001808154811062001b8d5762001b8c62001d62565b5b9060005260206000200160405180610100016040528060088152602001600081526020016101f48152602001600f61ffff168152602001600073ffffffffffffffffffffffffffffffffffffffff168152602001600581526020016040518060400160405280600073ffffffffffffffffffffffffffffffffffffffff16815260200160008152508152602001600560ff16815250908060018154018082558091505060019003906000526020600020906008020160009091909190915060008201518160000155602082015181600101556040820151816002015560608201518160030160006101000a81548161ffff021916908361ffff16021790555060808201518160030160026101000a81548173ffffffffffffffffffffffffffffffffffffffff021916908373ffffffffffffffffffffffffffffffffffffffff16021790555060a0820151816004015560c08201518160050160008201518160000160006101000a81548173ffffffffffffffffffffffffffffffffffffffff021916908373ffffffffffffffffffffffffffffffffffffffff16021790555060208201518160010155505060e08201518160070160006101000a81548160ff021916908360ff160217905550505062001d91565b7f4e487b7100000000000000000000000000000000000000000000000000000000600052603260045260246000fd5b610f4f8062001da16000396000f3fe608060405234801561001057600080fd5b50600436106100575760003560e01c806302362e731461005c57806329bc3fde146100665780632d58018d14610070578063583d0e931461008c5780638b4bd105146100bc575b600080fd5b6100646100da565b005b61006e6101a1565b005b61008a60048036038101906100859190610a14565b610217565b005b6100a660048036038101906100a19190610a41565b610340565b6040516100b39190610bdc565b60405180910390f35b6100c46104c9565b6040516100d19190610e0d565b60405180910390f35b60008054906101000a900473ffffffffffffffffffffffffffffffffffffffff1673ffffffffffffffffffffffffffffffffffffffff163373ffffffffffffffffffffffffffffffffffffffff161461013257600080fd5b600060018080805490506101469190610e5e565b8154811061015757610156610e92565b5b90600052602060002001805490501461016f57600080fd5b600180548061018157610180610ec1565b5b60019003818190600052602060002001600061019d919061069f565b9055565b60008054906101000a900473ffffffffffffffffffffffffffffffffffffffff1673ffffffffffffffffffffffffffffffffffffffff163373ffffffffffffffffffffffffffffffffffffffff16146101f957600080fd5b60018081600181540180825580915050039060005260206000205050565b60008054906101000a900473ffffffffffffffffffffffffffffffffffffffff1673ffffffffffffffffffffffffffffffffffffffff163373ffffffffffffffffffffffffffffffffffffffff161461026f57600080fd5b6001808160018154018082558091505003906000526020600020505060006001808054905061029e9190610e5e565b90505b8181111561031257600180826102b79190610e5e565b815481106102c8576102c7610e92565b5b90600052602060002001600182815481106102e6576102e5610e92565b5b906000526020600020019080546102fe9291906106c3565b50808061030a90610ef0565b9150506102a1565b506001818154811061032757610326610e92565b5b90600052602060002001600061033d919061069f565b50565b610348610884565b6001838154811061035c5761035b610e92565b5b90600052602060002001828154811061037857610377610e92565b5b9060005260206000209060080201604051806101000160405290816000820154815260200160018201548152602001600282015481526020016003820160009054906101000a900461ffff1661ffff1661ffff1681526020016003820160029054906101000a900473ffffffffffffffffffffffffffffffffffffffff1673ffffffffffffffffffffffffffffffffffffffff1673ffffffffffffffffffffffffffffffffffffffff16815260200160048201548152602001600582016040518060400160405290816000820160009054906101000a900473ffffffffffffffffffffffffffffffffffffffff1673ffffffffffffffffffffffffffffffffffffffff1673ffffffffffffffffffffffffffffffffffffffff16815260200160018201548152505081526020016007820160009054906101000a900460ff1660ff1660ff1681525050905092915050565b60606001805480602002602001604051908101604052809291908181526020016000905b8282101561069657838290600052602060002001805480602002602001604051908101604052809291908181526020016000905b828210156106835783829060005260206000209060080201604051806101000160405290816000820154815260200160018201548152602001600282015481526020016003820160009054906101000a900461ffff1661ffff1661ffff1681526020016003820160029054906101000a900473ffffffffffffffffffffffffffffffffffffffff1673ffffffffffffffffffffffffffffffffffffffff1673ffffffffffffffffffffffffffffffffffffffff16815260200160048201548152602001600582016040518060400160405290816000820160009054906101000a900473ffffffffffffffffffffffffffffffffffffffff1673ffffffffffffffffffffffffffffffffffffffff1673ffffffffffffffffffffffffffffffffffffffff16815260200160018201548152505081526020016007820160009054906101000a900460ff1660ff1660ff168152505081526020019060010190610521565b50505050815260200190600101906104ed565b50505050905090565b50805460008255600802906000526020600020908101906106c091906108ec565b50565b8280548282559060005260206000209060080281019282156108735760005260206000209160080282015b828111156108725782826000820154816000015560018201548160010155600282015481600201556003820160009054906101000a900461ffff168160030160006101000a81548161ffff021916908361ffff1602179055506003820160029054906101000a900473ffffffffffffffffffffffffffffffffffffffff168160030160026101000a81548173ffffffffffffffffffffffffffffffffffffffff021916908373ffffffffffffffffffffffffffffffffffffffff1602179055506004820154816004015560058201816005016000820160009054906101000a900473ffffffffffffffffffffffffffffffffffffffff168160000160006101000a81548173ffffffffffffffffffffffffffffffffffffffff021916908373ffffffffffffffffffffffffffffffffffffffff1602179055506001820154816001015550506007820160009054906101000a900460ff168160070160006101000a81548160ff021916908360ff1602179055505050916008019190600801906106ee565b5b50905061088091906108ec565b5090565b604051806101000160405280600081526020016000815260200160008152602001600061ffff168152602001600073ffffffffffffffffffffffffffffffffffffffff168152602001600081526020016108dc6109a9565b8152602001600060ff1681525090565b5b808211156109a557600080820160009055600182016000905560028201600090556003820160006101000a81549061ffff02191690556003820160026101000a81549073ffffffffffffffffffffffffffffffffffffffff0219169055600482016000905560058201600080820160006101000a81549073ffffffffffffffffffffffffffffffffffffffff0219169055600182016000905550506007820160006101000a81549060ff0219169055506008016108ed565b5090565b6040518060400160405280600073ffffffffffffffffffffffffffffffffffffffff168152602001600081525090565b600080fd5b6000819050919050565b6109f1816109de565b81146109fc57600080fd5b50565b600081359050610a0e816109e8565b92915050565b600060208284031215610a2a57610a296109d9565b5b6000610a38848285016109ff565b91505092915050565b60008060408385031215610a5857610a576109d9565b5b6000610a66858286016109ff565b9250506020610a77858286016109ff565b9150509250929050565b610a8a816109de565b82525050565b600061ffff82169050919050565b610aa781610a90565b82525050565b600073ffffffffffffffffffffffffffffffffffffffff82169050919050565b6000610ad882610aad565b9050919050565b610ae881610acd565b82525050565b604082016000820151610b046000850182610adf565b506020820151610b176020850182610a81565b50505050565b600060ff82169050919050565b610b3381610b1d565b82525050565b61012082016000820151610b506000850182610a81565b506020820151610b636020850182610a81565b506040820151610b766040850182610a81565b506060820151610b896060850182610a9e565b506080820151610b9c6080850182610adf565b5060a0820151610baf60a0850182610a81565b5060c0820151610bc260c0850182610aee565b5060e0820151610bd6610100850182610b2a565b50505050565b600061012082019050610bf26000830184610b39565b92915050565b600081519050919050565b600082825260208201905092915050565b6000819050602082019050919050565b600081519050919050565b600082825260208201905092915050565b6000819050602082019050919050565b61012082016000820151610c676000850182610a81565b506020820151610c7a6020850182610a81565b506040820151610c8d6040850182610a81565b506060820151610ca06060850182610a9e565b506080820151610cb36080850182610adf565b5060a0820151610cc660a0850182610a81565b5060c0820151610cd960c0850182610aee565b5060e0820151610ced610100850182610b2a565b50505050565b6000610cff8383610c50565b6101208301905092915050565b6000602082019050919050565b6000610d2482610c24565b610d2e8185610c2f565b9350610d3983610c40565b8060005b83811015610d6a578151610d518882610cf3565b9750610d5c83610d0c565b925050600181019050610d3d565b5085935050505092915050565b6000610d838383610d19565b905092915050565b6000602082019050919050565b6000610da382610bf8565b610dad8185610c03565b935083602082028501610dbf85610c14565b8060005b85811015610dfb5784840389528151610ddc8582610d77565b9450610de783610d8b565b925060208a01995050600181019050610dc3565b50829750879550505050505092915050565b60006020820190508181036000830152610e278184610d98565b905092915050565b7f4e487b7100000000000000000000000000000000000000000000000000000000600052601160045260246000fd5b6000610e69826109de565b9150610e74836109de565b925082821015610e8757610e86610e2f565b5b828203905092915050565b7f4e487b7100000000000000000000000000000000000000000000000000000000600052603260045260246000fd5b7f4e487b7100000000000000000000000000000000000000000000000000000000600052603160045260246000fd5b6000610efb826109de565b915060008203610f0e57610f0d610e2f565b5b60018203905091905056fea2646970667358221220517b1591bcafbb2b9cbec34fb5467bd5b32ec8cdaa176ab59af26b24f91a4b3964736f6c634300080e0033",
  "immutableReferences": {},
  "source": "pragma solidity ^0.8.0;\r\n\r\ncontract MetaMall {\r\n    \r\n    //Admin of Contract\r\n    address contractOwner;\r\n\r\n    struct UserInfo {\r\n        address user;\r\n        uint256 expires;\r\n    }\r\n\r\n    struct Store {\r\n        uint256 price;\r\n        uint256 rent;\r\n        uint256 area;\r\n        uint16 storeNumber;\r\n        address owner;\r\n        uint256 tokenId;\r\n        UserInfo currentUser;\r\n        uint8 status;\r\n    }\r\n\r\n    //give option to owner tos et rent of his land\r\n\r\n    Store[][] stores;\r\n\r\n    constructor() {\r\n\r\n        contractOwner = msg.sender;\r\n        \r\n        //Floors\r\n        stores.push();\r\n        stores.push();\r\n        stores.push();\r\n        stores.push();\r\n        stores.push();\r\n\r\n        //Floor 0\r\n        stores[0].push(Store(10, 0, 100, 1, address(0), 1, UserInfo(address(0), 0), 1));\r\n        stores[0].push(Store(10, 0, 100, 2, address(0), 1, UserInfo(address(0), 0), 1));\r\n        stores[0].push(Store(10, 0, 100, 3, address(0), 1, UserInfo(address(0), 0), 1));\r\n        stores[0].push(Store(15, 0, 500, 4, address(0), 5, UserInfo(address(0), 0), 5));\r\n        stores[0].push(Store(15, 0, 500, 5, address(0), 5, UserInfo(address(0), 0), 5));\r\n        stores[0].push(Store(20, 0, 700, 6, address(0), 5, UserInfo(address(0), 0), 5));\r\n        stores[0].push(Store(20, 0, 700, 7, address(0), 5, UserInfo(address(0), 0), 5));\r\n        stores[0].push(Store(25, 0, 800, 8, address(0), 5, UserInfo(address(0), 0), 5));\r\n        stores[0].push(Store(25, 0, 800, 9, address(0), 5, UserInfo(address(0), 0), 5));\r\n        stores[0].push(Store(30, 0, 1000, 10, address(0), 5, UserInfo(address(0), 0), 5));\r\n\r\n        //Floor 1\r\n        stores[1].push(Store(5, 0, 100, 11, address(0), 1, UserInfo(address(0), 0), 1));\r\n        stores[1].push(Store(5, 0, 100, 12, address(0), 1, UserInfo(address(0), 0), 1));\r\n        stores[1].push(Store(5, 0, 100, 13, address(0), 1, UserInfo(address(0), 0), 1));\r\n        stores[1].push(Store(8, 0, 500, 14, address(0), 5, UserInfo(address(0), 0), 5));\r\n        stores[1].push(Store(8, 0, 500, 15, address(0), 5, UserInfo(address(0), 0), 5));\r\n    }\r\n\r\n    function removeFloor() public {\r\n        require(msg.sender == contractOwner);\r\n        require(stores[stores.length - 1].length == 0);\r\n\r\n        stores.pop();\r\n    }\r\n\r\n    function addFloor() public {\r\n        require(msg.sender == contractOwner);\r\n        stores.push();\r\n    }\r\n\r\n    function addFloorAtIndex(uint index) public {\r\n        //GAS EXPENSIVE\r\n        require(msg.sender == contractOwner);\r\n\r\n        stores.push();\r\n        for(uint i = stores.length - 1; i > index; i--){\r\n            stores[i] = stores[i-1];    \r\n        }\r\n\r\n        delete stores[index];\r\n    }\r\n\r\n    function getAllStores() public view returns (Store[][] memory) {\r\n        return stores;\r\n    }\r\n\r\n    function getStore(uint floor, uint index) public view returns (Store memory) {\r\n        return stores[floor][index];\r\n    }\r\n}\r\n",
  "sourcePath": "C:\\FYP Stuff\\MetaMall-FE\\truffle\\contracts\\MetaMall.sol",
  "compiler": {
    "name": "solc",
    "version": "0.8.14+commit.80d49f37.Emscripten.clang"
  },
  "schemaVersion": "3.4.11",
  "updatedAt": "2023-02-12T08:15:58.233Z",
  "networkType": "ethereum",
  "devdoc": {
    "kind": "dev",
    "methods": {},
    "version": 1
  },
  "userdoc": {
    "kind": "user",
    "methods": {},
    "version": 1
  }
}