{
  "contractName": "MetaMall",
  "abi": [
    {
      "inputs": [],
      "stateMutability": "nonpayable",
      "type": "constructor"
    },
    {
      "anonymous": false,
      "inputs": [
        {
          "indexed": true,
          "internalType": "address",
          "name": "owner",
          "type": "address"
        },
        {
          "indexed": true,
          "internalType": "address",
          "name": "approved",
          "type": "address"
        },
        {
          "indexed": true,
          "internalType": "uint256",
          "name": "tokenId",
          "type": "uint256"
        }
      ],
      "name": "Approval",
      "type": "event"
    },
    {
      "anonymous": false,
      "inputs": [
        {
          "indexed": true,
          "internalType": "address",
          "name": "owner",
          "type": "address"
        },
        {
          "indexed": true,
          "internalType": "address",
          "name": "operator",
          "type": "address"
        },
        {
          "indexed": false,
          "internalType": "bool",
          "name": "approved",
          "type": "bool"
        }
      ],
      "name": "ApprovalForAll",
      "type": "event"
    },
    {
      "anonymous": false,
      "inputs": [
        {
          "indexed": true,
          "internalType": "address",
          "name": "from",
          "type": "address"
        },
        {
          "indexed": true,
          "internalType": "address",
          "name": "to",
          "type": "address"
        },
        {
          "indexed": true,
          "internalType": "uint256",
          "name": "tokenId",
          "type": "uint256"
        }
      ],
      "name": "Transfer",
      "type": "event"
    },
    {
      "anonymous": false,
      "inputs": [
        {
          "indexed": true,
          "internalType": "uint256",
          "name": "tokenId",
          "type": "uint256"
        },
        {
          "indexed": true,
          "internalType": "address",
          "name": "user",
          "type": "address"
        },
        {
          "indexed": false,
          "internalType": "uint64",
          "name": "expires",
          "type": "uint64"
        }
      ],
      "name": "UpdateUser",
      "type": "event"
    },
    {
      "inputs": [
        {
          "internalType": "address",
          "name": "to",
          "type": "address"
        },
        {
          "internalType": "uint256",
          "name": "tokenId",
          "type": "uint256"
        }
      ],
      "name": "approve",
      "outputs": [],
      "stateMutability": "nonpayable",
      "type": "function"
    },
    {
      "inputs": [
        {
          "internalType": "address",
          "name": "owner",
          "type": "address"
        }
      ],
      "name": "balanceOf",
      "outputs": [
        {
          "internalType": "uint256",
          "name": "",
          "type": "uint256"
        }
      ],
      "stateMutability": "view",
      "type": "function",
      "constant": true
    },
    {
      "inputs": [
        {
          "internalType": "uint256",
          "name": "tokenId",
          "type": "uint256"
        }
      ],
      "name": "getApproved",
      "outputs": [
        {
          "internalType": "address",
          "name": "",
          "type": "address"
        }
      ],
      "stateMutability": "view",
      "type": "function",
      "constant": true
    },
    {
      "inputs": [
        {
          "internalType": "address",
          "name": "owner",
          "type": "address"
        },
        {
          "internalType": "address",
          "name": "operator",
          "type": "address"
        }
      ],
      "name": "isApprovedForAll",
      "outputs": [
        {
          "internalType": "bool",
          "name": "",
          "type": "bool"
        }
      ],
      "stateMutability": "view",
      "type": "function",
      "constant": true
    },
    {
      "inputs": [],
      "name": "name",
      "outputs": [
        {
          "internalType": "string",
          "name": "",
          "type": "string"
        }
      ],
      "stateMutability": "view",
      "type": "function",
      "constant": true
    },
    {
      "inputs": [
        {
          "internalType": "uint256",
          "name": "tokenId",
          "type": "uint256"
        }
      ],
      "name": "ownerOf",
      "outputs": [
        {
          "internalType": "address",
          "name": "",
          "type": "address"
        }
      ],
      "stateMutability": "view",
      "type": "function",
      "constant": true
    },
    {
      "inputs": [
        {
          "internalType": "address",
          "name": "from",
          "type": "address"
        },
        {
          "internalType": "address",
          "name": "to",
          "type": "address"
        },
        {
          "internalType": "uint256",
          "name": "tokenId",
          "type": "uint256"
        }
      ],
      "name": "safeTransferFrom",
      "outputs": [],
      "stateMutability": "nonpayable",
      "type": "function"
    },
    {
      "inputs": [
        {
          "internalType": "address",
          "name": "from",
          "type": "address"
        },
        {
          "internalType": "address",
          "name": "to",
          "type": "address"
        },
        {
          "internalType": "uint256",
          "name": "tokenId",
          "type": "uint256"
        },
        {
          "internalType": "bytes",
          "name": "data",
          "type": "bytes"
        }
      ],
      "name": "safeTransferFrom",
      "outputs": [],
      "stateMutability": "nonpayable",
      "type": "function"
    },
    {
      "inputs": [
        {
          "internalType": "address",
          "name": "operator",
          "type": "address"
        },
        {
          "internalType": "bool",
          "name": "approved",
          "type": "bool"
        }
      ],
      "name": "setApprovalForAll",
      "outputs": [],
      "stateMutability": "nonpayable",
      "type": "function"
    },
    {
      "inputs": [
        {
          "internalType": "uint256",
          "name": "tokenId",
          "type": "uint256"
        },
        {
          "internalType": "address",
          "name": "user",
          "type": "address"
        },
        {
          "internalType": "uint64",
          "name": "expires",
          "type": "uint64"
        }
      ],
      "name": "setUser",
      "outputs": [],
      "stateMutability": "nonpayable",
      "type": "function"
    },
    {
      "inputs": [
        {
          "internalType": "bytes4",
          "name": "interfaceId",
          "type": "bytes4"
        }
      ],
      "name": "supportsInterface",
      "outputs": [
        {
          "internalType": "bool",
          "name": "",
          "type": "bool"
        }
      ],
      "stateMutability": "view",
      "type": "function",
      "constant": true
    },
    {
      "inputs": [],
      "name": "symbol",
      "outputs": [
        {
          "internalType": "string",
          "name": "",
          "type": "string"
        }
      ],
      "stateMutability": "view",
      "type": "function",
      "constant": true
    },
    {
      "inputs": [
        {
          "internalType": "uint256",
          "name": "tokenId",
          "type": "uint256"
        }
      ],
      "name": "tokenURI",
      "outputs": [
        {
          "internalType": "string",
          "name": "",
          "type": "string"
        }
      ],
      "stateMutability": "view",
      "type": "function",
      "constant": true
    },
    {
      "inputs": [
        {
          "internalType": "address",
          "name": "from",
          "type": "address"
        },
        {
          "internalType": "address",
          "name": "to",
          "type": "address"
        },
        {
          "internalType": "uint256",
          "name": "tokenId",
          "type": "uint256"
        }
      ],
      "name": "transferFrom",
      "outputs": [],
      "stateMutability": "nonpayable",
      "type": "function"
    },
    {
      "inputs": [
        {
          "internalType": "uint256",
          "name": "tokenId",
          "type": "uint256"
        }
      ],
      "name": "userExpires",
      "outputs": [
        {
          "internalType": "uint256",
          "name": "",
          "type": "uint256"
        }
      ],
      "stateMutability": "view",
      "type": "function",
      "constant": true
    },
    {
      "inputs": [
        {
          "internalType": "uint256",
          "name": "tokenId",
          "type": "uint256"
        }
      ],
      "name": "userOf",
      "outputs": [
        {
          "internalType": "address",
          "name": "",
          "type": "address"
        }
      ],
      "stateMutability": "view",
      "type": "function",
      "constant": true
    },
    {
      "inputs": [],
      "name": "removeFloor",
      "outputs": [],
      "stateMutability": "nonpayable",
      "type": "function"
    },
    {
      "inputs": [],
      "name": "addFloor",
      "outputs": [],
      "stateMutability": "nonpayable",
      "type": "function"
    },
    {
      "inputs": [
        {
          "internalType": "uint256",
          "name": "index",
          "type": "uint256"
        }
      ],
      "name": "addFloorAtIndex",
      "outputs": [],
      "stateMutability": "nonpayable",
      "type": "function"
    },
    {
      "inputs": [
        {
          "internalType": "uint256",
          "name": "index",
          "type": "uint256"
        }
      ],
      "name": "removeFloorAtIndex",
      "outputs": [],
      "stateMutability": "nonpayable",
      "type": "function"
    },
    {
      "inputs": [
        {
          "internalType": "uint256",
          "name": "floor",
          "type": "uint256"
        },
        {
          "internalType": "uint256",
          "name": "index",
          "type": "uint256"
        }
      ],
      "name": "getStore",
      "outputs": [
        {
          "components": [
            {
              "internalType": "address",
              "name": "owner",
              "type": "address"
            },
            {
              "internalType": "uint256",
              "name": "tokenId",
              "type": "uint256"
            },
            {
              "internalType": "uint16",
              "name": "storeNumber",
              "type": "uint16"
            },
            {
              "internalType": "uint256",
              "name": "price",
              "type": "uint256"
            },
            {
              "internalType": "uint256",
              "name": "rent",
              "type": "uint256"
            },
            {
              "internalType": "bool",
              "name": "isSaleable",
              "type": "bool"
            },
            {
              "internalType": "bool",
              "name": "isRentable",
              "type": "bool"
            },
            {
              "internalType": "address",
              "name": "user",
              "type": "address"
            },
            {
              "internalType": "uint256",
              "name": "expires",
              "type": "uint256"
            }
          ],
          "internalType": "struct MetaMall.StoreDetails",
          "name": "",
          "type": "tuple"
        }
      ],
      "stateMutability": "view",
      "type": "function",
      "constant": true
    },
    {
      "inputs": [],
      "name": "getAllStores",
      "outputs": [
        {
          "components": [
            {
              "internalType": "address",
              "name": "owner",
              "type": "address"
            },
            {
              "internalType": "uint256",
              "name": "tokenId",
              "type": "uint256"
            },
            {
              "internalType": "uint16",
              "name": "storeNumber",
              "type": "uint16"
            },
            {
              "internalType": "uint256",
              "name": "price",
              "type": "uint256"
            },
            {
              "internalType": "uint256",
              "name": "rent",
              "type": "uint256"
            },
            {
              "internalType": "bool",
              "name": "isSaleable",
              "type": "bool"
            },
            {
              "internalType": "bool",
              "name": "isRentable",
              "type": "bool"
            }
          ],
          "internalType": "struct MetaMall.Store[][]",
          "name": "",
          "type": "tuple[][]"
        }
      ],
      "stateMutability": "view",
      "type": "function",
      "constant": true
    },
    {
      "inputs": [
        {
          "internalType": "address",
          "name": "owner",
          "type": "address"
        }
      ],
      "name": "getOwnedStores",
      "outputs": [
        {
          "components": [
            {
              "internalType": "address",
              "name": "owner",
              "type": "address"
            },
            {
              "internalType": "uint256",
              "name": "tokenId",
              "type": "uint256"
            },
            {
              "internalType": "uint16",
              "name": "storeNumber",
              "type": "uint16"
            },
            {
              "internalType": "uint256",
              "name": "price",
              "type": "uint256"
            },
            {
              "internalType": "uint256",
              "name": "rent",
              "type": "uint256"
            },
            {
              "internalType": "bool",
              "name": "isSaleable",
              "type": "bool"
            },
            {
              "internalType": "bool",
              "name": "isRentable",
              "type": "bool"
            },
            {
              "internalType": "address",
              "name": "user",
              "type": "address"
            },
            {
              "internalType": "uint256",
              "name": "expires",
              "type": "uint256"
            }
          ],
          "internalType": "struct MetaMall.StoreDetails[]",
          "name": "",
          "type": "tuple[]"
        }
      ],
      "stateMutability": "view",
      "type": "function",
      "constant": true
    },
    {
      "inputs": [],
      "name": "getRentedStores",
      "outputs": [
        {
          "components": [
            {
              "internalType": "address",
              "name": "owner",
              "type": "address"
            },
            {
              "internalType": "uint256",
              "name": "tokenId",
              "type": "uint256"
            },
            {
              "internalType": "uint16",
              "name": "storeNumber",
              "type": "uint16"
            },
            {
              "internalType": "uint256",
              "name": "price",
              "type": "uint256"
            },
            {
              "internalType": "uint256",
              "name": "rent",
              "type": "uint256"
            },
            {
              "internalType": "bool",
              "name": "isSaleable",
              "type": "bool"
            },
            {
              "internalType": "bool",
              "name": "isRentable",
              "type": "bool"
            },
            {
              "internalType": "address",
              "name": "user",
              "type": "address"
            },
            {
              "internalType": "uint256",
              "name": "expires",
              "type": "uint256"
            }
          ],
          "internalType": "struct MetaMall.StoreDetails[]",
          "name": "",
          "type": "tuple[]"
        }
      ],
      "stateMutability": "view",
      "type": "function",
      "constant": true
    },
    {
      "inputs": [],
      "name": "getAvailableStores",
      "outputs": [
        {
          "components": [
            {
              "internalType": "address",
              "name": "owner",
              "type": "address"
            },
            {
              "internalType": "uint256",
              "name": "tokenId",
              "type": "uint256"
            },
            {
              "internalType": "uint16",
              "name": "storeNumber",
              "type": "uint16"
            },
            {
              "internalType": "uint256",
              "name": "price",
              "type": "uint256"
            },
            {
              "internalType": "uint256",
              "name": "rent",
              "type": "uint256"
            },
            {
              "internalType": "bool",
              "name": "isSaleable",
              "type": "bool"
            },
            {
              "internalType": "bool",
              "name": "isRentable",
              "type": "bool"
            },
            {
              "internalType": "address",
              "name": "user",
              "type": "address"
            },
            {
              "internalType": "uint256",
              "name": "expires",
              "type": "uint256"
            }
          ],
          "internalType": "struct MetaMall.StoreDetails[]",
          "name": "",
          "type": "tuple[]"
        }
      ],
      "stateMutability": "view",
      "type": "function",
      "constant": true
    },
    {
      "inputs": [
        {
          "internalType": "uint256",
          "name": "floor",
          "type": "uint256"
        },
        {
          "internalType": "uint256",
          "name": "storeNumber",
          "type": "uint256"
        },
        {
          "internalType": "uint256",
          "name": "_amountPerMonth",
          "type": "uint256"
        }
      ],
      "name": "setRentFee",
      "outputs": [],
      "stateMutability": "nonpayable",
      "type": "function"
    },
    {
      "inputs": [
        {
          "internalType": "uint256",
          "name": "floor",
          "type": "uint256"
        },
        {
          "internalType": "uint256",
          "name": "storeNumber",
          "type": "uint256"
        },
        {
          "internalType": "uint256",
          "name": "_price",
          "type": "uint256"
        }
      ],
      "name": "setPrice",
      "outputs": [],
      "stateMutability": "nonpayable",
      "type": "function"
    },
    {
      "inputs": [
        {
          "internalType": "uint256",
          "name": "floor",
          "type": "uint256"
        },
        {
          "internalType": "uint256",
          "name": "storeNumber",
          "type": "uint256"
        },
        {
          "internalType": "bool",
          "name": "_rentable",
          "type": "bool"
        }
      ],
      "name": "setRentable",
      "outputs": [],
      "stateMutability": "nonpayable",
      "type": "function"
    },
    {
      "inputs": [
        {
          "internalType": "uint256",
          "name": "floor",
          "type": "uint256"
        },
        {
          "internalType": "uint256",
          "name": "storeNumber",
          "type": "uint256"
        },
        {
          "internalType": "bool",
          "name": "_saleable",
          "type": "bool"
        }
      ],
      "name": "setSaleable",
      "outputs": [],
      "stateMutability": "nonpayable",
      "type": "function"
    },
    {
      "inputs": [
        {
          "internalType": "uint256",
          "name": "floor",
          "type": "uint256"
        },
        {
          "internalType": "uint256",
          "name": "storeNumber",
          "type": "uint256"
        },
        {
          "internalType": "uint256",
          "name": "_tokenId",
          "type": "uint256"
        },
        {
          "internalType": "uint64",
          "name": "month",
          "type": "uint64"
        }
      ],
      "name": "rent",
      "outputs": [],
      "stateMutability": "payable",
      "type": "function",
      "payable": true
    },
    {
      "inputs": [
        {
          "internalType": "uint256",
          "name": "floor",
          "type": "uint256"
        },
        {
          "internalType": "uint256",
          "name": "storeNumber",
          "type": "uint256"
        },
        {
          "internalType": "uint256",
          "name": "_tokenId",
          "type": "uint256"
        }
      ],
      "name": "buy",
      "outputs": [],
      "stateMutability": "payable",
      "type": "function",
      "payable": true
    }
  ],
  "bytecode": "0x60806040523480156200001157600080fd5b506040518060400160405280600e81526020017f4d6574614d616c6c2053686f70730000000000000000000000000000000000008152506040518060400160405280600281526020017f4c4c000000000000000000000000000000000000000000000000000000000000815250818181600090805190602001906200009892919062000dac565b508060019080519060200190620000b192919062000dac565b505050505033600960006101000a81548173ffffffffffffffffffffffffffffffffffffffff021916908373ffffffffffffffffffffffffffffffffffffffff160217905550600a600181600181540180825580915050039060005260206000205050600a600181600181540180825580915050039060005260206000205050600a600181600181540180825580915050039060005260206000205050600a600181600181540180825580915050039060005260206000205050600a60018160018154018082558091505003906000526020600020505060005b60208161ffff1610156200035157600a600081548110620001b157620001b062000e5c565b5b906000526020600020016040518060e00160405280600960009054906101000a900473ffffffffffffffffffffffffffffffffffffffff1673ffffffffffffffffffffffffffffffffffffffff168152602001620002146200055460201b60201c565b81526020018361ffff16815260200167016345785d8a000081526020016000815260200160011515815260200160001515815250908060018154018082558091505060019003906000526020600020906006020160009091909190915060008201518160000160006101000a81548173ffffffffffffffffffffffffffffffffffffffff021916908373ffffffffffffffffffffffffffffffffffffffff1602179055506020820151816001015560408201518160020160006101000a81548161ffff021916908361ffff160217905550606082015181600301556080820151816004015560a08201518160050160006101000a81548160ff02191690831515021790555060c08201518160050160016101000a81548160ff02191690831515021790555050508080620003489062000ec8565b9150506200018b565b5060005b60208161ffff1610156200054d57600a6001815481106200037b576200037a62000e5c565b5b906000526020600020016040518060e00160405280600960009054906101000a900473ffffffffffffffffffffffffffffffffffffffff1673ffffffffffffffffffffffffffffffffffffffff168152602001620003de6200055460201b60201c565b8152602001600a600081548110620003fb57620003fa62000e5c565b5b90600052602060002001805490508462000416919062000ef7565b61ffff16815260200167016345785d8a000081526020016000815260200160011515815260200160001515815250908060018154018082558091505060019003906000526020600020906006020160009091909190915060008201518160000160006101000a81548173ffffffffffffffffffffffffffffffffffffffff021916908373ffffffffffffffffffffffffffffffffffffffff1602179055506020820151816001015560408201518160020160006101000a81548161ffff021916908361ffff160217905550606082015181600301556080820151816004015560a08201518160050160006101000a81548160ff02191690831515021790555060c08201518160050160016101000a81548160ff02191690831515021790555050508080620005449062000ec8565b91505062000355565b5062001429565b60006200056d6008620005c360201b62002f731760201c565b6000620005866008620005d960201b62002f891760201c565b9050620005bc600960009054906101000a900473ffffffffffffffffffffffffffffffffffffffff1682620005e760201b60201c565b8091505090565b6001816000016000828254019250508190555050565b600081600001549050919050565b620006098282604051806020016040528060008152506200060d60201b60201c565b5050565b6200061f83836200067b60201b60201c565b620006346000848484620008c160201b60201c565b62000676576040517f08c379a00000000000000000000000000000000000000000000000000000000081526004016200066d9062000fbd565b60405180910390fd5b505050565b600073ffffffffffffffffffffffffffffffffffffffff168273ffffffffffffffffffffffffffffffffffffffff1603620006ed576040517f08c379a0000000000000000000000000000000000000000000000000000000008152600401620006e4906200102f565b60405180910390fd5b620006fe8162000a6a60201b60201c565b1562000741576040517f08c379a00000000000000000000000000000000000000000000000000000000081526004016200073890620010a1565b60405180910390fd5b6200075760008383600162000ab360201b60201c565b620007688162000a6a60201b60201c565b15620007ab576040517f08c379a0000000000000000000000000000000000000000000000000000000008152600401620007a290620010a1565b60405180910390fd5b6001600360008473ffffffffffffffffffffffffffffffffffffffff1673ffffffffffffffffffffffffffffffffffffffff16815260200190815260200160002060008282540192505081905550816002600083815260200190815260200160002060006101000a81548173ffffffffffffffffffffffffffffffffffffffff021916908373ffffffffffffffffffffffffffffffffffffffff160217905550808273ffffffffffffffffffffffffffffffffffffffff16600073ffffffffffffffffffffffffffffffffffffffff167fddf252ad1be2c89b69c2b068fc378daa952ba7f163c4a11628f55a4df523b3ef60405160405180910390a4620008bd60008383600162000c1160201b60201c565b5050565b6000620008ef8473ffffffffffffffffffffffffffffffffffffffff1662000c1760201b62002f971760201c565b1562000a5d578373ffffffffffffffffffffffffffffffffffffffff1663150b7a026200092162000c3a60201b60201c565b8786866040518563ffffffff1660e01b8152600401620009459493929190620011c7565b6020604051808303816000875af19250505080156200098457506040513d601f19601f820116820180604052508101906200098191906200127d565b60015b62000a0c573d8060008114620009b7576040519150601f19603f3d011682016040523d82523d6000602084013e620009bc565b606091505b50600081510362000a04576040517f08c379a0000000000000000000000000000000000000000000000000000000008152600401620009fb9062000fbd565b60405180910390fd5b805181602001fd5b63150b7a0260e01b7bffffffffffffffffffffffffffffffffffffffffffffffffffffffff1916817bffffffffffffffffffffffffffffffffffffffffffffffffffffffff19161491505062000a62565b600190505b949350505050565b60008073ffffffffffffffffffffffffffffffffffffffff1662000a948362000c4260201b60201c565b73ffffffffffffffffffffffffffffffffffffffff1614159050919050565b62000acc8484848462000c7f60201b62002fba1760201c565b8273ffffffffffffffffffffffffffffffffffffffff168473ffffffffffffffffffffffffffffffffffffffff161415801562000b6c5750600073ffffffffffffffffffffffffffffffffffffffff166007600084815260200190815260200160002060000160009054906101000a900473ffffffffffffffffffffffffffffffffffffffff1673ffffffffffffffffffffffffffffffffffffffff1614155b1562000c0b5760076000838152602001908152602001600020600080820160006101000a81549073ffffffffffffffffffffffffffffffffffffffff021916905560018201600090555050600073ffffffffffffffffffffffffffffffffffffffff16827f4e06b4e7000e659094299b3533b47b6aa8ad048e95e872d23d1f4ee55af89cfe600060405162000c02919062001310565b60405180910390a35b50505050565b50505050565b6000808273ffffffffffffffffffffffffffffffffffffffff163b119050919050565b600033905090565b60006002600083815260200190815260200160002060009054906101000a900473ffffffffffffffffffffffffffffffffffffffff169050919050565b600181111562000da657600073ffffffffffffffffffffffffffffffffffffffff168473ffffffffffffffffffffffffffffffffffffffff161462000d175780600360008673ffffffffffffffffffffffffffffffffffffffff1673ffffffffffffffffffffffffffffffffffffffff168152602001908152602001600020600082825462000d0f91906200132d565b925050819055505b600073ffffffffffffffffffffffffffffffffffffffff168373ffffffffffffffffffffffffffffffffffffffff161462000da55780600360008573ffffffffffffffffffffffffffffffffffffffff1673ffffffffffffffffffffffffffffffffffffffff168152602001908152602001600020600082825462000d9d919062001368565b925050819055505b5b50505050565b82805462000dba90620013f4565b90600052602060002090601f01602090048101928262000dde576000855562000e2a565b82601f1062000df957805160ff191683800117855562000e2a565b8280016001018555821562000e2a579182015b8281111562000e2957825182559160200191906001019062000e0c565b5b50905062000e39919062000e3d565b5090565b5b8082111562000e5857600081600090555060010162000e3e565b5090565b7f4e487b7100000000000000000000000000000000000000000000000000000000600052603260045260246000fd5b7f4e487b7100000000000000000000000000000000000000000000000000000000600052601160045260246000fd5b600061ffff82169050919050565b600062000ed58262000eba565b915061ffff820362000eec5762000eeb62000e8b565b5b600182019050919050565b600062000f048262000eba565b915062000f118362000eba565b92508261ffff0382111562000f2b5762000f2a62000e8b565b5b828201905092915050565b600082825260208201905092915050565b7f4552433732313a207472616e7366657220746f206e6f6e20455243373231526560008201527f63656976657220696d706c656d656e7465720000000000000000000000000000602082015250565b600062000fa560328362000f36565b915062000fb28262000f47565b604082019050919050565b6000602082019050818103600083015262000fd88162000f96565b9050919050565b7f4552433732313a206d696e7420746f20746865207a65726f2061646472657373600082015250565b60006200101760208362000f36565b9150620010248262000fdf565b602082019050919050565b600060208201905081810360008301526200104a8162001008565b9050919050565b7f4552433732313a20746f6b656e20616c7265616479206d696e74656400000000600082015250565b600062001089601c8362000f36565b9150620010968262001051565b602082019050919050565b60006020820190508181036000830152620010bc816200107a565b9050919050565b600073ffffffffffffffffffffffffffffffffffffffff82169050919050565b6000620010f082620010c3565b9050919050565b6200110281620010e3565b82525050565b6000819050919050565b6200111d8162001108565b82525050565b600081519050919050565b600082825260208201905092915050565b60005b838110156200115f57808201518184015260208101905062001142565b838111156200116f576000848401525b50505050565b6000601f19601f8301169050919050565b6000620011938262001123565b6200119f81856200112e565b9350620011b18185602086016200113f565b620011bc8162001175565b840191505092915050565b6000608082019050620011de6000830187620010f7565b620011ed6020830186620010f7565b620011fc604083018562001112565b818103606083015262001210818462001186565b905095945050505050565b600080fd5b60007fffffffff0000000000000000000000000000000000000000000000000000000082169050919050565b620012578162001220565b81146200126357600080fd5b50565b60008151905062001277816200124c565b92915050565b6000602082840312156200129657620012956200121b565b5b6000620012a68482850162001266565b91505092915050565b6000819050919050565b600067ffffffffffffffff82169050919050565b6000819050919050565b6000620012f8620012f2620012ec84620012af565b620012cd565b620012b9565b9050919050565b6200130a81620012d7565b82525050565b6000602082019050620013276000830184620012ff565b92915050565b60006200133a8262001108565b9150620013478362001108565b9250828210156200135d576200135c62000e8b565b5b828203905092915050565b6000620013758262001108565b9150620013828362001108565b9250827fffffffffffffffffffffffffffffffffffffffffffffffffffffffffffffffff03821115620013ba57620013b962000e8b565b5b828201905092915050565b7f4e487b7100000000000000000000000000000000000000000000000000000000600052602260045260246000fd5b600060028204905060018216806200140d57607f821691505b602082108103620014235762001422620013c5565b5b50919050565b615e5080620014396000396000f3fe6080604052600436106101d75760003560e01c80636352211e11610102578063aa585d5611610095578063e030565e11610064578063e030565e146106af578063e985e9c5146106d8578063f6ea588214610715578063f9f027fa1461073e576101d7565b8063aa585d56146105e3578063b88d4fde1461060c578063c2f1f14a14610635578063c87b56dd14610672576101d7565b80638fc88c48116100d15780638fc88c481461052757806395d89b41146105645780639b2e0a2c1461058f578063a22cb465146105ba576101d7565b80636352211e1461044557806370a082311461048257806376e23cae146104bf5780638b4bd105146104fc576101d7565b806323b872dd1161017a57806340993b261161014957806340993b261461039857806342842e0e146103b4578063518de02f146103dd578063583d0e9314610408576101d7565b806323b872dd1461030657806329bc3fde1461032f5780632d58018d146103465780633e6ebaf91461036f576101d7565b806306fdde03116101b657806306fdde0314610259578063081812fc14610284578063095ea7b3146102c15780631d3ec396146102ea576101d7565b8062223f83146101dc57806301ffc9a71461020557806302362e7314610242575b600080fd5b3480156101e857600080fd5b5061020360048036038101906101fe91906142e8565b610767565b005b34801561021157600080fd5b5061022c60048036038101906102279190614393565b610987565b60405161023991906143cf565b60405180910390f35b34801561024e57600080fd5b50610257610a01565b005b34801561026557600080fd5b5061026e610b38565b60405161027b9190614483565b60405180910390f35b34801561029057600080fd5b506102ab60048036038101906102a691906144a5565b610bca565b6040516102b89190614513565b60405180910390f35b3480156102cd57600080fd5b506102e860048036038101906102e3919061455a565b610c10565b005b61030460048036038101906102ff91906145da565b610d27565b005b34801561031257600080fd5b5061032d60048036038101906103289190614641565b611122565b005b34801561033b57600080fd5b50610344611182565b005b34801561035257600080fd5b5061036d600480360381019061036891906144a5565b611231565b005b34801561037b57600080fd5b5061039660048036038101906103919190614694565b611395565b005b6103b260048036038101906103ad9190614694565b6114b4565b005b3480156103c057600080fd5b506103db60048036038101906103d69190614641565b611836565b005b3480156103e957600080fd5b506103f2611856565b6040516103ff9190614898565b60405180910390f35b34801561041457600080fd5b5061042f600480360381019061042a91906148ba565b611afe565b60405161043c91906149b1565b60405180910390f35b34801561045157600080fd5b5061046c600480360381019061046791906144a5565b611bc7565b6040516104799190614513565b60405180910390f35b34801561048e57600080fd5b506104a960048036038101906104a491906149cd565b611c4d565b6040516104b69190614a09565b60405180910390f35b3480156104cb57600080fd5b506104e660048036038101906104e191906149cd565b611d04565b6040516104f39190614898565b60405180910390f35b34801561050857600080fd5b50610511611fdc565b60405161051e9190614c23565b60405180910390f35b34801561053357600080fd5b5061054e600480360381019061054991906144a5565b61214c565b60405161055b9190614a09565b60405180910390f35b34801561057057600080fd5b5061057961216c565b6040516105869190614483565b60405180910390f35b34801561059b57600080fd5b506105a46121fe565b6040516105b19190614898565b60405180910390f35b3480156105c657600080fd5b506105e160048036038101906105dc9190614c45565b612500565b005b3480156105ef57600080fd5b5061060a60048036038101906106059190614694565b612516565b005b34801561061857600080fd5b50610633600480360381019061062e9190614dba565b612635565b005b34801561064157600080fd5b5061065c600480360381019061065791906144a5565b612697565b6040516106699190614513565b60405180910390f35b34801561067e57600080fd5b50610699600480360381019061069491906144a5565b6126fe565b6040516106a69190614483565b60405180910390f35b3480156106bb57600080fd5b506106d660048036038101906106d19190614e3d565b612810565b005b3480156106e457600080fd5b506106ff60048036038101906106fa9190614e90565b61291b565b60405161070c91906143cf565b60405180910390f35b34801561072157600080fd5b5061073c600480360381019061073791906142e8565b6129af565b005b34801561074a57600080fd5b50610765600480360381019061076091906144a5565b612bcf565b005b6107b96107726130e0565b600a858154811061078657610785614ed0565b5b9060005260206000200184815481106107a2576107a1614ed0565b5b9060005260206000209060060201600101546130e8565b6107f8576040517f08c379a00000000000000000000000000000000000000000000000000000000081526004016107ef90614f71565b60405180910390fd5b600a805490508310801561082c5750600a838154811061081b5761081a614ed0565b5b906000526020600020018054905082105b61086b576040517f08c379a000000000000000000000000000000000000000000000000000000000815260040161086290614fdd565b60405180910390fd5b6000600a848154811061088157610880614ed0565b5b90600052602060002001838154811061089d5761089c614ed0565b5b9060005260206000209060060201600101549050600073ffffffffffffffffffffffffffffffffffffffff166108d282612697565b73ffffffffffffffffffffffffffffffffffffffff1614610928576040517f08c379a000000000000000000000000000000000000000000000000000000000815260040161091f90615095565b60405180910390fd5b81600a858154811061093d5761093c614ed0565b5b90600052602060002001848154811061095957610958614ed0565b5b906000526020600020906006020160050160006101000a81548160ff02191690831515021790555050505050565b60007fad092b5c000000000000000000000000000000000000000000000000000000007bffffffffffffffffffffffffffffffffffffffffffffffffffffffff1916827bffffffffffffffffffffffffffffffffffffffffffffffffffffffff191614806109fa57506109f98261317d565b5b9050919050565b600960009054906101000a900473ffffffffffffffffffffffffffffffffffffffff1673ffffffffffffffffffffffffffffffffffffffff163373ffffffffffffffffffffffffffffffffffffffff1614610a91576040517f08c379a0000000000000000000000000000000000000000000000000000000008152600401610a8890615101565b60405180910390fd5b6000600a6001600a80549050610aa79190615150565b81548110610ab857610ab7614ed0565b5b906000526020600020018054905014610b06576040517f08c379a0000000000000000000000000000000000000000000000000000000008152600401610afd906151f6565b60405180910390fd5b600a805480610b1857610b17615216565b5b600190038181906000526020600020016000610b349190613fc7565b9055565b606060008054610b4790615274565b80601f0160208091040260200160405190810160405280929190818152602001828054610b7390615274565b8015610bc05780601f10610b9557610100808354040283529160200191610bc0565b820191906000526020600020905b815481529060010190602001808311610ba357829003601f168201915b5050505050905090565b6000610bd58261325f565b6004600083815260200190815260200160002060009054906101000a900473ffffffffffffffffffffffffffffffffffffffff169050919050565b6000610c1b82611bc7565b90508073ffffffffffffffffffffffffffffffffffffffff168373ffffffffffffffffffffffffffffffffffffffff1603610c8b576040517f08c379a0000000000000000000000000000000000000000000000000000000008152600401610c8290615317565b60405180910390fd5b8073ffffffffffffffffffffffffffffffffffffffff16610caa6130e0565b73ffffffffffffffffffffffffffffffffffffffff161480610cd95750610cd881610cd36130e0565b61291b565b5b610d18576040517f08c379a0000000000000000000000000000000000000000000000000000000008152600401610d0f906153a9565b60405180910390fd5b610d2283836132aa565b505050565b600a8054905084108015610d5b5750600a8481548110610d4a57610d49614ed0565b5b906000526020600020018054905083105b610d9a576040517f08c379a0000000000000000000000000000000000000000000000000000000008152600401610d9190614fdd565b60405180910390fd5b60008167ffffffffffffffff16600a8681548110610dbb57610dba614ed0565b5b906000526020600020018581548110610dd757610dd6614ed0565b5b906000526020600020906006020160040154610df391906153c9565b9050803414610e37576040517f08c379a0000000000000000000000000000000000000000000000000000000008152600401610e2e9061546f565b60405180910390fd5b600073ffffffffffffffffffffffffffffffffffffffff16610e5884612697565b73ffffffffffffffffffffffffffffffffffffffff1614610eae576040517f08c379a0000000000000000000000000000000000000000000000000000000008152600401610ea5906154db565b60405180910390fd5b600a8581548110610ec257610ec1614ed0565b5b906000526020600020018481548110610ede57610edd614ed0565b5b906000526020600020906006020160050160019054906101000a900460ff16610f3c576040517f08c379a0000000000000000000000000000000000000000000000000000000008152600401610f3390615547565b60405180910390fd5b610f4583611bc7565b73ffffffffffffffffffffffffffffffffffffffff166108fc829081150290604051600060405180830381858888f19350505050158015610f8a573d6000803e3d6000fd5b506000600760008581526020019081526020016000209050338160000160006101000a81548173ffffffffffffffffffffffffffffffffffffffff021916908373ffffffffffffffffffffffffffffffffffffffff16021790555060006228207284610ff69190615567565b90508067ffffffffffffffff164261100e91906155a9565b82600101819055503373ffffffffffffffffffffffffffffffffffffffff16857f4e06b4e7000e659094299b3533b47b6aa8ad048e95e872d23d1f4ee55af89cfe8360405161105d919061560e565b60405180910390a36000600a888154811061107b5761107a614ed0565b5b90600052602060002001878154811061109757611096614ed0565b5b906000526020600020906006020160050160016101000a81548160ff0219169083151502179055506000600a88815481106110d5576110d4614ed0565b5b9060005260206000200187815481106110f1576110f0614ed0565b5b906000526020600020906006020160050160006101000a81548160ff02191690831515021790555050505050505050565b61113361112d6130e0565b826130e8565b611172576040517f08c379a00000000000000000000000000000000000000000000000000000000081526004016111699061569b565b60405180910390fd5b61117d838383613363565b505050565b600960009054906101000a900473ffffffffffffffffffffffffffffffffffffffff1673ffffffffffffffffffffffffffffffffffffffff163373ffffffffffffffffffffffffffffffffffffffff1614611212576040517f08c379a000000000000000000000000000000000000000000000000000000000815260040161120990615101565b60405180910390fd5b600a600181600181540180825580915050039060005260206000205050565b600960009054906101000a900473ffffffffffffffffffffffffffffffffffffffff1673ffffffffffffffffffffffffffffffffffffffff163373ffffffffffffffffffffffffffffffffffffffff16146112c1576040517f08c379a00000000000000000000000000000000000000000000000000000000081526004016112b890615101565b60405180910390fd5b600a60018160018154018082558091505003906000526020600020505060006001600a805490506112f29190615150565b90505b8181111561136757600a60018261130c9190615150565b8154811061131d5761131c614ed0565b5b90600052602060002001600a828154811061133b5761133a614ed0565b5b90600052602060002001908054611353929190613feb565b50808061135f906156bb565b9150506112f5565b50600a818154811061137c5761137b614ed0565b5b9060005260206000200160006113929190613fc7565b50565b6113e76113a06130e0565b600a85815481106113b4576113b3614ed0565b5b9060005260206000200184815481106113d0576113cf614ed0565b5b9060005260206000209060060201600101546130e8565b611426576040517f08c379a000000000000000000000000000000000000000000000000000000000815260040161141d90614f71565b60405180910390fd5b60008111611469576040517f08c379a000000000000000000000000000000000000000000000000000000000815260040161146090615730565b60405180910390fd5b80600a848154811061147e5761147d614ed0565b5b90600052602060002001838154811061149a57611499614ed0565b5b906000526020600020906006020160040181905550505050565b600a80549050831080156114e85750600a83815481106114d7576114d6614ed0565b5b906000526020600020018054905082105b611527576040517f08c379a000000000000000000000000000000000000000000000000000000000815260040161151e90614fdd565b60405180910390fd5b60011515600a848154811061153f5761153e614ed0565b5b90600052602060002001838154811061155b5761155a614ed0565b5b906000526020600020906006020160050160009054906101000a900460ff161515146115bc576040517f08c379a00000000000000000000000000000000000000000000000000000000081526004016115b3906157c2565b60405180910390fd5b600a83815481106115d0576115cf614ed0565b5b9060005260206000200182815481106115ec576115eb614ed0565b5b906000526020600020906006020160030154341015611640576040517f08c379a00000000000000000000000000000000000000000000000000000000081526004016116379061546f565b60405180910390fd5b61164981611bc7565b73ffffffffffffffffffffffffffffffffffffffff166108fc600a858154811061167657611675614ed0565b5b90600052602060002001848154811061169257611691614ed0565b5b9060005260206000209060060201600301549081150290604051600060405180830381858888f193505050501580156116cf573d6000803e3d6000fd5b506000600a84815481106116e6576116e5614ed0565b5b90600052602060002001838154811061170257611701614ed0565b5b906000526020600020906006020160050160006101000a81548160ff0219169083151502179055506000600a84815481106117405761173f614ed0565b5b90600052602060002001838154811061175c5761175b614ed0565b5b906000526020600020906006020160050160016101000a81548160ff021916908315150217905550611831600a848154811061179b5761179a614ed0565b5b9060005260206000200183815481106117b7576117b6614ed0565b5b906000526020600020906006020160000160009054906101000a900473ffffffffffffffffffffffffffffffffffffffff1633600a86815481106117fe576117fd614ed0565b5b90600052602060002001858154811061181a57611819614ed0565b5b906000526020600020906006020160010154611836565b505050565b61185183838360405180602001604052806000815250612635565b505050565b6060600080606060005b600a8054905081101561194c5760005b600a828154811061188457611883614ed0565b5b906000526020600020018054905081101561193857600073ffffffffffffffffffffffffffffffffffffffff166118fb600a84815481106118c8576118c7614ed0565b5b9060005260206000200183815481106118e4576118e3614ed0565b5b906000526020600020906006020160010154612697565b73ffffffffffffffffffffffffffffffffffffffff1614611925578480611921906157e2565b9550505b8080611930906157e2565b915050611870565b508080611944906157e2565b915050611860565b508267ffffffffffffffff81111561196757611966614c8f565b5b6040519080825280602002602001820160405280156119a057816020015b61198d614153565b8152602001906001900390816119855790505b50905060005b600a80549050811015611af45760005b600a82815481106119ca576119c9614ed0565b5b9060005260206000200180549050811015611ae057600073ffffffffffffffffffffffffffffffffffffffff16611a41600a8481548110611a0e57611a0d614ed0565b5b906000526020600020018381548110611a2a57611a29614ed0565b5b906000526020600020906006020160010154612697565b73ffffffffffffffffffffffffffffffffffffffff1614611acd57611aa2600a8381548110611a7357611a72614ed0565b5b906000526020600020018281548110611a8f57611a8e614ed0565b5b906000526020600020906006020161365c565b838580611aae906157e2565b965081518110611ac157611ac0614ed0565b5b60200260200101819052505b8080611ad8906157e2565b9150506119b6565b508080611aec906157e2565b9150506119a6565b5080935050505090565b611b06614153565b600a8054905083108015611b3a5750600a8381548110611b2957611b28614ed0565b5b906000526020600020018054905082105b611b79576040517f08c379a0000000000000000000000000000000000000000000000000000000008152600401611b7090614fdd565b60405180910390fd5b611bbf600a8481548110611b9057611b8f614ed0565b5b906000526020600020018381548110611bac57611bab614ed0565b5b906000526020600020906006020161365c565b905092915050565b600080611bd38361379d565b9050600073ffffffffffffffffffffffffffffffffffffffff168173ffffffffffffffffffffffffffffffffffffffff1603611c44576040517f08c379a0000000000000000000000000000000000000000000000000000000008152600401611c3b90615876565b60405180910390fd5b80915050919050565b60008073ffffffffffffffffffffffffffffffffffffffff168273ffffffffffffffffffffffffffffffffffffffff1603611cbd576040517f08c379a0000000000000000000000000000000000000000000000000000000008152600401611cb490615908565b60405180910390fd5b600360008373ffffffffffffffffffffffffffffffffffffffff1673ffffffffffffffffffffffffffffffffffffffff168152602001908152602001600020549050919050565b6060600080606060005b600a80549050811015611e115760005b600a8281548110611d3257611d31614ed0565b5b9060005260206000200180549050811015611dfd578673ffffffffffffffffffffffffffffffffffffffff16600a8381548110611d7257611d71614ed0565b5b906000526020600020018281548110611d8e57611d8d614ed0565b5b906000526020600020906006020160000160009054906101000a900473ffffffffffffffffffffffffffffffffffffffff1673ffffffffffffffffffffffffffffffffffffffff1603611dea578480611de6906157e2565b9550505b8080611df5906157e2565b915050611d1e565b508080611e09906157e2565b915050611d0e565b508267ffffffffffffffff811115611e2c57611e2b614c8f565b5b604051908082528060200260200182016040528015611e6557816020015b611e52614153565b815260200190600190039081611e4a5790505b50905060005b600a80549050811015611fd05760005b600a8281548110611e8f57611e8e614ed0565b5b9060005260206000200180549050811015611fbc578673ffffffffffffffffffffffffffffffffffffffff16600a8381548110611ecf57611ece614ed0565b5b906000526020600020018281548110611eeb57611eea614ed0565b5b906000526020600020906006020160000160009054906101000a900473ffffffffffffffffffffffffffffffffffffffff1673ffffffffffffffffffffffffffffffffffffffff1603611fa957611f7e600a8381548110611f4f57611f4e614ed0565b5b906000526020600020018281548110611f6b57611f6a614ed0565b5b906000526020600020906006020161365c565b838580611f8a906157e2565b965081518110611f9d57611f9c614ed0565b5b60200260200101819052505b8080611fb4906157e2565b915050611e7b565b508080611fc8906157e2565b915050611e6b565b50809350505050919050565b6060600a805480602002602001604051908101604052809291908181526020016000905b8282101561214357838290600052602060002001805480602002602001604051908101604052809291908181526020016000905b8282101561213057838290600052602060002090600602016040518060e00160405290816000820160009054906101000a900473ffffffffffffffffffffffffffffffffffffffff1673ffffffffffffffffffffffffffffffffffffffff1673ffffffffffffffffffffffffffffffffffffffff168152602001600182015481526020016002820160009054906101000a900461ffff1661ffff1661ffff16815260200160038201548152602001600482015481526020016005820160009054906101000a900460ff161515151581526020016005820160019054906101000a900460ff16151515158152505081526020019060010190612034565b5050505081526020019060010190612000565b50505050905090565b600060076000838152602001908152602001600020600101549050919050565b60606001805461217b90615274565b80601f01602080910402602001604051908101604052809291908181526020018280546121a790615274565b80156121f45780601f106121c9576101008083540402835291602001916121f4565b820191906000526020600020905b8154815290600101906020018083116121d757829003601f168201915b5050505050905090565b6060600080606060005b600a805490508110156123215760005b600a828154811061222c5761222b614ed0565b5b906000526020600020018054905081101561230d57600a828154811061225557612254614ed0565b5b90600052602060002001818154811061227157612270614ed0565b5b906000526020600020906006020160050160009054906101000a900460ff16806122e65750600a82815481106122aa576122a9614ed0565b5b9060005260206000200181815481106122c6576122c5614ed0565b5b906000526020600020906006020160050160019054906101000a900460ff165b156122fa5784806122f6906157e2565b9550505b8080612305906157e2565b915050612218565b508080612319906157e2565b915050612208565b508267ffffffffffffffff81111561233c5761233b614c8f565b5b60405190808252806020026020018201604052801561237557816020015b612362614153565b81526020019060019003908161235a5790505b50905060005b600a805490508110156124f65760005b600a828154811061239f5761239e614ed0565b5b90600052602060002001805490508110156124e257600a82815481106123c8576123c7614ed0565b5b9060005260206000200181815481106123e4576123e3614ed0565b5b906000526020600020906006020160050160009054906101000a900460ff16806124595750600a828154811061241d5761241c614ed0565b5b90600052602060002001818154811061243957612438614ed0565b5b906000526020600020906006020160050160019054906101000a900460ff165b156124cf576124a4600a838154811061247557612474614ed0565b5b90600052602060002001828154811061249157612490614ed0565b5b906000526020600020906006020161365c565b8385806124b0906157e2565b9650815181106124c3576124c2614ed0565b5b60200260200101819052505b80806124da906157e2565b91505061238b565b5080806124ee906157e2565b91505061237b565b5080935050505090565b61251261250b6130e0565b83836137da565b5050565b6125686125216130e0565b600a858154811061253557612534614ed0565b5b90600052602060002001848154811061255157612550614ed0565b5b9060005260206000209060060201600101546130e8565b6125a7576040517f08c379a000000000000000000000000000000000000000000000000000000000815260040161259e90614f71565b60405180910390fd5b600081116125ea576040517f08c379a00000000000000000000000000000000000000000000000000000000081526004016125e190615730565b60405180910390fd5b80600a84815481106125ff576125fe614ed0565b5b90600052602060002001838154811061261b5761261a614ed0565b5b906000526020600020906006020160030181905550505050565b6126466126406130e0565b836130e8565b612685576040517f08c379a000000000000000000000000000000000000000000000000000000000815260040161267c9061569b565b60405180910390fd5b61269184848484613946565b50505050565b6000426007600084815260200190815260200160002060010154106126f4576007600083815260200190815260200160002060000160009054906101000a900473ffffffffffffffffffffffffffffffffffffffff1690506126f9565b600090505b919050565b60606127098261325f565b600060066000848152602001908152602001600020805461272990615274565b80601f016020809104026020016040519081016040528092919081815260200182805461275590615274565b80156127a25780601f10612777576101008083540402835291602001916127a2565b820191906000526020600020905b81548152906001019060200180831161278557829003601f168201915b5050505050905060006127b36139a2565b905060008151036127c857819250505061280b565b6000825111156127fd5780826040516020016127e5929190615964565b6040516020818303038152906040529250505061280b565b612806846139b9565b925050505b919050565b61281a33846130e8565b612859576040517f08c379a0000000000000000000000000000000000000000000000000000000008152600401612850906159fa565b60405180910390fd5b6000600760008581526020019081526020016000209050828160000160006101000a81548173ffffffffffffffffffffffffffffffffffffffff021916908373ffffffffffffffffffffffffffffffffffffffff1602179055508167ffffffffffffffff1681600101819055508273ffffffffffffffffffffffffffffffffffffffff16847f4e06b4e7000e659094299b3533b47b6aa8ad048e95e872d23d1f4ee55af89cfe8460405161290d919061560e565b60405180910390a350505050565b6000600560008473ffffffffffffffffffffffffffffffffffffffff1673ffffffffffffffffffffffffffffffffffffffff16815260200190815260200160002060008373ffffffffffffffffffffffffffffffffffffffff1673ffffffffffffffffffffffffffffffffffffffff16815260200190815260200160002060009054906101000a900460ff16905092915050565b612a016129ba6130e0565b600a85815481106129ce576129cd614ed0565b5b9060005260206000200184815481106129ea576129e9614ed0565b5b9060005260206000209060060201600101546130e8565b612a40576040517f08c379a0000000000000000000000000000000000000000000000000000000008152600401612a3790614f71565b60405180910390fd5b600a8054905083108015612a745750600a8381548110612a6357612a62614ed0565b5b906000526020600020018054905082105b612ab3576040517f08c379a0000000000000000000000000000000000000000000000000000000008152600401612aaa90614fdd565b60405180910390fd5b6000600a8481548110612ac957612ac8614ed0565b5b906000526020600020018381548110612ae557612ae4614ed0565b5b9060005260206000209060060201600101549050600073ffffffffffffffffffffffffffffffffffffffff16612b1a82612697565b73ffffffffffffffffffffffffffffffffffffffff1614612b70576040517f08c379a0000000000000000000000000000000000000000000000000000000008152600401612b6790615a66565b60405180910390fd5b81600a8581548110612b8557612b84614ed0565b5b906000526020600020018481548110612ba157612ba0614ed0565b5b906000526020600020906006020160050160016101000a81548160ff02191690831515021790555050505050565b600960009054906101000a900473ffffffffffffffffffffffffffffffffffffffff1673ffffffffffffffffffffffffffffffffffffffff163373ffffffffffffffffffffffffffffffffffffffff1614612c5f576040517f08c379a0000000000000000000000000000000000000000000000000000000008152600401612c5690615101565b60405180910390fd5b6000600a8281548110612c7557612c74614ed0565b5b906000526020600020018054905014612cc3576040517f08c379a0000000000000000000000000000000000000000000000000000000008152600401612cba906151f6565b60405180910390fd5b60008190505b6001600a8381548110612cdf57612cde614ed0565b5b9060005260206000200180549050612cf79190615150565b811015612eac57600a8281548110612d1257612d11614ed0565b5b90600052602060002001600182612d2991906155a9565b81548110612d3a57612d39614ed0565b5b9060005260206000209060060201600a8381548110612d5c57612d5b614ed0565b5b906000526020600020018281548110612d7857612d77614ed0565b5b90600052602060002090600602016000820160009054906101000a900473ffffffffffffffffffffffffffffffffffffffff168160000160006101000a81548173ffffffffffffffffffffffffffffffffffffffff021916908373ffffffffffffffffffffffffffffffffffffffff160217905550600182015481600101556002820160009054906101000a900461ffff168160020160006101000a81548161ffff021916908361ffff16021790555060038201548160030155600482015481600401556005820160009054906101000a900460ff168160050160006101000a81548160ff0219169083151502179055506005820160019054906101000a900460ff168160050160016101000a81548160ff0219169083151502179055509050508080612ea4906157e2565b915050612cc9565b50600a8181548110612ec157612ec0614ed0565b5b90600052602060002001805480612edb57612eda615216565b5b6001900381819060005260206000209060060201600080820160006101000a81549073ffffffffffffffffffffffffffffffffffffffff021916905560018201600090556002820160006101000a81549061ffff0219169055600382016000905560048201600090556005820160006101000a81549060ff02191690556005820160016101000a81549060ff02191690555050905550565b6001816000016000828254019250508190555050565b600081600001549050919050565b6000808273ffffffffffffffffffffffffffffffffffffffff163b119050919050565b60018111156130da57600073ffffffffffffffffffffffffffffffffffffffff168473ffffffffffffffffffffffffffffffffffffffff161461304e5780600360008673ffffffffffffffffffffffffffffffffffffffff1673ffffffffffffffffffffffffffffffffffffffff16815260200190815260200160002060008282546130469190615150565b925050819055505b600073ffffffffffffffffffffffffffffffffffffffff168373ffffffffffffffffffffffffffffffffffffffff16146130d95780600360008573ffffffffffffffffffffffffffffffffffffffff1673ffffffffffffffffffffffffffffffffffffffff16815260200190815260200160002060008282546130d191906155a9565b925050819055505b5b50505050565b600033905090565b6000806130f483611bc7565b90508073ffffffffffffffffffffffffffffffffffffffff168473ffffffffffffffffffffffffffffffffffffffff1614806131365750613135818561291b565b5b8061317457508373ffffffffffffffffffffffffffffffffffffffff1661315c84610bca565b73ffffffffffffffffffffffffffffffffffffffff16145b91505092915050565b60007f80ac58cd000000000000000000000000000000000000000000000000000000007bffffffffffffffffffffffffffffffffffffffffffffffffffffffff1916827bffffffffffffffffffffffffffffffffffffffffffffffffffffffff1916148061324857507f5b5e139f000000000000000000000000000000000000000000000000000000007bffffffffffffffffffffffffffffffffffffffffffffffffffffffff1916827bffffffffffffffffffffffffffffffffffffffffffffffffffffffff1916145b80613258575061325782613a21565b5b9050919050565b61326881613a8b565b6132a7576040517f08c379a000000000000000000000000000000000000000000000000000000000815260040161329e90615876565b60405180910390fd5b50565b816004600083815260200190815260200160002060006101000a81548173ffffffffffffffffffffffffffffffffffffffff021916908373ffffffffffffffffffffffffffffffffffffffff160217905550808273ffffffffffffffffffffffffffffffffffffffff1661331d83611bc7565b73ffffffffffffffffffffffffffffffffffffffff167f8c5be1e5ebec7d5bd14f71427d1e84f3dd0314c0f7b2291e5b200ac8c7c3b92560405160405180910390a45050565b8273ffffffffffffffffffffffffffffffffffffffff1661338382611bc7565b73ffffffffffffffffffffffffffffffffffffffff16146133d9576040517f08c379a00000000000000000000000000000000000000000000000000000000081526004016133d090615af8565b60405180910390fd5b600073ffffffffffffffffffffffffffffffffffffffff168273ffffffffffffffffffffffffffffffffffffffff1603613448576040517f08c379a000000000000000000000000000000000000000000000000000000000815260040161343f90615b8a565b60405180910390fd5b6134558383836001613acc565b8273ffffffffffffffffffffffffffffffffffffffff1661347582611bc7565b73ffffffffffffffffffffffffffffffffffffffff16146134cb576040517f08c379a00000000000000000000000000000000000000000000000000000000081526004016134c290615af8565b60405180910390fd5b6004600082815260200190815260200160002060006101000a81549073ffffffffffffffffffffffffffffffffffffffff02191690556001600360008573ffffffffffffffffffffffffffffffffffffffff1673ffffffffffffffffffffffffffffffffffffffff168152602001908152602001600020600082825403925050819055506001600360008473ffffffffffffffffffffffffffffffffffffffff1673ffffffffffffffffffffffffffffffffffffffff16815260200190815260200160002060008282540192505081905550816002600083815260200190815260200160002060006101000a81548173ffffffffffffffffffffffffffffffffffffffff021916908373ffffffffffffffffffffffffffffffffffffffff160217905550808273ffffffffffffffffffffffffffffffffffffffff168473ffffffffffffffffffffffffffffffffffffffff167fddf252ad1be2c89b69c2b068fc378daa952ba7f163c4a11628f55a4df523b3ef60405160405180910390a46136578383836001613c19565b505050565b613664614153565b60006040518061012001604052808460000160009054906101000a900473ffffffffffffffffffffffffffffffffffffffff1673ffffffffffffffffffffffffffffffffffffffff168152602001846001015481526020018460020160009054906101000a900461ffff1661ffff16815260200184600301548152602001846004015481526020018460050160009054906101000a900460ff16151581526020018460050160019054906101000a900460ff1615158152602001600760008660010154815260200190815260200160002060000160009054906101000a900473ffffffffffffffffffffffffffffffffffffffff1673ffffffffffffffffffffffffffffffffffffffff168152602001600760008660010154815260200190815260200160002060010154815250905080915050919050565b60006002600083815260200190815260200160002060009054906101000a900473ffffffffffffffffffffffffffffffffffffffff169050919050565b8173ffffffffffffffffffffffffffffffffffffffff168373ffffffffffffffffffffffffffffffffffffffff1603613848576040517f08c379a000000000000000000000000000000000000000000000000000000000815260040161383f90615bf6565b60405180910390fd5b80600560008573ffffffffffffffffffffffffffffffffffffffff1673ffffffffffffffffffffffffffffffffffffffff16815260200190815260200160002060008473ffffffffffffffffffffffffffffffffffffffff1673ffffffffffffffffffffffffffffffffffffffff16815260200190815260200160002060006101000a81548160ff0219169083151502179055508173ffffffffffffffffffffffffffffffffffffffff168373ffffffffffffffffffffffffffffffffffffffff167f17307eab39ab6107e8899845ad3d59bd9653f200f220920489ca2b5937696c318360405161393991906143cf565b60405180910390a3505050565b613951848484613363565b61395d84848484613c1f565b61399c576040517f08c379a000000000000000000000000000000000000000000000000000000000815260040161399390615c88565b60405180910390fd5b50505050565b606060405180602001604052806000815250905090565b60606139c48261325f565b60006139ce6139a2565b905060008151116139ee5760405180602001604052806000815250613a19565b806139f884613da6565b604051602001613a09929190615964565b6040516020818303038152906040525b915050919050565b60007f01ffc9a7000000000000000000000000000000000000000000000000000000007bffffffffffffffffffffffffffffffffffffffffffffffffffffffff1916827bffffffffffffffffffffffffffffffffffffffffffffffffffffffff1916149050919050565b60008073ffffffffffffffffffffffffffffffffffffffff16613aad8361379d565b73ffffffffffffffffffffffffffffffffffffffff1614159050919050565b613ad884848484612fba565b8273ffffffffffffffffffffffffffffffffffffffff168473ffffffffffffffffffffffffffffffffffffffff1614158015613b775750600073ffffffffffffffffffffffffffffffffffffffff166007600084815260200190815260200160002060000160009054906101000a900473ffffffffffffffffffffffffffffffffffffffff1673ffffffffffffffffffffffffffffffffffffffff1614155b15613c135760076000838152602001908152602001600020600080820160006101000a81549073ffffffffffffffffffffffffffffffffffffffff021916905560018201600090555050600073ffffffffffffffffffffffffffffffffffffffff16827f4e06b4e7000e659094299b3533b47b6aa8ad048e95e872d23d1f4ee55af89cfe6000604051613c0a9190615ced565b60405180910390a35b50505050565b50505050565b6000613c408473ffffffffffffffffffffffffffffffffffffffff16612f97565b15613d99578373ffffffffffffffffffffffffffffffffffffffff1663150b7a02613c696130e0565b8786866040518563ffffffff1660e01b8152600401613c8b9493929190615d5d565b6020604051808303816000875af1925050508015613cc757506040513d601f19601f82011682018060405250810190613cc49190615dbe565b60015b613d49573d8060008114613cf7576040519150601f19603f3d011682016040523d82523d6000602084013e613cfc565b606091505b506000815103613d41576040517f08c379a0000000000000000000000000000000000000000000000000000000008152600401613d3890615c88565b60405180910390fd5b805181602001fd5b63150b7a0260e01b7bffffffffffffffffffffffffffffffffffffffffffffffffffffffff1916817bffffffffffffffffffffffffffffffffffffffffffffffffffffffff191614915050613d9e565b600190505b949350505050565b606060006001613db584613e74565b01905060008167ffffffffffffffff811115613dd457613dd3614c8f565b5b6040519080825280601f01601f191660200182016040528015613e065781602001600182028036833780820191505090505b509050600082602001820190505b600115613e69578080600190039150507f3031323334353637383961626364656600000000000000000000000000000000600a86061a8153600a8581613e5d57613e5c615deb565b5b04945060008503613e14575b819350505050919050565b600080600090507a184f03e93ff9f4daa797ed6e38ed64bf6a1f0100000000000000008310613ed2577a184f03e93ff9f4daa797ed6e38ed64bf6a1f0100000000000000008381613ec857613ec7615deb565b5b0492506040810190505b6d04ee2d6d415b85acef81000000008310613f0f576d04ee2d6d415b85acef81000000008381613f0557613f04615deb565b5b0492506020810190505b662386f26fc100008310613f3e57662386f26fc100008381613f3457613f33615deb565b5b0492506010810190505b6305f5e1008310613f67576305f5e1008381613f5d57613f5c615deb565b5b0492506008810190505b6127108310613f8c576127108381613f8257613f81615deb565b5b0492506004810190505b60648310613faf5760648381613fa557613fa4615deb565b5b0492506002810190505b600a8310613fbe576001810190505b80915050919050565b5080546000825560060290600052602060002090810190613fe891906141d3565b50565b8280548282559060005260206000209060060281019282156141425760005260206000209160060282015b828111156141415782826000820160009054906101000a900473ffffffffffffffffffffffffffffffffffffffff168160000160006101000a81548173ffffffffffffffffffffffffffffffffffffffff021916908373ffffffffffffffffffffffffffffffffffffffff160217905550600182015481600101556002820160009054906101000a900461ffff168160020160006101000a81548161ffff021916908361ffff16021790555060038201548160030155600482015481600401556005820160009054906101000a900460ff168160050160006101000a81548160ff0219169083151502179055506005820160019054906101000a900460ff168160050160016101000a81548160ff021916908315150217905550505091600601919060060190614016565b5b50905061414f91906141d3565b5090565b604051806101200160405280600073ffffffffffffffffffffffffffffffffffffffff16815260200160008152602001600061ffff1681526020016000815260200160008152602001600015158152602001600015158152602001600073ffffffffffffffffffffffffffffffffffffffff168152602001600081525090565b5b8082111561426257600080820160006101000a81549073ffffffffffffffffffffffffffffffffffffffff021916905560018201600090556002820160006101000a81549061ffff0219169055600382016000905560048201600090556005820160006101000a81549060ff02191690556005820160016101000a81549060ff0219169055506006016141d4565b5090565b6000604051905090565b600080fd5b600080fd5b6000819050919050565b61428d8161427a565b811461429857600080fd5b50565b6000813590506142aa81614284565b92915050565b60008115159050919050565b6142c5816142b0565b81146142d057600080fd5b50565b6000813590506142e2816142bc565b92915050565b60008060006060848603121561430157614300614270565b5b600061430f8682870161429b565b93505060206143208682870161429b565b9250506040614331868287016142d3565b9150509250925092565b60007fffffffff0000000000000000000000000000000000000000000000000000000082169050919050565b6143708161433b565b811461437b57600080fd5b50565b60008135905061438d81614367565b92915050565b6000602082840312156143a9576143a8614270565b5b60006143b78482850161437e565b91505092915050565b6143c9816142b0565b82525050565b60006020820190506143e460008301846143c0565b92915050565b600081519050919050565b600082825260208201905092915050565b60005b83811015614424578082015181840152602081019050614409565b83811115614433576000848401525b50505050565b6000601f19601f8301169050919050565b6000614455826143ea565b61445f81856143f5565b935061446f818560208601614406565b61447881614439565b840191505092915050565b6000602082019050818103600083015261449d818461444a565b905092915050565b6000602082840312156144bb576144ba614270565b5b60006144c98482850161429b565b91505092915050565b600073ffffffffffffffffffffffffffffffffffffffff82169050919050565b60006144fd826144d2565b9050919050565b61450d816144f2565b82525050565b60006020820190506145286000830184614504565b92915050565b614537816144f2565b811461454257600080fd5b50565b6000813590506145548161452e565b92915050565b6000806040838503121561457157614570614270565b5b600061457f85828601614545565b92505060206145908582860161429b565b9150509250929050565b600067ffffffffffffffff82169050919050565b6145b78161459a565b81146145c257600080fd5b50565b6000813590506145d4816145ae565b92915050565b600080600080608085870312156145f4576145f3614270565b5b60006146028782880161429b565b94505060206146138782880161429b565b93505060406146248782880161429b565b9250506060614635878288016145c5565b91505092959194509250565b60008060006060848603121561465a57614659614270565b5b600061466886828701614545565b935050602061467986828701614545565b925050604061468a8682870161429b565b9150509250925092565b6000806000606084860312156146ad576146ac614270565b5b60006146bb8682870161429b565b93505060206146cc8682870161429b565b92505060406146dd8682870161429b565b9150509250925092565b600081519050919050565b600082825260208201905092915050565b6000819050602082019050919050565b61471c816144f2565b82525050565b61472b8161427a565b82525050565b600061ffff82169050919050565b61474881614731565b82525050565b614757816142b0565b82525050565b610120820160008201516147746000850182614713565b5060208201516147876020850182614722565b50604082015161479a604085018261473f565b5060608201516147ad6060850182614722565b5060808201516147c06080850182614722565b5060a08201516147d360a085018261474e565b5060c08201516147e660c085018261474e565b5060e08201516147f960e0850182614713565b5061010082015161480e610100850182614722565b50505050565b6000614820838361475d565b6101208301905092915050565b6000602082019050919050565b6000614845826146e7565b61484f81856146f2565b935061485a83614703565b8060005b8381101561488b5781516148728882614814565b975061487d8361482d565b92505060018101905061485e565b5085935050505092915050565b600060208201905081810360008301526148b2818461483a565b905092915050565b600080604083850312156148d1576148d0614270565b5b60006148df8582860161429b565b92505060206148f08582860161429b565b9150509250929050565b610120820160008201516149116000850182614713565b5060208201516149246020850182614722565b506040820151614937604085018261473f565b50606082015161494a6060850182614722565b50608082015161495d6080850182614722565b5060a082015161497060a085018261474e565b5060c082015161498360c085018261474e565b5060e082015161499660e0850182614713565b506101008201516149ab610100850182614722565b50505050565b6000610120820190506149c760008301846148fa565b92915050565b6000602082840312156149e3576149e2614270565b5b60006149f184828501614545565b91505092915050565b614a038161427a565b82525050565b6000602082019050614a1e60008301846149fa565b92915050565b600081519050919050565b600082825260208201905092915050565b6000819050602082019050919050565b600081519050919050565b600082825260208201905092915050565b6000819050602082019050919050565b60e082016000820151614a926000850182614713565b506020820151614aa56020850182614722565b506040820151614ab8604085018261473f565b506060820151614acb6060850182614722565b506080820151614ade6080850182614722565b5060a0820151614af160a085018261474e565b5060c0820151614b0460c085018261474e565b50505050565b6000614b168383614a7c565b60e08301905092915050565b6000602082019050919050565b6000614b3a82614a50565b614b448185614a5b565b9350614b4f83614a6c565b8060005b83811015614b80578151614b678882614b0a565b9750614b7283614b22565b925050600181019050614b53565b5085935050505092915050565b6000614b998383614b2f565b905092915050565b6000602082019050919050565b6000614bb982614a24565b614bc38185614a2f565b935083602082028501614bd585614a40565b8060005b85811015614c115784840389528151614bf28582614b8d565b9450614bfd83614ba1565b925060208a01995050600181019050614bd9565b50829750879550505050505092915050565b60006020820190508181036000830152614c3d8184614bae565b905092915050565b60008060408385031215614c5c57614c5b614270565b5b6000614c6a85828601614545565b9250506020614c7b858286016142d3565b9150509250929050565b600080fd5b600080fd5b7f4e487b7100000000000000000000000000000000000000000000000000000000600052604160045260246000fd5b614cc782614439565b810181811067ffffffffffffffff82111715614ce657614ce5614c8f565b5b80604052505050565b6000614cf9614266565b9050614d058282614cbe565b919050565b600067ffffffffffffffff821115614d2557614d24614c8f565b5b614d2e82614439565b9050602081019050919050565b82818337600083830152505050565b6000614d5d614d5884614d0a565b614cef565b905082815260208101848484011115614d7957614d78614c8a565b5b614d84848285614d3b565b509392505050565b600082601f830112614da157614da0614c85565b5b8135614db1848260208601614d4a565b91505092915050565b60008060008060808587031215614dd457614dd3614270565b5b6000614de287828801614545565b9450506020614df387828801614545565b9350506040614e048782880161429b565b925050606085013567ffffffffffffffff811115614e2557614e24614275565b5b614e3187828801614d8c565b91505092959194509250565b600080600060608486031215614e5657614e55614270565b5b6000614e648682870161429b565b9350506020614e7586828701614545565b9250506040614e86868287016145c5565b9150509250925092565b60008060408385031215614ea757614ea6614270565b5b6000614eb585828601614545565b9250506020614ec685828601614545565b9150509250929050565b7f4e487b7100000000000000000000000000000000000000000000000000000000600052603260045260246000fd5b7f43616c6c6572206973206e6f7420746f6b656e206f776e6572206e6f7220617060008201527f70726f7665640000000000000000000000000000000000000000000000000000602082015250565b6000614f5b6026836143f5565b9150614f6682614eff565b604082019050919050565b60006020820190508181036000830152614f8a81614f4e565b9050919050565b7f496e76616c69642053746f726500000000000000000000000000000000000000600082015250565b6000614fc7600d836143f5565b9150614fd282614f91565b602082019050919050565b60006020820190508181036000830152614ff681614fba565b9050919050565b7f53746f72652069732072656e746564206f75742e205761697420666f7220726560008201527f6e742074656e75726520746f206265206f766572206265666f72652073656c6c60208201527f696e672e00000000000000000000000000000000000000000000000000000000604082015250565b600061507f6044836143f5565b915061508a82614ffd565b606082019050919050565b600060208201905081810360008301526150ae81615072565b9050919050565b7f4e6f7420417574686f7269736564000000000000000000000000000000000000600082015250565b60006150eb600e836143f5565b91506150f6826150b5565b602082019050919050565b6000602082019050818103600083015261511a816150de565b9050919050565b7f4e487b7100000000000000000000000000000000000000000000000000000000600052601160045260246000fd5b600061515b8261427a565b91506151668361427a565b92508282101561517957615178615121565b5b828203905092915050565b7f466c6f6f72206d75737420626520656d70747920746f2062652064656c65746560008201527f6400000000000000000000000000000000000000000000000000000000000000602082015250565b60006151e06021836143f5565b91506151eb82615184565b604082019050919050565b6000602082019050818103600083015261520f816151d3565b9050919050565b7f4e487b7100000000000000000000000000000000000000000000000000000000600052603160045260246000fd5b7f4e487b7100000000000000000000000000000000000000000000000000000000600052602260045260246000fd5b6000600282049050600182168061528c57607f821691505b60208210810361529f5761529e615245565b5b50919050565b7f4552433732313a20617070726f76616c20746f2063757272656e74206f776e6560008201527f7200000000000000000000000000000000000000000000000000000000000000602082015250565b60006153016021836143f5565b915061530c826152a5565b604082019050919050565b60006020820190508181036000830152615330816152f4565b9050919050565b7f4552433732313a20617070726f76652063616c6c6572206973206e6f7420746f60008201527f6b656e206f776e6572206f7220617070726f76656420666f7220616c6c000000602082015250565b6000615393603d836143f5565b915061539e82615337565b604082019050919050565b600060208201905081810360008301526153c281615386565b9050919050565b60006153d48261427a565b91506153df8361427a565b9250817fffffffffffffffffffffffffffffffffffffffffffffffffffffffffffffffff048311821515161561541857615417615121565b5b828202905092915050565b7f496e636f727265637420616d6f756e7400000000000000000000000000000000600082015250565b60006154596010836143f5565b915061546482615423565b602082019050919050565b600060208201905081810360008301526154888161544c565b9050919050565b7f416c72656164792072656e746564000000000000000000000000000000000000600082015250565b60006154c5600e836143f5565b91506154d08261548f565b602082019050919050565b600060208201905081810360008301526154f4816154b8565b9050919050565b7f52656e74696e672064697361626c656420666f7220746865204e465400000000600082015250565b6000615531601c836143f5565b915061553c826154fb565b602082019050919050565b6000602082019050818103600083015261556081615524565b9050919050565b60006155728261459a565b915061557d8361459a565b92508167ffffffffffffffff048311821515161561559e5761559d615121565b5b828202905092915050565b60006155b48261427a565b91506155bf8361427a565b9250827fffffffffffffffffffffffffffffffffffffffffffffffffffffffffffffffff038211156155f4576155f3615121565b5b828201905092915050565b6156088161459a565b82525050565b600060208201905061562360008301846155ff565b92915050565b7f4552433732313a2063616c6c6572206973206e6f7420746f6b656e206f776e6560008201527f72206f7220617070726f76656400000000000000000000000000000000000000602082015250565b6000615685602d836143f5565b915061569082615629565b604082019050919050565b600060208201905081810360008301526156b481615678565b9050919050565b60006156c68261427a565b9150600082036156d9576156d8615121565b5b600182039050919050565b7f496e76616c696420507269636500000000000000000000000000000000000000600082015250565b600061571a600d836143f5565b9150615725826156e4565b602082019050919050565b600060208201905081810360008301526157498161570d565b9050919050565b7f54686973206c616e64206973206e6f7420617661696c626c6520666f7220736160008201527f6c652e0000000000000000000000000000000000000000000000000000000000602082015250565b60006157ac6023836143f5565b91506157b782615750565b604082019050919050565b600060208201905081810360008301526157db8161579f565b9050919050565b60006157ed8261427a565b91507fffffffffffffffffffffffffffffffffffffffffffffffffffffffffffffffff820361581f5761581e615121565b5b600182019050919050565b7f4552433732313a20696e76616c696420746f6b656e2049440000000000000000600082015250565b60006158606018836143f5565b915061586b8261582a565b602082019050919050565b6000602082019050818103600083015261588f81615853565b9050919050565b7f4552433732313a2061646472657373207a65726f206973206e6f74206120766160008201527f6c6964206f776e65720000000000000000000000000000000000000000000000602082015250565b60006158f26029836143f5565b91506158fd82615896565b604082019050919050565b60006020820190508181036000830152615921816158e5565b9050919050565b600081905092915050565b600061593e826143ea565b6159488185615928565b9350615958818560208601614406565b80840191505092915050565b60006159708285615933565b915061597c8284615933565b91508190509392505050565b7f4552433732313a207472616e736665722063616c6c6572206973206e6f74206f60008201527f776e6572206e6f7220617070726f766564000000000000000000000000000000602082015250565b60006159e46031836143f5565b91506159ef82615988565b604082019050919050565b60006020820190508181036000830152615a13816159d7565b9050919050565b7f53746f726520616c72656164792072656e746564000000000000000000000000600082015250565b6000615a506014836143f5565b9150615a5b82615a1a565b602082019050919050565b60006020820190508181036000830152615a7f81615a43565b9050919050565b7f4552433732313a207472616e736665722066726f6d20696e636f72726563742060008201527f6f776e6572000000000000000000000000000000000000000000000000000000602082015250565b6000615ae26025836143f5565b9150615aed82615a86565b604082019050919050565b60006020820190508181036000830152615b1181615ad5565b9050919050565b7f4552433732313a207472616e7366657220746f20746865207a65726f2061646460008201527f7265737300000000000000000000000000000000000000000000000000000000602082015250565b6000615b746024836143f5565b9150615b7f82615b18565b604082019050919050565b60006020820190508181036000830152615ba381615b67565b9050919050565b7f4552433732313a20617070726f766520746f2063616c6c657200000000000000600082015250565b6000615be06019836143f5565b9150615beb82615baa565b602082019050919050565b60006020820190508181036000830152615c0f81615bd3565b9050919050565b7f4552433732313a207472616e7366657220746f206e6f6e20455243373231526560008201527f63656976657220696d706c656d656e7465720000000000000000000000000000602082015250565b6000615c726032836143f5565b9150615c7d82615c16565b604082019050919050565b60006020820190508181036000830152615ca181615c65565b9050919050565b6000819050919050565b6000819050919050565b6000615cd7615cd2615ccd84615ca8565b615cb2565b61459a565b9050919050565b615ce781615cbc565b82525050565b6000602082019050615d026000830184615cde565b92915050565b600081519050919050565b600082825260208201905092915050565b6000615d2f82615d08565b615d398185615d13565b9350615d49818560208601614406565b615d5281614439565b840191505092915050565b6000608082019050615d726000830187614504565b615d7f6020830186614504565b615d8c60408301856149fa565b8181036060830152615d9e8184615d24565b905095945050505050565b600081519050615db881614367565b92915050565b600060208284031215615dd457615dd3614270565b5b6000615de284828501615da9565b91505092915050565b7f4e487b7100000000000000000000000000000000000000000000000000000000600052601260045260246000fdfea2646970667358221220dcf61dbda01ddbe514ac90edcf048daa9c538e317e808d3d239abedd80ce71a764736f6c634300080e0033",
  "immutableReferences": {},
  "source": "// SPDX-License-Identifier: UNLICENSED\r\npragma solidity ^0.8.0;\r\n\r\nimport \"./ERC4907.sol\";\r\nimport \"../node_modules/@openzeppelin/contracts/utils/Counters.sol\";\r\n\r\ncontract MetaMall is ERC4907 {\r\n    using Counters for Counters.Counter;\r\n    Counters.Counter private currentTokenId;\r\n\r\n    address contractOwner;\r\n    \r\n    struct Store {\r\n        address owner;\r\n        uint256 tokenId;\r\n        uint16 storeNumber;\r\n        uint256 price; ///price per month\r\n        uint256 rent;\r\n        bool isSaleable;\r\n        bool isRentable;\r\n    }\r\n\r\n    struct StoreDetails {\r\n        address owner;\r\n        uint256 tokenId;\r\n        uint16 storeNumber;\r\n        uint256 price; //wei currency\r\n        uint256 rent;\r\n        bool isSaleable; //sale rent owned\r\n        bool isRentable;\r\n        address user;\r\n        uint256 expires;\r\n    }\r\n\r\n    Store[][] stores;\r\n\r\n    function getStoreDetails(\r\n        Store storage store\r\n    ) internal view returns (StoreDetails memory) {\r\n        StoreDetails memory s = StoreDetails({\r\n            owner: store.owner,\r\n            tokenId: store.tokenId,\r\n            storeNumber: store.storeNumber,\r\n            price: store.price,\r\n            rent: store.rent,\r\n            isSaleable: store.isSaleable,\r\n            isRentable: store.isRentable,\r\n            user: _users[store.tokenId].user,\r\n            expires: _users[store.tokenId].expires\r\n        });\r\n        return s;\r\n    }\r\n\r\n    function mint() internal returns (uint256) {\r\n        currentTokenId.increment();\r\n        uint256 newItemId = currentTokenId.current();\r\n        _safeMint(contractOwner, newItemId);\r\n        return newItemId;\r\n    }\r\n\r\n    constructor() ERC4907(\"MetaMall Shops\", \"LL\") {\r\n        contractOwner = msg.sender;\r\n\r\n        //Floors\r\n        stores.push();\r\n        stores.push();\r\n        stores.push();\r\n        stores.push();\r\n        stores.push();\r\n\r\n        //Floor 0\r\n        for (uint16 i = 0; i < 32; i++) {\r\n            stores[0].push(\r\n                Store(\r\n                    contractOwner,\r\n                    mint(),\r\n                    i,\r\n                    100000000000000000,\r\n                    0,\r\n                    true,\r\n                    false\r\n                )\r\n            );\r\n        }\r\n\r\n        //Floor 1\r\n        for (uint16 i = 0; i < 32; i++) {\r\n            stores[1].push(\r\n                Store(\r\n                    contractOwner,\r\n                    mint(),\r\n                    i + uint16(stores[0].length),\r\n                    100000000000000000,\r\n                    0,\r\n                    true,\r\n                    false\r\n                )\r\n            );\r\n        }\r\n\r\n    }\r\n\r\n    //--------------- F L O O R   M A N A G E M E N T ----------------\r\n\r\n    function removeFloor() public {\r\n        require(msg.sender == contractOwner, \"Not Authorised\");\r\n        require(\r\n            stores[stores.length - 1].length == 0,\r\n            \"Floor must be empty to be deleted\"\r\n        );\r\n\r\n        stores.pop();\r\n    }\r\n\r\n    function addFloor() public {\r\n        require(msg.sender == contractOwner, \"Not Authorised\");\r\n        stores.push();\r\n    }\r\n\r\n    function addFloorAtIndex(uint index) public {\r\n        //GAS EXPENSIVE\r\n        require(msg.sender == contractOwner, \"Not Authorised\");\r\n\r\n        stores.push();\r\n        for (uint i = stores.length - 1; i > index; i--) {\r\n            stores[i] = stores[i - 1];\r\n        }\r\n\r\n        delete stores[index];\r\n    }\r\n\r\n    function removeFloorAtIndex(uint index) public {\r\n        require(msg.sender == contractOwner, \"Not Authorised\");\r\n        require(stores[index].length == 0, \"Floor must be empty to be deleted\");\r\n\r\n        for (uint i = index; i < stores[index].length - 1; i++) {\r\n            stores[index][i] = stores[index][i + 1];\r\n        }\r\n        stores[index].pop();\r\n    }\r\n\r\n    // ------------- G E T T E R   V I E W   F U N C T I O N S -----------------\r\n\r\n    function getStore(\r\n        uint floor,\r\n        uint index\r\n    ) public view returns (StoreDetails memory) {\r\n        require(\r\n            floor < stores.length && index < stores[floor].length,\r\n            \"Invalid Store\"\r\n        );\r\n        return getStoreDetails(stores[floor][index]);\r\n    }\r\n\r\n    function getAllStores() public view returns (Store[][] memory) {\r\n        return stores;\r\n    }\r\n\r\n    function getOwnedStores(\r\n        address owner\r\n    ) public view returns (StoreDetails[] memory) {\r\n        uint count = 0;\r\n        uint index = 0;\r\n\r\n        StoreDetails[] memory owned;\r\n        for (uint i = 0; i < stores.length; i++) {\r\n            for (uint j = 0; j < stores[i].length; j++) {\r\n                if (stores[i][j].owner == owner) {\r\n                    count++;\r\n                }\r\n            }\r\n        }\r\n\r\n        owned = new StoreDetails[](count);\r\n        for (uint i = 0; i < stores.length; i++) {\r\n            for (uint j = 0; j < stores[i].length; j++) {\r\n                if (stores[i][j].owner == owner) {\r\n                    owned[index++] = getStoreDetails(stores[i][j]);\r\n                }\r\n            }\r\n        }\r\n        return owned;\r\n    }\r\n\r\n    function getRentedStores() public view returns (StoreDetails[] memory) {\r\n        uint count = 0;\r\n        uint index = 0;\r\n\r\n        StoreDetails[] memory rented;\r\n        for (uint i = 0; i < stores.length; i++) {\r\n            for (uint j = 0; j < stores[i].length; j++) {\r\n                if (userOf(stores[i][j].tokenId) != address(0)) {\r\n                    count++;\r\n                }\r\n            }\r\n        }\r\n\r\n        rented = new StoreDetails[](count);\r\n        for (uint i = 0; i < stores.length; i++) {\r\n            for (uint j = 0; j < stores[i].length; j++) {\r\n                if (userOf(stores[i][j].tokenId) != address(0)) {\r\n                    rented[index++] = getStoreDetails(stores[i][j]);\r\n                }\r\n            }\r\n        }\r\n        return rented;\r\n    }\r\n\r\n    function getAvailableStores() public view returns (StoreDetails[] memory) {\r\n        uint count = 0;\r\n        uint index = 0;\r\n\r\n        StoreDetails[] memory available;\r\n        for (uint i = 0; i < stores.length; i++) {\r\n            for (uint j = 0; j < stores[i].length; j++) {\r\n                if (stores[i][j].isSaleable || stores[i][j].isRentable) {\r\n                    count++;\r\n                }\r\n            }\r\n        }\r\n\r\n        available = new StoreDetails[](count);\r\n        for (uint i = 0; i < stores.length; i++) {\r\n            for (uint j = 0; j < stores[i].length; j++) {\r\n                if (stores[i][j].isSaleable || stores[i][j].isRentable) {\r\n                    available[index++] = getStoreDetails(stores[i][j]);\r\n                }\r\n            }\r\n        }\r\n        return available;\r\n    }\r\n\r\n    // ----------------- S H O P   N F T   M A N A G E M E N T -----------------\r\n\r\n    function setRentFee( uint floor, uint storeNumber, uint256 _amountPerMonth ) public {\r\n        require(\r\n            _isApprovedOrOwner(\r\n                _msgSender(),\r\n                stores[floor][storeNumber].tokenId\r\n            ),\r\n            \"Caller is not token owner nor approved\"\r\n        );\r\n        require(_amountPerMonth > 0, \"Invalid Price\");\r\n        stores[floor][storeNumber].rent = _amountPerMonth;\r\n    }\r\n\r\n    function setPrice(uint floor, uint storeNumber, uint256 _price) public {\r\n        require(\r\n            _isApprovedOrOwner(\r\n                _msgSender(),\r\n                stores[floor][storeNumber].tokenId\r\n            ),\r\n            \"Caller is not token owner nor approved\"\r\n        );\r\n        require(_price > 0, \"Invalid Price\");\r\n        stores[floor][storeNumber].price = _price;\r\n    }\r\n\r\n    function setRentable(uint floor, uint storeNumber, bool _rentable) public {\r\n        require(\r\n            _isApprovedOrOwner(\r\n                _msgSender(),\r\n                stores[floor][storeNumber].tokenId\r\n            ),\r\n            \"Caller is not token owner nor approved\"\r\n        );\r\n        require(\r\n            floor < stores.length && storeNumber < stores[floor].length,\r\n            \"Invalid Store\"\r\n        );\r\n\r\n        uint256 tokenId = stores[floor][storeNumber].tokenId;\r\n\r\n        require(userOf(tokenId) == address(0), \"Store already rented\");\r\n        stores[floor][storeNumber].isRentable = _rentable;\r\n    }\r\n\r\n    function setSaleable(uint floor, uint storeNumber, bool _saleable) public {\r\n        require(\r\n            _isApprovedOrOwner(\r\n                _msgSender(),\r\n                stores[floor][storeNumber].tokenId\r\n            ),\r\n            \"Caller is not token owner nor approved\"\r\n        );\r\n        require(\r\n            floor < stores.length && storeNumber < stores[floor].length,\r\n            \"Invalid Store\"\r\n        );\r\n\r\n        uint256 tokenId = stores[floor][storeNumber].tokenId;\r\n        require(\r\n            userOf(tokenId) == address(0),\r\n            \"Store is rented out. Wait for rent tenure to be over before selling.\"\r\n        );\r\n\r\n        stores[floor][storeNumber].isSaleable = _saleable;\r\n    }\r\n\r\n    function rent( uint floor,uint storeNumber, uint256 _tokenId, uint64 month) public payable virtual {\r\n        require(\r\n            floor < stores.length && storeNumber < stores[floor].length,\r\n            \"Invalid Store\"\r\n        );\r\n\r\n        uint256 dueAmount = stores[floor][storeNumber].rent * month;\r\n        require(msg.value == dueAmount, \"Incorrect amount\");\r\n        require(userOf(_tokenId) == address(0), \"Already rented\");\r\n        require(\r\n            stores[floor][storeNumber].isRentable,\r\n            \"Renting disabled for the NFT\"\r\n        );\r\n\r\n        payable(ownerOf(_tokenId)).transfer(dueAmount);\r\n        UserInfo storage info = _users[_tokenId];\r\n        info.user = msg.sender;\r\n        uint64 timeInSeconds = month * 2629746;\r\n        info.expires = uint256(block.timestamp) + timeInSeconds; //convert months to seconds\r\n\r\n        emit UpdateUser(_tokenId, msg.sender, timeInSeconds);\r\n        stores[floor][storeNumber].isRentable = false;\r\n        stores[floor][storeNumber].isSaleable = false;\r\n    }\r\n\r\n    function buy(uint floor, uint storeNumber, uint256 _tokenId) public payable {\r\n        require(floor < stores.length && storeNumber < stores[floor].length, \"Invalid Store\");\r\n\r\n        require(stores[floor][storeNumber].isSaleable == true, \"This land is not availble for sale.\");\r\n        require(msg.value >= stores[floor][storeNumber].price, \"Incorrect amount\");\r\n\r\n        payable(ownerOf(_tokenId)).transfer(stores[floor][storeNumber].price);\r\n        stores[floor][storeNumber].isSaleable = false;\r\n        stores[floor][storeNumber].isRentable = false;\r\n\r\n        safeTransferFrom(stores[floor][storeNumber].owner, msg.sender, stores[floor][storeNumber].tokenId);\r\n    }\r\n}\r\n",
  "sourcePath": "F:\\Notes\\FYP\\MetaMall-FE\\contracts\\MetaMall.sol",
  "compiler": {
    "name": "solc",
    "version": "0.8.14+commit.80d49f37.Emscripten.clang"
  },
  "schemaVersion": "3.4.14",
  "updatedAt": "2023-06-11T14:12:58.684Z",
  "networkType": "ethereum",
  "devdoc": {
    "kind": "dev",
    "methods": {
      "approve(address,uint256)": {
        "details": "See {IERC721-approve}."
      },
      "balanceOf(address)": {
        "details": "See {IERC721-balanceOf}."
      },
      "getApproved(uint256)": {
        "details": "See {IERC721-getApproved}."
      },
      "isApprovedForAll(address,address)": {
        "details": "See {IERC721-isApprovedForAll}."
      },
      "name()": {
        "details": "See {IERC721Metadata-name}."
      },
      "ownerOf(uint256)": {
        "details": "See {IERC721-ownerOf}."
      },
      "safeTransferFrom(address,address,uint256)": {
        "details": "See {IERC721-safeTransferFrom}."
      },
      "safeTransferFrom(address,address,uint256,bytes)": {
        "details": "See {IERC721-safeTransferFrom}."
      },
      "setApprovalForAll(address,bool)": {
        "details": "See {IERC721-setApprovalForAll}."
      },
      "setUser(uint256,address,uint64)": {
        "details": "The zero address indicates there is no user Throws if `tokenId` is not valid NFT",
        "params": {
          "expires": "UNIX timestamp, The new user could use the NFT before expires",
          "user": "The new user of the NFT"
        }
      },
      "supportsInterface(bytes4)": {
        "details": "See {IERC165-supportsInterface}."
      },
      "symbol()": {
        "details": "See {IERC721Metadata-symbol}."
      },
      "tokenURI(uint256)": {
        "details": "See {IERC721Metadata-tokenURI}."
      },
      "transferFrom(address,address,uint256)": {
        "details": "See {IERC721-transferFrom}."
      },
      "userExpires(uint256)": {
        "details": "The zero value indicates that there is no user",
        "params": {
          "tokenId": "The NFT to get the user expires for"
        },
        "returns": {
          "_0": "The user expires for this NFT"
        }
      },
      "userOf(uint256)": {
        "details": "The zero address indicates that there is no user or the user is expired",
        "params": {
          "tokenId": "The NFT to get the user address for"
        },
        "returns": {
          "_0": "The user address for this NFT"
        }
      }
    },
    "version": 1
  },
  "userdoc": {
    "events": {
      "UpdateUser(uint256,address,uint64)": {
        "notice": "Emitted when the `user` of an NFT or the `expires` of the `user` is changed The zero address for user indicates that there is no user address"
      }
    },
    "kind": "user",
    "methods": {
      "setUser(uint256,address,uint64)": {
        "notice": "set the user and expires of a NFT"
      },
      "userExpires(uint256)": {
        "notice": "Get the user expires of an NFT"
      },
      "userOf(uint256)": {
        "notice": "Get the user address of an NFT"
      }
    },
    "version": 1
  }
}