{
  "contractName": "MetaMall",
  "abi": [
    {
      "inputs": [],
      "stateMutability": "nonpayable",
      "type": "constructor"
    },
    {
      "anonymous": false,
      "inputs": [
        {
          "indexed": true,
          "internalType": "address",
          "name": "owner",
          "type": "address"
        },
        {
          "indexed": true,
          "internalType": "address",
          "name": "approved",
          "type": "address"
        },
        {
          "indexed": true,
          "internalType": "uint256",
          "name": "tokenId",
          "type": "uint256"
        }
      ],
      "name": "Approval",
      "type": "event"
    },
    {
      "anonymous": false,
      "inputs": [
        {
          "indexed": true,
          "internalType": "address",
          "name": "owner",
          "type": "address"
        },
        {
          "indexed": true,
          "internalType": "address",
          "name": "operator",
          "type": "address"
        },
        {
          "indexed": false,
          "internalType": "bool",
          "name": "approved",
          "type": "bool"
        }
      ],
      "name": "ApprovalForAll",
      "type": "event"
    },
    {
      "anonymous": false,
      "inputs": [
        {
          "indexed": true,
          "internalType": "address",
          "name": "from",
          "type": "address"
        },
        {
          "indexed": true,
          "internalType": "address",
          "name": "to",
          "type": "address"
        },
        {
          "indexed": true,
          "internalType": "uint256",
          "name": "tokenId",
          "type": "uint256"
        }
      ],
      "name": "Transfer",
      "type": "event"
    },
    {
      "anonymous": false,
      "inputs": [
        {
          "indexed": true,
          "internalType": "uint256",
          "name": "tokenId",
          "type": "uint256"
        },
        {
          "indexed": true,
          "internalType": "address",
          "name": "user",
          "type": "address"
        },
        {
          "indexed": false,
          "internalType": "uint64",
          "name": "expires",
          "type": "uint64"
        }
      ],
      "name": "UpdateUser",
      "type": "event"
    },
    {
      "inputs": [
        {
          "internalType": "address",
          "name": "to",
          "type": "address"
        },
        {
          "internalType": "uint256",
          "name": "tokenId",
          "type": "uint256"
        }
      ],
      "name": "approve",
      "outputs": [],
      "stateMutability": "nonpayable",
      "type": "function"
    },
    {
      "inputs": [
        {
          "internalType": "address",
          "name": "owner",
          "type": "address"
        }
      ],
      "name": "balanceOf",
      "outputs": [
        {
          "internalType": "uint256",
          "name": "",
          "type": "uint256"
        }
      ],
      "stateMutability": "view",
      "type": "function",
      "constant": true
    },
    {
      "inputs": [
        {
          "internalType": "uint256",
          "name": "tokenId",
          "type": "uint256"
        }
      ],
      "name": "getApproved",
      "outputs": [
        {
          "internalType": "address",
          "name": "",
          "type": "address"
        }
      ],
      "stateMutability": "view",
      "type": "function",
      "constant": true
    },
    {
      "inputs": [
        {
          "internalType": "address",
          "name": "owner",
          "type": "address"
        },
        {
          "internalType": "address",
          "name": "operator",
          "type": "address"
        }
      ],
      "name": "isApprovedForAll",
      "outputs": [
        {
          "internalType": "bool",
          "name": "",
          "type": "bool"
        }
      ],
      "stateMutability": "view",
      "type": "function",
      "constant": true
    },
    {
      "inputs": [],
      "name": "name",
      "outputs": [
        {
          "internalType": "string",
          "name": "",
          "type": "string"
        }
      ],
      "stateMutability": "view",
      "type": "function",
      "constant": true
    },
    {
      "inputs": [
        {
          "internalType": "uint256",
          "name": "tokenId",
          "type": "uint256"
        }
      ],
      "name": "ownerOf",
      "outputs": [
        {
          "internalType": "address",
          "name": "",
          "type": "address"
        }
      ],
      "stateMutability": "view",
      "type": "function",
      "constant": true
    },
    {
      "inputs": [
        {
          "internalType": "address",
          "name": "from",
          "type": "address"
        },
        {
          "internalType": "address",
          "name": "to",
          "type": "address"
        },
        {
          "internalType": "uint256",
          "name": "tokenId",
          "type": "uint256"
        }
      ],
      "name": "safeTransferFrom",
      "outputs": [],
      "stateMutability": "nonpayable",
      "type": "function"
    },
    {
      "inputs": [
        {
          "internalType": "address",
          "name": "from",
          "type": "address"
        },
        {
          "internalType": "address",
          "name": "to",
          "type": "address"
        },
        {
          "internalType": "uint256",
          "name": "tokenId",
          "type": "uint256"
        },
        {
          "internalType": "bytes",
          "name": "data",
          "type": "bytes"
        }
      ],
      "name": "safeTransferFrom",
      "outputs": [],
      "stateMutability": "nonpayable",
      "type": "function"
    },
    {
      "inputs": [
        {
          "internalType": "address",
          "name": "operator",
          "type": "address"
        },
        {
          "internalType": "bool",
          "name": "approved",
          "type": "bool"
        }
      ],
      "name": "setApprovalForAll",
      "outputs": [],
      "stateMutability": "nonpayable",
      "type": "function"
    },
    {
      "inputs": [
        {
          "internalType": "uint256",
          "name": "tokenId",
          "type": "uint256"
        },
        {
          "internalType": "address",
          "name": "user",
          "type": "address"
        },
        {
          "internalType": "uint64",
          "name": "expires",
          "type": "uint64"
        }
      ],
      "name": "setUser",
      "outputs": [],
      "stateMutability": "nonpayable",
      "type": "function"
    },
    {
      "inputs": [
        {
          "internalType": "bytes4",
          "name": "interfaceId",
          "type": "bytes4"
        }
      ],
      "name": "supportsInterface",
      "outputs": [
        {
          "internalType": "bool",
          "name": "",
          "type": "bool"
        }
      ],
      "stateMutability": "view",
      "type": "function",
      "constant": true
    },
    {
      "inputs": [],
      "name": "symbol",
      "outputs": [
        {
          "internalType": "string",
          "name": "",
          "type": "string"
        }
      ],
      "stateMutability": "view",
      "type": "function",
      "constant": true
    },
    {
      "inputs": [
        {
          "internalType": "uint256",
          "name": "tokenId",
          "type": "uint256"
        }
      ],
      "name": "tokenURI",
      "outputs": [
        {
          "internalType": "string",
          "name": "",
          "type": "string"
        }
      ],
      "stateMutability": "view",
      "type": "function",
      "constant": true
    },
    {
      "inputs": [
        {
          "internalType": "address",
          "name": "from",
          "type": "address"
        },
        {
          "internalType": "address",
          "name": "to",
          "type": "address"
        },
        {
          "internalType": "uint256",
          "name": "tokenId",
          "type": "uint256"
        }
      ],
      "name": "transferFrom",
      "outputs": [],
      "stateMutability": "nonpayable",
      "type": "function"
    },
    {
      "inputs": [
        {
          "internalType": "uint256",
          "name": "tokenId",
          "type": "uint256"
        }
      ],
      "name": "userExpires",
      "outputs": [
        {
          "internalType": "uint256",
          "name": "",
          "type": "uint256"
        }
      ],
      "stateMutability": "view",
      "type": "function",
      "constant": true
    },
    {
      "inputs": [
        {
          "internalType": "uint256",
          "name": "tokenId",
          "type": "uint256"
        }
      ],
      "name": "userOf",
      "outputs": [
        {
          "internalType": "address",
          "name": "",
          "type": "address"
        }
      ],
      "stateMutability": "view",
      "type": "function",
      "constant": true
    },
    {
      "inputs": [],
      "name": "removeFloor",
      "outputs": [],
      "stateMutability": "nonpayable",
      "type": "function"
    },
    {
      "inputs": [],
      "name": "addFloor",
      "outputs": [],
      "stateMutability": "nonpayable",
      "type": "function"
    },
    {
      "inputs": [
        {
          "internalType": "uint256",
          "name": "index",
          "type": "uint256"
        }
      ],
      "name": "addFloorAtIndex",
      "outputs": [],
      "stateMutability": "nonpayable",
      "type": "function"
    },
    {
      "inputs": [
        {
          "internalType": "uint256",
          "name": "index",
          "type": "uint256"
        }
      ],
      "name": "removeFloorAtIndex",
      "outputs": [],
      "stateMutability": "nonpayable",
      "type": "function"
    },
    {
      "inputs": [
        {
          "internalType": "uint256",
          "name": "floor",
          "type": "uint256"
        },
        {
          "internalType": "uint256",
          "name": "index",
          "type": "uint256"
        }
      ],
      "name": "getStore",
      "outputs": [
        {
          "components": [
            {
              "internalType": "address",
              "name": "owner",
              "type": "address"
            },
            {
              "internalType": "uint256",
              "name": "tokenId",
              "type": "uint256"
            },
            {
              "internalType": "uint16",
              "name": "storeNumber",
              "type": "uint16"
            },
            {
              "internalType": "uint256",
              "name": "price",
              "type": "uint256"
            },
            {
              "internalType": "uint256",
              "name": "rent",
              "type": "uint256"
            },
            {
              "internalType": "bool",
              "name": "isSaleable",
              "type": "bool"
            },
            {
              "internalType": "bool",
              "name": "isRentable",
              "type": "bool"
            },
            {
              "internalType": "address",
              "name": "user",
              "type": "address"
            },
            {
              "internalType": "uint256",
              "name": "expires",
              "type": "uint256"
            }
          ],
          "internalType": "struct MetaMall.StoreDetails",
          "name": "",
          "type": "tuple"
        }
      ],
      "stateMutability": "view",
      "type": "function",
      "constant": true
    },
    {
      "inputs": [
        {
          "components": [
            {
              "internalType": "address",
              "name": "owner",
              "type": "address"
            },
            {
              "internalType": "uint256",
              "name": "tokenId",
              "type": "uint256"
            },
            {
              "internalType": "uint16",
              "name": "storeNumber",
              "type": "uint16"
            },
            {
              "internalType": "uint256",
              "name": "price",
              "type": "uint256"
            },
            {
              "internalType": "uint256",
              "name": "rent",
              "type": "uint256"
            },
            {
              "internalType": "bool",
              "name": "isSaleable",
              "type": "bool"
            },
            {
              "internalType": "bool",
              "name": "isRentable",
              "type": "bool"
            }
          ],
          "internalType": "struct MetaMall.Store",
          "name": "store",
          "type": "tuple"
        }
      ],
      "name": "getStoreDetails",
      "outputs": [
        {
          "components": [
            {
              "internalType": "address",
              "name": "owner",
              "type": "address"
            },
            {
              "internalType": "uint256",
              "name": "tokenId",
              "type": "uint256"
            },
            {
              "internalType": "uint16",
              "name": "storeNumber",
              "type": "uint16"
            },
            {
              "internalType": "uint256",
              "name": "price",
              "type": "uint256"
            },
            {
              "internalType": "uint256",
              "name": "rent",
              "type": "uint256"
            },
            {
              "internalType": "bool",
              "name": "isSaleable",
              "type": "bool"
            },
            {
              "internalType": "bool",
              "name": "isRentable",
              "type": "bool"
            },
            {
              "internalType": "address",
              "name": "user",
              "type": "address"
            },
            {
              "internalType": "uint256",
              "name": "expires",
              "type": "uint256"
            }
          ],
          "internalType": "struct MetaMall.StoreDetails",
          "name": "",
          "type": "tuple"
        }
      ],
      "stateMutability": "view",
      "type": "function",
      "constant": true
    },
    {
      "inputs": [],
      "name": "getAllStores",
      "outputs": [
        {
          "components": [
            {
              "internalType": "address",
              "name": "owner",
              "type": "address"
            },
            {
              "internalType": "uint256",
              "name": "tokenId",
              "type": "uint256"
            },
            {
              "internalType": "uint16",
              "name": "storeNumber",
              "type": "uint16"
            },
            {
              "internalType": "uint256",
              "name": "price",
              "type": "uint256"
            },
            {
              "internalType": "uint256",
              "name": "rent",
              "type": "uint256"
            },
            {
              "internalType": "bool",
              "name": "isSaleable",
              "type": "bool"
            },
            {
              "internalType": "bool",
              "name": "isRentable",
              "type": "bool"
            }
          ],
          "internalType": "struct MetaMall.Store[][]",
          "name": "",
          "type": "tuple[][]"
        }
      ],
      "stateMutability": "view",
      "type": "function",
      "constant": true
    },
    {
      "inputs": [
        {
          "internalType": "address",
          "name": "owner",
          "type": "address"
        }
      ],
      "name": "getOwnedStores",
      "outputs": [
        {
          "components": [
            {
              "internalType": "address",
              "name": "owner",
              "type": "address"
            },
            {
              "internalType": "uint256",
              "name": "tokenId",
              "type": "uint256"
            },
            {
              "internalType": "uint16",
              "name": "storeNumber",
              "type": "uint16"
            },
            {
              "internalType": "uint256",
              "name": "price",
              "type": "uint256"
            },
            {
              "internalType": "uint256",
              "name": "rent",
              "type": "uint256"
            },
            {
              "internalType": "bool",
              "name": "isSaleable",
              "type": "bool"
            },
            {
              "internalType": "bool",
              "name": "isRentable",
              "type": "bool"
            },
            {
              "internalType": "address",
              "name": "user",
              "type": "address"
            },
            {
              "internalType": "uint256",
              "name": "expires",
              "type": "uint256"
            }
          ],
          "internalType": "struct MetaMall.StoreDetails[]",
          "name": "",
          "type": "tuple[]"
        }
      ],
      "stateMutability": "view",
      "type": "function",
      "constant": true
    },
    {
      "inputs": [
        {
          "internalType": "uint256",
          "name": "floor",
          "type": "uint256"
        },
        {
          "internalType": "uint256",
          "name": "storeNumber",
          "type": "uint256"
        },
        {
          "internalType": "uint256",
          "name": "_amountPerMonth",
          "type": "uint256"
        }
      ],
      "name": "setRentFee",
      "outputs": [],
      "stateMutability": "nonpayable",
      "type": "function"
    },
    {
      "inputs": [
        {
          "internalType": "uint256",
          "name": "floor",
          "type": "uint256"
        },
        {
          "internalType": "uint256",
          "name": "storeNumber",
          "type": "uint256"
        },
        {
          "internalType": "uint256",
          "name": "_price",
          "type": "uint256"
        }
      ],
      "name": "setPrice",
      "outputs": [],
      "stateMutability": "nonpayable",
      "type": "function"
    },
    {
      "inputs": [
        {
          "internalType": "uint256",
          "name": "floor",
          "type": "uint256"
        },
        {
          "internalType": "uint256",
          "name": "storeNumber",
          "type": "uint256"
        },
        {
          "internalType": "bool",
          "name": "_rentable",
          "type": "bool"
        }
      ],
      "name": "setRentable",
      "outputs": [],
      "stateMutability": "nonpayable",
      "type": "function"
    },
    {
      "inputs": [
        {
          "internalType": "uint256",
          "name": "floor",
          "type": "uint256"
        },
        {
          "internalType": "uint256",
          "name": "storeNumber",
          "type": "uint256"
        },
        {
          "internalType": "bool",
          "name": "_saleable",
          "type": "bool"
        }
      ],
      "name": "setSaleable",
      "outputs": [],
      "stateMutability": "nonpayable",
      "type": "function"
    },
    {
      "inputs": [
        {
          "internalType": "uint256",
          "name": "floor",
          "type": "uint256"
        },
        {
          "internalType": "uint256",
          "name": "storeNumber",
          "type": "uint256"
        },
        {
          "internalType": "uint256",
          "name": "_tokenId",
          "type": "uint256"
        },
        {
          "internalType": "uint64",
          "name": "month",
          "type": "uint64"
        }
      ],
      "name": "rent",
      "outputs": [],
      "stateMutability": "payable",
      "type": "function",
      "payable": true
    },
    {
      "inputs": [
        {
          "internalType": "uint256",
          "name": "floor",
          "type": "uint256"
        },
        {
          "internalType": "uint256",
          "name": "storeNumber",
          "type": "uint256"
        },
        {
          "internalType": "uint256",
          "name": "_tokenId",
          "type": "uint256"
        }
      ],
      "name": "buy",
      "outputs": [],
      "stateMutability": "payable",
      "type": "function",
      "payable": true
    }
  ],
  "bytecode": "0x60806040523480156200001157600080fd5b506040518060400160405280600e81526020017f4d6574614d616c6c2053686f70730000000000000000000000000000000000008152506040518060400160405280600281526020017f4c4c000000000000000000000000000000000000000000000000000000000000815250818181600090805190602001906200009892919062000f12565b508060019080519060200190620000b192919062000f12565b505050505033600960006101000a81548173ffffffffffffffffffffffffffffffffffffffff021916908373ffffffffffffffffffffffffffffffffffffffff160217905550600a600181600181540180825580915050039060005260206000205050600a600181600181540180825580915050039060005260206000205050600a600181600181540180825580915050039060005260206000205050600a600181600181540180825580915050039060005260206000205050600a60018160018154018082558091505003906000526020600020505060005b60208161ffff1610156200032f57600a600081548110620001b157620001b062000fc2565b5b906000526020600020016040518060e001604052803073ffffffffffffffffffffffffffffffffffffffff168152602001620001f26200052360201b60201c565b81526020018361ffff16815260200167016345785d8a000081526020016000815260200160011515815260200160001515815250908060018154018082558091505060019003906000526020600020906006020160009091909190915060008201518160000160006101000a81548173ffffffffffffffffffffffffffffffffffffffff021916908373ffffffffffffffffffffffffffffffffffffffff1602179055506020820151816001015560408201518160020160006101000a81548161ffff021916908361ffff160217905550606082015181600301556080820151816004015560a08201518160050160006101000a81548160ff02191690831515021790555060c08201518160050160016101000a81548160ff0219169083151502179055505050808062000326906200102e565b9150506200018b565b5060005b60208161ffff1610156200050957600a60018154811062000359576200035862000fc2565b5b906000526020600020016040518060e001604052803073ffffffffffffffffffffffffffffffffffffffff1681526020016200039a6200052360201b60201c565b8152602001600a600081548110620003b757620003b662000fc2565b5b906000526020600020018054905084620003d291906200105d565b61ffff16815260200167016345785d8a000081526020016000815260200160011515815260200160001515815250908060018154018082558091505060019003906000526020600020906006020160009091909190915060008201518160000160006101000a81548173ffffffffffffffffffffffffffffffffffffffff021916908373ffffffffffffffffffffffffffffffffffffffff1602179055506020820151816001015560408201518160020160006101000a81548161ffff021916908361ffff160217905550606082015181600301556080820151816004015560a08201518160050160006101000a81548160ff02191690831515021790555060c08201518160050160016101000a81548160ff0219169083151502179055505050808062000500906200102e565b91505062000333565b506200051d3060016200059260201b60201c565b6200163b565b60006200053c6008620005b860201b62002dd21760201c565b6000620005556008620005ce60201b62002de81760201c565b90506200058b600960009054906101000a900473ffffffffffffffffffffffffffffffffffffffff1682620005dc60201b60201c565b8091505090565b620005b4620005a66200060260201b60201c565b83836200060a60201b60201c565b5050565b6001816000016000828254019250508190555050565b600081600001549050919050565b620005fe8282604051806020016040528060008152506200077b60201b60201c565b5050565b600033905090565b8173ffffffffffffffffffffffffffffffffffffffff168373ffffffffffffffffffffffffffffffffffffffff16036200067b576040517f08c379a00000000000000000000000000000000000000000000000000000000081526004016200067290620010fd565b60405180910390fd5b80600560008573ffffffffffffffffffffffffffffffffffffffff1673ffffffffffffffffffffffffffffffffffffffff16815260200190815260200160002060008473ffffffffffffffffffffffffffffffffffffffff1673ffffffffffffffffffffffffffffffffffffffff16815260200190815260200160002060006101000a81548160ff0219169083151502179055508173ffffffffffffffffffffffffffffffffffffffff168373ffffffffffffffffffffffffffffffffffffffff167f17307eab39ab6107e8899845ad3d59bd9653f200f220920489ca2b5937696c31836040516200076e91906200113c565b60405180910390a3505050565b6200078d8383620007e960201b60201c565b620007a2600084848462000a2f60201b60201c565b620007e4576040517f08c379a0000000000000000000000000000000000000000000000000000000008152600401620007db90620011cf565b60405180910390fd5b505050565b600073ffffffffffffffffffffffffffffffffffffffff168273ffffffffffffffffffffffffffffffffffffffff16036200085b576040517f08c379a0000000000000000000000000000000000000000000000000000000008152600401620008529062001241565b60405180910390fd5b6200086c8162000bd860201b60201c565b15620008af576040517f08c379a0000000000000000000000000000000000000000000000000000000008152600401620008a690620012b3565b60405180910390fd5b620008c560008383600162000c2160201b60201c565b620008d68162000bd860201b60201c565b1562000919576040517f08c379a00000000000000000000000000000000000000000000000000000000081526004016200091090620012b3565b60405180910390fd5b6001600360008473ffffffffffffffffffffffffffffffffffffffff1673ffffffffffffffffffffffffffffffffffffffff16815260200190815260200160002060008282540192505081905550816002600083815260200190815260200160002060006101000a81548173ffffffffffffffffffffffffffffffffffffffff021916908373ffffffffffffffffffffffffffffffffffffffff160217905550808273ffffffffffffffffffffffffffffffffffffffff16600073ffffffffffffffffffffffffffffffffffffffff167fddf252ad1be2c89b69c2b068fc378daa952ba7f163c4a11628f55a4df523b3ef60405160405180910390a462000a2b60008383600162000d7f60201b60201c565b5050565b600062000a5d8473ffffffffffffffffffffffffffffffffffffffff1662000d8560201b62002df61760201c565b1562000bcb578373ffffffffffffffffffffffffffffffffffffffff1663150b7a0262000a8f6200060260201b60201c565b8786866040518563ffffffff1660e01b815260040162000ab39493929190620013d9565b6020604051808303816000875af192505050801562000af257506040513d601f19601f8201168201806040525081019062000aef91906200148f565b60015b62000b7a573d806000811462000b25576040519150601f19603f3d011682016040523d82523d6000602084013e62000b2a565b606091505b50600081510362000b72576040517f08c379a000000000000000000000000000000000000000000000000000000000815260040162000b6990620011cf565b60405180910390fd5b805181602001fd5b63150b7a0260e01b7bffffffffffffffffffffffffffffffffffffffffffffffffffffffff1916817bffffffffffffffffffffffffffffffffffffffffffffffffffffffff19161491505062000bd0565b600190505b949350505050565b60008073ffffffffffffffffffffffffffffffffffffffff1662000c028362000da860201b60201c565b73ffffffffffffffffffffffffffffffffffffffff1614159050919050565b62000c3a8484848462000de560201b62002e191760201c565b8273ffffffffffffffffffffffffffffffffffffffff168473ffffffffffffffffffffffffffffffffffffffff161415801562000cda5750600073ffffffffffffffffffffffffffffffffffffffff166007600084815260200190815260200160002060000160009054906101000a900473ffffffffffffffffffffffffffffffffffffffff1673ffffffffffffffffffffffffffffffffffffffff1614155b1562000d795760076000838152602001908152602001600020600080820160006101000a81549073ffffffffffffffffffffffffffffffffffffffff021916905560018201600090555050600073ffffffffffffffffffffffffffffffffffffffff16827f4e06b4e7000e659094299b3533b47b6aa8ad048e95e872d23d1f4ee55af89cfe600060405162000d70919062001522565b60405180910390a35b50505050565b50505050565b6000808273ffffffffffffffffffffffffffffffffffffffff163b119050919050565b60006002600083815260200190815260200160002060009054906101000a900473ffffffffffffffffffffffffffffffffffffffff169050919050565b600181111562000f0c57600073ffffffffffffffffffffffffffffffffffffffff168473ffffffffffffffffffffffffffffffffffffffff161462000e7d5780600360008673ffffffffffffffffffffffffffffffffffffffff1673ffffffffffffffffffffffffffffffffffffffff168152602001908152602001600020600082825462000e7591906200153f565b925050819055505b600073ffffffffffffffffffffffffffffffffffffffff168373ffffffffffffffffffffffffffffffffffffffff161462000f0b5780600360008573ffffffffffffffffffffffffffffffffffffffff1673ffffffffffffffffffffffffffffffffffffffff168152602001908152602001600020600082825462000f0391906200157a565b925050819055505b5b50505050565b82805462000f209062001606565b90600052602060002090601f01602090048101928262000f44576000855562000f90565b82601f1062000f5f57805160ff191683800117855562000f90565b8280016001018555821562000f90579182015b8281111562000f8f57825182559160200191906001019062000f72565b5b50905062000f9f919062000fa3565b5090565b5b8082111562000fbe57600081600090555060010162000fa4565b5090565b7f4e487b7100000000000000000000000000000000000000000000000000000000600052603260045260246000fd5b7f4e487b7100000000000000000000000000000000000000000000000000000000600052601160045260246000fd5b600061ffff82169050919050565b60006200103b8262001020565b915061ffff820362001052576200105162000ff1565b5b600182019050919050565b60006200106a8262001020565b9150620010778362001020565b92508261ffff0382111562001091576200109062000ff1565b5b828201905092915050565b600082825260208201905092915050565b7f4552433732313a20617070726f766520746f2063616c6c657200000000000000600082015250565b6000620010e56019836200109c565b9150620010f282620010ad565b602082019050919050565b600060208201905081810360008301526200111881620010d6565b9050919050565b60008115159050919050565b62001136816200111f565b82525050565b60006020820190506200115360008301846200112b565b92915050565b7f4552433732313a207472616e7366657220746f206e6f6e20455243373231526560008201527f63656976657220696d706c656d656e7465720000000000000000000000000000602082015250565b6000620011b76032836200109c565b9150620011c48262001159565b604082019050919050565b60006020820190508181036000830152620011ea81620011a8565b9050919050565b7f4552433732313a206d696e7420746f20746865207a65726f2061646472657373600082015250565b6000620012296020836200109c565b91506200123682620011f1565b602082019050919050565b600060208201905081810360008301526200125c816200121a565b9050919050565b7f4552433732313a20746f6b656e20616c7265616479206d696e74656400000000600082015250565b60006200129b601c836200109c565b9150620012a88262001263565b602082019050919050565b60006020820190508181036000830152620012ce816200128c565b9050919050565b600073ffffffffffffffffffffffffffffffffffffffff82169050919050565b60006200130282620012d5565b9050919050565b6200131481620012f5565b82525050565b6000819050919050565b6200132f816200131a565b82525050565b600081519050919050565b600082825260208201905092915050565b60005b838110156200137157808201518184015260208101905062001354565b8381111562001381576000848401525b50505050565b6000601f19601f8301169050919050565b6000620013a58262001335565b620013b1818562001340565b9350620013c381856020860162001351565b620013ce8162001387565b840191505092915050565b6000608082019050620013f0600083018762001309565b620013ff602083018662001309565b6200140e604083018562001324565b818103606083015262001422818462001398565b905095945050505050565b600080fd5b60007fffffffff0000000000000000000000000000000000000000000000000000000082169050919050565b620014698162001432565b81146200147557600080fd5b50565b60008151905062001489816200145e565b92915050565b600060208284031215620014a857620014a76200142d565b5b6000620014b88482850162001478565b91505092915050565b6000819050919050565b600067ffffffffffffffff82169050919050565b6000819050919050565b60006200150a62001504620014fe84620014c1565b620014df565b620014cb565b9050919050565b6200151c81620014e9565b82525050565b600060208201905062001539600083018462001511565b92915050565b60006200154c826200131a565b915062001559836200131a565b9250828210156200156f576200156e62000ff1565b5b828203905092915050565b600062001587826200131a565b915062001594836200131a565b9250827fffffffffffffffffffffffffffffffffffffffffffffffffffffffffffffffff03821115620015cc57620015cb62000ff1565b5b828201905092915050565b7f4e487b7100000000000000000000000000000000000000000000000000000000600052602260045260246000fd5b600060028204905060018216806200161f57607f821691505b602082108103620016355762001634620015d7565b5b50919050565b615cec806200164b6000396000f3fe6080604052600436106101cc5760003560e01c806370a08231116100f7578063aa585d5611610095578063e030565e11610064578063e030565e1461068b578063e985e9c5146106b4578063f6ea5882146106f1578063f9f027fa1461071a576101cc565b8063aa585d56146105bf578063b88d4fde146105e8578063c2f1f14a14610611578063c87b56dd1461064e576101cc565b80638fc88c48116100d15780638fc88c48146104f157806390e3019e1461052e57806395d89b411461056b578063a22cb46514610596576101cc565b806370a082311461044c57806376e23cae146104895780638b4bd105146104c6576101cc565b806323b872dd1161016f57806340993b261161013e57806340993b261461038d57806342842e0e146103a9578063583d0e93146103d25780636352211e1461040f576101cc565b806323b872dd146102fb57806329bc3fde146103245780632d58018d1461033b5780633e6ebaf914610364576101cc565b806306fdde03116101ab57806306fdde031461024e578063081812fc14610279578063095ea7b3146102b65780631d3ec396146102df576101cc565b8062223f83146101d157806301ffc9a7146101fa57806302362e7314610237575b600080fd5b3480156101dd57600080fd5b506101f860048036038101906101f39190614006565b610743565b005b34801561020657600080fd5b50610221600480360381019061021c91906140b1565b6109ed565b60405161022e91906140ed565b60405180910390f35b34801561024357600080fd5b5061024c610a67565b005b34801561025a57600080fd5b50610263610b9e565b60405161027091906141a1565b60405180910390f35b34801561028557600080fd5b506102a0600480360381019061029b91906141c3565b610c30565b6040516102ad9190614231565b60405180910390f35b3480156102c257600080fd5b506102dd60048036038101906102d89190614278565b610c76565b005b6102f960048036038101906102f491906142f8565b610d8d565b005b34801561030757600080fd5b50610322600480360381019061031d919061435f565b611212565b005b34801561033057600080fd5b50610339611272565b005b34801561034757600080fd5b50610362600480360381019061035d91906141c3565b611321565b005b34801561037057600080fd5b5061038b600480360381019061038691906143b2565b611485565b005b6103a760048036038101906103a291906143b2565b6115a4565b005b3480156103b557600080fd5b506103d060048036038101906103cb919061435f565b611962565b005b3480156103de57600080fd5b506103f960048036038101906103f49190614405565b611982565b6040516104069190614546565b60405180910390f35b34801561041b57600080fd5b50610436600480360381019061043191906141c3565b611b20565b6040516104439190614231565b60405180910390f35b34801561045857600080fd5b50610473600480360381019061046e9190614562565b611ba6565b604051610480919061459e565b60405180910390f35b34801561049557600080fd5b506104b060048036038101906104ab9190614562565b611c5d565b6040516104bd9190614720565b60405180910390f35b3480156104d257600080fd5b506104db61200a565b6040516104e89190614941565b60405180910390f35b3480156104fd57600080fd5b50610518600480360381019061051391906141c3565b61217a565b604051610525919061459e565b60405180910390f35b34801561053a57600080fd5b5061055560048036038101906105509190614ac3565b61219a565b6040516105629190614546565b60405180910390f35b34801561057757600080fd5b50610580612293565b60405161058d91906141a1565b60405180910390f35b3480156105a257600080fd5b506105bd60048036038101906105b89190614af0565b612325565b005b3480156105cb57600080fd5b506105e660048036038101906105e191906143b2565b61233b565b005b3480156105f457600080fd5b5061060f600480360381019061060a9190614bea565b61245a565b005b34801561061d57600080fd5b50610638600480360381019061063391906141c3565b61246c565b6040516106459190614231565b60405180910390f35b34801561065a57600080fd5b50610675600480360381019061067091906141c3565b6124d3565b60405161068291906141a1565b60405180910390f35b34801561069757600080fd5b506106b260048036038101906106ad9190614c6d565b6125e5565b005b3480156106c057600080fd5b506106db60048036038101906106d69190614cc0565b6126f0565b6040516106e891906140ed565b60405180910390f35b3480156106fd57600080fd5b5061071860048036038101906107139190614006565b612784565b005b34801561072657600080fd5b50610741600480360381019061073c91906141c3565b612a2e565b005b61079561074e612f3f565b600a858154811061076257610761614d00565b5b90600052602060002001848154811061077e5761077d614d00565b5b906000526020600020906006020160010154612f47565b6107d4576040517f08c379a00000000000000000000000000000000000000000000000000000000081526004016107cb90614da1565b60405180910390fd5b600a80549050831061081b576040517f08c379a000000000000000000000000000000000000000000000000000000000815260040161081290614e0d565b60405180910390fd5b600a838154811061082f5761082e614d00565b5b90600052602060002001600a848154811061084d5761084c614d00565b5b90600052602060002001805490508154811061086c5761086b614d00565b5b906000526020600020906006020160020160009054906101000a900461ffff1661ffff1682106108d1576040517f08c379a00000000000000000000000000000000000000000000000000000000081526004016108c890614e79565b60405180910390fd5b6000600a84815481106108e7576108e6614d00565b5b90600052602060002001838154811061090357610902614d00565b5b9060005260206000209060060201600101549050600073ffffffffffffffffffffffffffffffffffffffff166109388261246c565b73ffffffffffffffffffffffffffffffffffffffff161461098e576040517f08c379a000000000000000000000000000000000000000000000000000000000815260040161098590614f31565b60405180910390fd5b81600a85815481106109a3576109a2614d00565b5b9060005260206000200184815481106109bf576109be614d00565b5b906000526020600020906006020160050160006101000a81548160ff02191690831515021790555050505050565b60007fad092b5c000000000000000000000000000000000000000000000000000000007bffffffffffffffffffffffffffffffffffffffffffffffffffffffff1916827bffffffffffffffffffffffffffffffffffffffffffffffffffffffff19161480610a605750610a5f82612fdc565b5b9050919050565b600960009054906101000a900473ffffffffffffffffffffffffffffffffffffffff1673ffffffffffffffffffffffffffffffffffffffff163373ffffffffffffffffffffffffffffffffffffffff1614610af7576040517f08c379a0000000000000000000000000000000000000000000000000000000008152600401610aee90614f9d565b60405180910390fd5b6000600a6001600a80549050610b0d9190614fec565b81548110610b1e57610b1d614d00565b5b906000526020600020018054905014610b6c576040517f08c379a0000000000000000000000000000000000000000000000000000000008152600401610b6390615092565b60405180910390fd5b600a805480610b7e57610b7d6150b2565b5b600190038181906000526020600020016000610b9a9190613ce5565b9055565b606060008054610bad90615110565b80601f0160208091040260200160405190810160405280929190818152602001828054610bd990615110565b8015610c265780601f10610bfb57610100808354040283529160200191610c26565b820191906000526020600020905b815481529060010190602001808311610c0957829003601f168201915b5050505050905090565b6000610c3b826130be565b6004600083815260200190815260200160002060009054906101000a900473ffffffffffffffffffffffffffffffffffffffff169050919050565b6000610c8182611b20565b90508073ffffffffffffffffffffffffffffffffffffffff168373ffffffffffffffffffffffffffffffffffffffff1603610cf1576040517f08c379a0000000000000000000000000000000000000000000000000000000008152600401610ce8906151b3565b60405180910390fd5b8073ffffffffffffffffffffffffffffffffffffffff16610d10612f3f565b73ffffffffffffffffffffffffffffffffffffffff161480610d3f5750610d3e81610d39612f3f565b6126f0565b5b610d7e576040517f08c379a0000000000000000000000000000000000000000000000000000000008152600401610d7590615245565b60405180910390fd5b610d888383613109565b505050565b600a805490508410610dd4576040517f08c379a0000000000000000000000000000000000000000000000000000000008152600401610dcb90614e0d565b60405180910390fd5b600a8481548110610de857610de7614d00565b5b90600052602060002001600a8581548110610e0657610e05614d00565b5b906000526020600020018054905081548110610e2557610e24614d00565b5b906000526020600020906006020160020160009054906101000a900461ffff1661ffff168310610e8a576040517f08c379a0000000000000000000000000000000000000000000000000000000008152600401610e8190614e79565b60405180910390fd5b60008167ffffffffffffffff16600a8681548110610eab57610eaa614d00565b5b906000526020600020018581548110610ec757610ec6614d00565b5b906000526020600020906006020160040154610ee39190615265565b9050803414610f27576040517f08c379a0000000000000000000000000000000000000000000000000000000008152600401610f1e9061530b565b60405180910390fd5b600073ffffffffffffffffffffffffffffffffffffffff16610f488461246c565b73ffffffffffffffffffffffffffffffffffffffff1614610f9e576040517f08c379a0000000000000000000000000000000000000000000000000000000008152600401610f9590615377565b60405180910390fd5b600a8581548110610fb257610fb1614d00565b5b906000526020600020018481548110610fce57610fcd614d00565b5b906000526020600020906006020160050160019054906101000a900460ff1661102c576040517f08c379a0000000000000000000000000000000000000000000000000000000008152600401611023906153e3565b60405180910390fd5b61103583611b20565b73ffffffffffffffffffffffffffffffffffffffff166108fc829081150290604051600060405180830381858888f1935050505015801561107a573d6000803e3d6000fd5b506000600760008581526020019081526020016000209050338160000160006101000a81548173ffffffffffffffffffffffffffffffffffffffff021916908373ffffffffffffffffffffffffffffffffffffffff160217905550600062282072846110e69190615403565b90508067ffffffffffffffff16426110fe9190615445565b82600101819055503373ffffffffffffffffffffffffffffffffffffffff16857f4e06b4e7000e659094299b3533b47b6aa8ad048e95e872d23d1f4ee55af89cfe8360405161114d91906154aa565b60405180910390a36000600a888154811061116b5761116a614d00565b5b90600052602060002001878154811061118757611186614d00565b5b906000526020600020906006020160050160016101000a81548160ff0219169083151502179055506000600a88815481106111c5576111c4614d00565b5b9060005260206000200187815481106111e1576111e0614d00565b5b906000526020600020906006020160050160006101000a81548160ff02191690831515021790555050505050505050565b61122361121d612f3f565b82612f47565b611262576040517f08c379a000000000000000000000000000000000000000000000000000000000815260040161125990615537565b60405180910390fd5b61126d8383836131c2565b505050565b600960009054906101000a900473ffffffffffffffffffffffffffffffffffffffff1673ffffffffffffffffffffffffffffffffffffffff163373ffffffffffffffffffffffffffffffffffffffff1614611302576040517f08c379a00000000000000000000000000000000000000000000000000000000081526004016112f990614f9d565b60405180910390fd5b600a600181600181540180825580915050039060005260206000205050565b600960009054906101000a900473ffffffffffffffffffffffffffffffffffffffff1673ffffffffffffffffffffffffffffffffffffffff163373ffffffffffffffffffffffffffffffffffffffff16146113b1576040517f08c379a00000000000000000000000000000000000000000000000000000000081526004016113a890614f9d565b60405180910390fd5b600a60018160018154018082558091505003906000526020600020505060006001600a805490506113e29190614fec565b90505b8181111561145757600a6001826113fc9190614fec565b8154811061140d5761140c614d00565b5b90600052602060002001600a828154811061142b5761142a614d00565b5b90600052602060002001908054611443929190613d09565b50808061144f90615557565b9150506113e5565b50600a818154811061146c5761146b614d00565b5b9060005260206000200160006114829190613ce5565b50565b6114d7611490612f3f565b600a85815481106114a4576114a3614d00565b5b9060005260206000200184815481106114c0576114bf614d00565b5b906000526020600020906006020160010154612f47565b611516576040517f08c379a000000000000000000000000000000000000000000000000000000000815260040161150d90614da1565b60405180910390fd5b60008111611559576040517f08c379a0000000000000000000000000000000000000000000000000000000008152600401611550906155cc565b60405180910390fd5b80600a848154811061156e5761156d614d00565b5b90600052602060002001838154811061158a57611589614d00565b5b906000526020600020906006020160040181905550505050565b600a8054905083106115eb576040517f08c379a00000000000000000000000000000000000000000000000000000000081526004016115e290614e0d565b60405180910390fd5b600a83815481106115ff576115fe614d00565b5b906000526020600020016001600a858154811061161f5761161e614d00565b5b90600052602060002001805490506116379190614fec565b8154811061164857611647614d00565b5b906000526020600020906006020160020160009054906101000a900461ffff1661ffff168211156116ae576040517f08c379a00000000000000000000000000000000000000000000000000000000081526004016116a590614e79565b60405180910390fd5b60011515600a84815481106116c6576116c5614d00565b5b9060005260206000200183815481106116e2576116e1614d00565b5b906000526020600020906006020160050160009054906101000a900460ff16151514611743576040517f08c379a000000000000000000000000000000000000000000000000000000000815260040161173a9061565e565b60405180910390fd5b600a838154811061175757611756614d00565b5b90600052602060002001828154811061177357611772614d00565b5b9060005260206000209060060201600301543410156117c7576040517f08c379a00000000000000000000000000000000000000000000000000000000081526004016117be9061530b565b60405180910390fd5b6117d081611b20565b73ffffffffffffffffffffffffffffffffffffffff166108fc349081150290604051600060405180830381858888f19350505050158015611815573d6000803e3d6000fd5b5061182961182282611b20565b3383611962565b33600a848154811061183e5761183d614d00565b5b90600052602060002001838154811061185a57611859614d00565b5b906000526020600020906006020160000160006101000a81548173ffffffffffffffffffffffffffffffffffffffff021916908373ffffffffffffffffffffffffffffffffffffffff1602179055506000600a84815481106118bf576118be614d00565b5b9060005260206000200183815481106118db576118da614d00565b5b906000526020600020906006020160050160006101000a81548160ff0219169083151502179055506000600a848154811061191957611918614d00565b5b90600052602060002001838154811061193557611934614d00565b5b906000526020600020906006020160050160016101000a81548160ff021916908315150217905550505050565b61197d8383836040518060200160405280600081525061245a565b505050565b61198a613e71565b600a80549050831080156119be5750600a83815481106119ad576119ac614d00565b5b906000526020600020018054905082105b6119fd576040517f08c379a00000000000000000000000000000000000000000000000000000000081526004016119f490614e79565b60405180910390fd5b611b18600a8481548110611a1457611a13614d00565b5b906000526020600020018381548110611a3057611a2f614d00565b5b90600052602060002090600602016040518060e00160405290816000820160009054906101000a900473ffffffffffffffffffffffffffffffffffffffff1673ffffffffffffffffffffffffffffffffffffffff1673ffffffffffffffffffffffffffffffffffffffff168152602001600182015481526020016002820160009054906101000a900461ffff1661ffff1661ffff16815260200160038201548152602001600482015481526020016005820160009054906101000a900460ff161515151581526020016005820160019054906101000a900460ff16151515158152505061219a565b905092915050565b600080611b2c836134bb565b9050600073ffffffffffffffffffffffffffffffffffffffff168173ffffffffffffffffffffffffffffffffffffffff1603611b9d576040517f08c379a0000000000000000000000000000000000000000000000000000000008152600401611b94906156ca565b60405180910390fd5b80915050919050565b60008073ffffffffffffffffffffffffffffffffffffffff168273ffffffffffffffffffffffffffffffffffffffff1603611c16576040517f08c379a0000000000000000000000000000000000000000000000000000000008152600401611c0d9061575c565b60405180910390fd5b600360008373ffffffffffffffffffffffffffffffffffffffff1673ffffffffffffffffffffffffffffffffffffffff168152602001908152602001600020549050919050565b6060600080606060005b600a80549050811015611d6a5760005b600a8281548110611c8b57611c8a614d00565b5b9060005260206000200180549050811015611d56578673ffffffffffffffffffffffffffffffffffffffff16600a8381548110611ccb57611cca614d00565b5b906000526020600020018281548110611ce757611ce6614d00565b5b906000526020600020906006020160000160009054906101000a900473ffffffffffffffffffffffffffffffffffffffff1673ffffffffffffffffffffffffffffffffffffffff1603611d43578480611d3f9061577c565b9550505b8080611d4e9061577c565b915050611c77565b508080611d629061577c565b915050611c67565b508267ffffffffffffffff811115611d8557611d84614968565b5b604051908082528060200260200182016040528015611dbe57816020015b611dab613e71565b815260200190600190039081611da35790505b50905060005b600a80549050811015611ffe5760005b600a8281548110611de857611de7614d00565b5b9060005260206000200180549050811015611fea578673ffffffffffffffffffffffffffffffffffffffff16600a8381548110611e2857611e27614d00565b5b906000526020600020018281548110611e4457611e43614d00565b5b906000526020600020906006020160000160009054906101000a900473ffffffffffffffffffffffffffffffffffffffff1673ffffffffffffffffffffffffffffffffffffffff1603611fd757611fac600a8381548110611ea857611ea7614d00565b5b906000526020600020018281548110611ec457611ec3614d00565b5b90600052602060002090600602016040518060e00160405290816000820160009054906101000a900473ffffffffffffffffffffffffffffffffffffffff1673ffffffffffffffffffffffffffffffffffffffff1673ffffffffffffffffffffffffffffffffffffffff168152602001600182015481526020016002820160009054906101000a900461ffff1661ffff1661ffff16815260200160038201548152602001600482015481526020016005820160009054906101000a900460ff161515151581526020016005820160019054906101000a900460ff16151515158152505061219a565b838580611fb89061577c565b965081518110611fcb57611fca614d00565b5b60200260200101819052505b8080611fe29061577c565b915050611dd4565b508080611ff69061577c565b915050611dc4565b50809350505050919050565b6060600a805480602002602001604051908101604052809291908181526020016000905b8282101561217157838290600052602060002001805480602002602001604051908101604052809291908181526020016000905b8282101561215e57838290600052602060002090600602016040518060e00160405290816000820160009054906101000a900473ffffffffffffffffffffffffffffffffffffffff1673ffffffffffffffffffffffffffffffffffffffff1673ffffffffffffffffffffffffffffffffffffffff168152602001600182015481526020016002820160009054906101000a900461ffff1661ffff1661ffff16815260200160038201548152602001600482015481526020016005820160009054906101000a900460ff161515151581526020016005820160019054906101000a900460ff16151515158152505081526020019060010190612062565b505050508152602001906001019061202e565b50505050905090565b600060076000838152602001908152602001600020600101549050919050565b6121a2613e71565b6000604051806101200160405280846000015173ffffffffffffffffffffffffffffffffffffffff16815260200184602001518152602001846040015161ffff16815260200184606001518152602001846080015181526020018460a00151151581526020018460c0015115158152602001600760008660200151815260200190815260200160002060000160009054906101000a900473ffffffffffffffffffffffffffffffffffffffff1673ffffffffffffffffffffffffffffffffffffffff168152602001600760008660200151815260200190815260200160002060010154815250905080915050919050565b6060600180546122a290615110565b80601f01602080910402602001604051908101604052809291908181526020018280546122ce90615110565b801561231b5780601f106122f05761010080835404028352916020019161231b565b820191906000526020600020905b8154815290600101906020018083116122fe57829003601f168201915b5050505050905090565b612337612330612f3f565b83836134f8565b5050565b61238d612346612f3f565b600a858154811061235a57612359614d00565b5b90600052602060002001848154811061237657612375614d00565b5b906000526020600020906006020160010154612f47565b6123cc576040517f08c379a00000000000000000000000000000000000000000000000000000000081526004016123c390614da1565b60405180910390fd5b6000811161240f576040517f08c379a0000000000000000000000000000000000000000000000000000000008152600401612406906155cc565b60405180910390fd5b80600a848154811061242457612423614d00565b5b9060005260206000200183815481106124405761243f614d00565b5b906000526020600020906006020160030181905550505050565b61246684848484613664565b50505050565b6000426007600084815260200190815260200160002060010154106124c9576007600083815260200190815260200160002060000160009054906101000a900473ffffffffffffffffffffffffffffffffffffffff1690506124ce565b600090505b919050565b60606124de826130be565b60006006600084815260200190815260200160002080546124fe90615110565b80601f016020809104026020016040519081016040528092919081815260200182805461252a90615110565b80156125775780601f1061254c57610100808354040283529160200191612577565b820191906000526020600020905b81548152906001019060200180831161255a57829003601f168201915b5050505050905060006125886136c0565b9050600081510361259d5781925050506125e0565b6000825111156125d25780826040516020016125ba929190615800565b604051602081830303815290604052925050506125e0565b6125db846136d7565b925050505b919050565b6125ef3384612f47565b61262e576040517f08c379a000000000000000000000000000000000000000000000000000000000815260040161262590615896565b60405180910390fd5b6000600760008581526020019081526020016000209050828160000160006101000a81548173ffffffffffffffffffffffffffffffffffffffff021916908373ffffffffffffffffffffffffffffffffffffffff1602179055508167ffffffffffffffff1681600101819055508273ffffffffffffffffffffffffffffffffffffffff16847f4e06b4e7000e659094299b3533b47b6aa8ad048e95e872d23d1f4ee55af89cfe846040516126e291906154aa565b60405180910390a350505050565b6000600560008473ffffffffffffffffffffffffffffffffffffffff1673ffffffffffffffffffffffffffffffffffffffff16815260200190815260200160002060008373ffffffffffffffffffffffffffffffffffffffff1673ffffffffffffffffffffffffffffffffffffffff16815260200190815260200160002060009054906101000a900460ff16905092915050565b6127d661278f612f3f565b600a85815481106127a3576127a2614d00565b5b9060005260206000200184815481106127bf576127be614d00565b5b906000526020600020906006020160010154612f47565b612815576040517f08c379a000000000000000000000000000000000000000000000000000000000815260040161280c90614da1565b60405180910390fd5b600a80549050831061285c576040517f08c379a000000000000000000000000000000000000000000000000000000000815260040161285390614e0d565b60405180910390fd5b600a83815481106128705761286f614d00565b5b90600052602060002001600a848154811061288e5761288d614d00565b5b9060005260206000200180549050815481106128ad576128ac614d00565b5b906000526020600020906006020160020160009054906101000a900461ffff1661ffff168210612912576040517f08c379a000000000000000000000000000000000000000000000000000000000815260040161290990614e79565b60405180910390fd5b6000600a848154811061292857612927614d00565b5b90600052602060002001838154811061294457612943614d00565b5b9060005260206000209060060201600101549050600073ffffffffffffffffffffffffffffffffffffffff166129798261246c565b73ffffffffffffffffffffffffffffffffffffffff16146129cf576040517f08c379a00000000000000000000000000000000000000000000000000000000081526004016129c690615902565b60405180910390fd5b81600a85815481106129e4576129e3614d00565b5b906000526020600020018481548110612a00576129ff614d00565b5b906000526020600020906006020160050160016101000a81548160ff02191690831515021790555050505050565b600960009054906101000a900473ffffffffffffffffffffffffffffffffffffffff1673ffffffffffffffffffffffffffffffffffffffff163373ffffffffffffffffffffffffffffffffffffffff1614612abe576040517f08c379a0000000000000000000000000000000000000000000000000000000008152600401612ab590614f9d565b60405180910390fd5b6000600a8281548110612ad457612ad3614d00565b5b906000526020600020018054905014612b22576040517f08c379a0000000000000000000000000000000000000000000000000000000008152600401612b1990615092565b60405180910390fd5b60008190505b6001600a8381548110612b3e57612b3d614d00565b5b9060005260206000200180549050612b569190614fec565b811015612d0b57600a8281548110612b7157612b70614d00565b5b90600052602060002001600182612b889190615445565b81548110612b9957612b98614d00565b5b9060005260206000209060060201600a8381548110612bbb57612bba614d00565b5b906000526020600020018281548110612bd757612bd6614d00565b5b90600052602060002090600602016000820160009054906101000a900473ffffffffffffffffffffffffffffffffffffffff168160000160006101000a81548173ffffffffffffffffffffffffffffffffffffffff021916908373ffffffffffffffffffffffffffffffffffffffff160217905550600182015481600101556002820160009054906101000a900461ffff168160020160006101000a81548161ffff021916908361ffff16021790555060038201548160030155600482015481600401556005820160009054906101000a900460ff168160050160006101000a81548160ff0219169083151502179055506005820160019054906101000a900460ff168160050160016101000a81548160ff0219169083151502179055509050508080612d039061577c565b915050612b28565b50600a8181548110612d2057612d1f614d00565b5b90600052602060002001805480612d3a57612d396150b2565b5b6001900381819060005260206000209060060201600080820160006101000a81549073ffffffffffffffffffffffffffffffffffffffff021916905560018201600090556002820160006101000a81549061ffff0219169055600382016000905560048201600090556005820160006101000a81549060ff02191690556005820160016101000a81549060ff02191690555050905550565b6001816000016000828254019250508190555050565b600081600001549050919050565b6000808273ffffffffffffffffffffffffffffffffffffffff163b119050919050565b6001811115612f3957600073ffffffffffffffffffffffffffffffffffffffff168473ffffffffffffffffffffffffffffffffffffffff1614612ead5780600360008673ffffffffffffffffffffffffffffffffffffffff1673ffffffffffffffffffffffffffffffffffffffff1681526020019081526020016000206000828254612ea59190614fec565b925050819055505b600073ffffffffffffffffffffffffffffffffffffffff168373ffffffffffffffffffffffffffffffffffffffff1614612f385780600360008573ffffffffffffffffffffffffffffffffffffffff1673ffffffffffffffffffffffffffffffffffffffff1681526020019081526020016000206000828254612f309190615445565b925050819055505b5b50505050565b600033905090565b600080612f5383611b20565b90508073ffffffffffffffffffffffffffffffffffffffff168473ffffffffffffffffffffffffffffffffffffffff161480612f955750612f9481856126f0565b5b80612fd357508373ffffffffffffffffffffffffffffffffffffffff16612fbb84610c30565b73ffffffffffffffffffffffffffffffffffffffff16145b91505092915050565b60007f80ac58cd000000000000000000000000000000000000000000000000000000007bffffffffffffffffffffffffffffffffffffffffffffffffffffffff1916827bffffffffffffffffffffffffffffffffffffffffffffffffffffffff191614806130a757507f5b5e139f000000000000000000000000000000000000000000000000000000007bffffffffffffffffffffffffffffffffffffffffffffffffffffffff1916827bffffffffffffffffffffffffffffffffffffffffffffffffffffffff1916145b806130b757506130b68261373f565b5b9050919050565b6130c7816137a9565b613106576040517f08c379a00000000000000000000000000000000000000000000000000000000081526004016130fd906156ca565b60405180910390fd5b50565b816004600083815260200190815260200160002060006101000a81548173ffffffffffffffffffffffffffffffffffffffff021916908373ffffffffffffffffffffffffffffffffffffffff160217905550808273ffffffffffffffffffffffffffffffffffffffff1661317c83611b20565b73ffffffffffffffffffffffffffffffffffffffff167f8c5be1e5ebec7d5bd14f71427d1e84f3dd0314c0f7b2291e5b200ac8c7c3b92560405160405180910390a45050565b8273ffffffffffffffffffffffffffffffffffffffff166131e282611b20565b73ffffffffffffffffffffffffffffffffffffffff1614613238576040517f08c379a000000000000000000000000000000000000000000000000000000000815260040161322f90615994565b60405180910390fd5b600073ffffffffffffffffffffffffffffffffffffffff168273ffffffffffffffffffffffffffffffffffffffff16036132a7576040517f08c379a000000000000000000000000000000000000000000000000000000000815260040161329e90615a26565b60405180910390fd5b6132b483838360016137ea565b8273ffffffffffffffffffffffffffffffffffffffff166132d482611b20565b73ffffffffffffffffffffffffffffffffffffffff161461332a576040517f08c379a000000000000000000000000000000000000000000000000000000000815260040161332190615994565b60405180910390fd5b6004600082815260200190815260200160002060006101000a81549073ffffffffffffffffffffffffffffffffffffffff02191690556001600360008573ffffffffffffffffffffffffffffffffffffffff1673ffffffffffffffffffffffffffffffffffffffff168152602001908152602001600020600082825403925050819055506001600360008473ffffffffffffffffffffffffffffffffffffffff1673ffffffffffffffffffffffffffffffffffffffff16815260200190815260200160002060008282540192505081905550816002600083815260200190815260200160002060006101000a81548173ffffffffffffffffffffffffffffffffffffffff021916908373ffffffffffffffffffffffffffffffffffffffff160217905550808273ffffffffffffffffffffffffffffffffffffffff168473ffffffffffffffffffffffffffffffffffffffff167fddf252ad1be2c89b69c2b068fc378daa952ba7f163c4a11628f55a4df523b3ef60405160405180910390a46134b68383836001613937565b505050565b60006002600083815260200190815260200160002060009054906101000a900473ffffffffffffffffffffffffffffffffffffffff169050919050565b8173ffffffffffffffffffffffffffffffffffffffff168373ffffffffffffffffffffffffffffffffffffffff1603613566576040517f08c379a000000000000000000000000000000000000000000000000000000000815260040161355d90615a92565b60405180910390fd5b80600560008573ffffffffffffffffffffffffffffffffffffffff1673ffffffffffffffffffffffffffffffffffffffff16815260200190815260200160002060008473ffffffffffffffffffffffffffffffffffffffff1673ffffffffffffffffffffffffffffffffffffffff16815260200190815260200160002060006101000a81548160ff0219169083151502179055508173ffffffffffffffffffffffffffffffffffffffff168373ffffffffffffffffffffffffffffffffffffffff167f17307eab39ab6107e8899845ad3d59bd9653f200f220920489ca2b5937696c318360405161365791906140ed565b60405180910390a3505050565b61366f8484846131c2565b61367b8484848461393d565b6136ba576040517f08c379a00000000000000000000000000000000000000000000000000000000081526004016136b190615b24565b60405180910390fd5b50505050565b606060405180602001604052806000815250905090565b60606136e2826130be565b60006136ec6136c0565b9050600081511161370c5760405180602001604052806000815250613737565b8061371684613ac4565b604051602001613727929190615800565b6040516020818303038152906040525b915050919050565b60007f01ffc9a7000000000000000000000000000000000000000000000000000000007bffffffffffffffffffffffffffffffffffffffffffffffffffffffff1916827bffffffffffffffffffffffffffffffffffffffffffffffffffffffff1916149050919050565b60008073ffffffffffffffffffffffffffffffffffffffff166137cb836134bb565b73ffffffffffffffffffffffffffffffffffffffff1614159050919050565b6137f684848484612e19565b8273ffffffffffffffffffffffffffffffffffffffff168473ffffffffffffffffffffffffffffffffffffffff16141580156138955750600073ffffffffffffffffffffffffffffffffffffffff166007600084815260200190815260200160002060000160009054906101000a900473ffffffffffffffffffffffffffffffffffffffff1673ffffffffffffffffffffffffffffffffffffffff1614155b156139315760076000838152602001908152602001600020600080820160006101000a81549073ffffffffffffffffffffffffffffffffffffffff021916905560018201600090555050600073ffffffffffffffffffffffffffffffffffffffff16827f4e06b4e7000e659094299b3533b47b6aa8ad048e95e872d23d1f4ee55af89cfe60006040516139289190615b89565b60405180910390a35b50505050565b50505050565b600061395e8473ffffffffffffffffffffffffffffffffffffffff16612df6565b15613ab7578373ffffffffffffffffffffffffffffffffffffffff1663150b7a02613987612f3f565b8786866040518563ffffffff1660e01b81526004016139a99493929190615bf9565b6020604051808303816000875af19250505080156139e557506040513d601f19601f820116820180604052508101906139e29190615c5a565b60015b613a67573d8060008114613a15576040519150601f19603f3d011682016040523d82523d6000602084013e613a1a565b606091505b506000815103613a5f576040517f08c379a0000000000000000000000000000000000000000000000000000000008152600401613a5690615b24565b60405180910390fd5b805181602001fd5b63150b7a0260e01b7bffffffffffffffffffffffffffffffffffffffffffffffffffffffff1916817bffffffffffffffffffffffffffffffffffffffffffffffffffffffff191614915050613abc565b600190505b949350505050565b606060006001613ad384613b92565b01905060008167ffffffffffffffff811115613af257613af1614968565b5b6040519080825280601f01601f191660200182016040528015613b245781602001600182028036833780820191505090505b509050600082602001820190505b600115613b87578080600190039150507f3031323334353637383961626364656600000000000000000000000000000000600a86061a8153600a8581613b7b57613b7a615c87565b5b04945060008503613b32575b819350505050919050565b600080600090507a184f03e93ff9f4daa797ed6e38ed64bf6a1f0100000000000000008310613bf0577a184f03e93ff9f4daa797ed6e38ed64bf6a1f0100000000000000008381613be657613be5615c87565b5b0492506040810190505b6d04ee2d6d415b85acef81000000008310613c2d576d04ee2d6d415b85acef81000000008381613c2357613c22615c87565b5b0492506020810190505b662386f26fc100008310613c5c57662386f26fc100008381613c5257613c51615c87565b5b0492506010810190505b6305f5e1008310613c85576305f5e1008381613c7b57613c7a615c87565b5b0492506008810190505b6127108310613caa576127108381613ca057613c9f615c87565b5b0492506004810190505b60648310613ccd5760648381613cc357613cc2615c87565b5b0492506002810190505b600a8310613cdc576001810190505b80915050919050565b5080546000825560060290600052602060002090810190613d069190613ef1565b50565b828054828255906000526020600020906006028101928215613e605760005260206000209160060282015b82811115613e5f5782826000820160009054906101000a900473ffffffffffffffffffffffffffffffffffffffff168160000160006101000a81548173ffffffffffffffffffffffffffffffffffffffff021916908373ffffffffffffffffffffffffffffffffffffffff160217905550600182015481600101556002820160009054906101000a900461ffff168160020160006101000a81548161ffff021916908361ffff16021790555060038201548160030155600482015481600401556005820160009054906101000a900460ff168160050160006101000a81548160ff0219169083151502179055506005820160019054906101000a900460ff168160050160016101000a81548160ff021916908315150217905550505091600601919060060190613d34565b5b509050613e6d9190613ef1565b5090565b604051806101200160405280600073ffffffffffffffffffffffffffffffffffffffff16815260200160008152602001600061ffff1681526020016000815260200160008152602001600015158152602001600015158152602001600073ffffffffffffffffffffffffffffffffffffffff168152602001600081525090565b5b80821115613f8057600080820160006101000a81549073ffffffffffffffffffffffffffffffffffffffff021916905560018201600090556002820160006101000a81549061ffff0219169055600382016000905560048201600090556005820160006101000a81549060ff02191690556005820160016101000a81549060ff021916905550600601613ef2565b5090565b6000604051905090565b600080fd5b600080fd5b6000819050919050565b613fab81613f98565b8114613fb657600080fd5b50565b600081359050613fc881613fa2565b92915050565b60008115159050919050565b613fe381613fce565b8114613fee57600080fd5b50565b60008135905061400081613fda565b92915050565b60008060006060848603121561401f5761401e613f8e565b5b600061402d86828701613fb9565b935050602061403e86828701613fb9565b925050604061404f86828701613ff1565b9150509250925092565b60007fffffffff0000000000000000000000000000000000000000000000000000000082169050919050565b61408e81614059565b811461409957600080fd5b50565b6000813590506140ab81614085565b92915050565b6000602082840312156140c7576140c6613f8e565b5b60006140d58482850161409c565b91505092915050565b6140e781613fce565b82525050565b600060208201905061410260008301846140de565b92915050565b600081519050919050565b600082825260208201905092915050565b60005b83811015614142578082015181840152602081019050614127565b83811115614151576000848401525b50505050565b6000601f19601f8301169050919050565b600061417382614108565b61417d8185614113565b935061418d818560208601614124565b61419681614157565b840191505092915050565b600060208201905081810360008301526141bb8184614168565b905092915050565b6000602082840312156141d9576141d8613f8e565b5b60006141e784828501613fb9565b91505092915050565b600073ffffffffffffffffffffffffffffffffffffffff82169050919050565b600061421b826141f0565b9050919050565b61422b81614210565b82525050565b60006020820190506142466000830184614222565b92915050565b61425581614210565b811461426057600080fd5b50565b6000813590506142728161424c565b92915050565b6000806040838503121561428f5761428e613f8e565b5b600061429d85828601614263565b92505060206142ae85828601613fb9565b9150509250929050565b600067ffffffffffffffff82169050919050565b6142d5816142b8565b81146142e057600080fd5b50565b6000813590506142f2816142cc565b92915050565b6000806000806080858703121561431257614311613f8e565b5b600061432087828801613fb9565b945050602061433187828801613fb9565b935050604061434287828801613fb9565b9250506060614353878288016142e3565b91505092959194509250565b60008060006060848603121561437857614377613f8e565b5b600061438686828701614263565b935050602061439786828701614263565b92505060406143a886828701613fb9565b9150509250925092565b6000806000606084860312156143cb576143ca613f8e565b5b60006143d986828701613fb9565b93505060206143ea86828701613fb9565b92505060406143fb86828701613fb9565b9150509250925092565b6000806040838503121561441c5761441b613f8e565b5b600061442a85828601613fb9565b925050602061443b85828601613fb9565b9150509250929050565b61444e81614210565b82525050565b61445d81613f98565b82525050565b600061ffff82169050919050565b61447a81614463565b82525050565b61448981613fce565b82525050565b610120820160008201516144a66000850182614445565b5060208201516144b96020850182614454565b5060408201516144cc6040850182614471565b5060608201516144df6060850182614454565b5060808201516144f26080850182614454565b5060a082015161450560a0850182614480565b5060c082015161451860c0850182614480565b5060e082015161452b60e0850182614445565b50610100820151614540610100850182614454565b50505050565b60006101208201905061455c600083018461448f565b92915050565b60006020828403121561457857614577613f8e565b5b600061458684828501614263565b91505092915050565b61459881613f98565b82525050565b60006020820190506145b3600083018461458f565b92915050565b600081519050919050565b600082825260208201905092915050565b6000819050602082019050919050565b610120820160008201516145fc6000850182614445565b50602082015161460f6020850182614454565b5060408201516146226040850182614471565b5060608201516146356060850182614454565b5060808201516146486080850182614454565b5060a082015161465b60a0850182614480565b5060c082015161466e60c0850182614480565b5060e082015161468160e0850182614445565b50610100820151614696610100850182614454565b50505050565b60006146a883836145e5565b6101208301905092915050565b6000602082019050919050565b60006146cd826145b9565b6146d781856145c4565b93506146e2836145d5565b8060005b838110156147135781516146fa888261469c565b9750614705836146b5565b9250506001810190506146e6565b5085935050505092915050565b6000602082019050818103600083015261473a81846146c2565b905092915050565b600081519050919050565b600082825260208201905092915050565b6000819050602082019050919050565b600081519050919050565b600082825260208201905092915050565b6000819050602082019050919050565b60e0820160008201516147b06000850182614445565b5060208201516147c36020850182614454565b5060408201516147d66040850182614471565b5060608201516147e96060850182614454565b5060808201516147fc6080850182614454565b5060a082015161480f60a0850182614480565b5060c082015161482260c0850182614480565b50505050565b6000614834838361479a565b60e08301905092915050565b6000602082019050919050565b60006148588261476e565b6148628185614779565b935061486d8361478a565b8060005b8381101561489e5781516148858882614828565b975061489083614840565b925050600181019050614871565b5085935050505092915050565b60006148b7838361484d565b905092915050565b6000602082019050919050565b60006148d782614742565b6148e1818561474d565b9350836020820285016148f38561475e565b8060005b8581101561492f578484038952815161491085826148ab565b945061491b836148bf565b925060208a019950506001810190506148f7565b50829750879550505050505092915050565b6000602082019050818103600083015261495b81846148cc565b905092915050565b600080fd5b7f4e487b7100000000000000000000000000000000000000000000000000000000600052604160045260246000fd5b6149a082614157565b810181811067ffffffffffffffff821117156149bf576149be614968565b5b80604052505050565b60006149d2613f84565b90506149de8282614997565b919050565b6149ec81614463565b81146149f757600080fd5b50565b600081359050614a09816149e3565b92915050565b600060e08284031215614a2557614a24614963565b5b614a2f60e06149c8565b90506000614a3f84828501614263565b6000830152506020614a5384828501613fb9565b6020830152506040614a67848285016149fa565b6040830152506060614a7b84828501613fb9565b6060830152506080614a8f84828501613fb9565b60808301525060a0614aa384828501613ff1565b60a08301525060c0614ab784828501613ff1565b60c08301525092915050565b600060e08284031215614ad957614ad8613f8e565b5b6000614ae784828501614a0f565b91505092915050565b60008060408385031215614b0757614b06613f8e565b5b6000614b1585828601614263565b9250506020614b2685828601613ff1565b9150509250929050565b600080fd5b600080fd5b600067ffffffffffffffff821115614b5557614b54614968565b5b614b5e82614157565b9050602081019050919050565b82818337600083830152505050565b6000614b8d614b8884614b3a565b6149c8565b905082815260208101848484011115614ba957614ba8614b35565b5b614bb4848285614b6b565b509392505050565b600082601f830112614bd157614bd0614b30565b5b8135614be1848260208601614b7a565b91505092915050565b60008060008060808587031215614c0457614c03613f8e565b5b6000614c1287828801614263565b9450506020614c2387828801614263565b9350506040614c3487828801613fb9565b925050606085013567ffffffffffffffff811115614c5557614c54613f93565b5b614c6187828801614bbc565b91505092959194509250565b600080600060608486031215614c8657614c85613f8e565b5b6000614c9486828701613fb9565b9350506020614ca586828701614263565b9250506040614cb6868287016142e3565b9150509250925092565b60008060408385031215614cd757614cd6613f8e565b5b6000614ce585828601614263565b9250506020614cf685828601614263565b9150509250929050565b7f4e487b7100000000000000000000000000000000000000000000000000000000600052603260045260246000fd5b7f43616c6c6572206973206e6f7420746f6b656e206f776e6572206e6f7220617060008201527f70726f7665640000000000000000000000000000000000000000000000000000602082015250565b6000614d8b602683614113565b9150614d9682614d2f565b604082019050919050565b60006020820190508181036000830152614dba81614d7e565b9050919050565b7f496e76616c696420466c6f6f7200000000000000000000000000000000000000600082015250565b6000614df7600d83614113565b9150614e0282614dc1565b602082019050919050565b60006020820190508181036000830152614e2681614dea565b9050919050565b7f496e76616c69642053746f726500000000000000000000000000000000000000600082015250565b6000614e63600d83614113565b9150614e6e82614e2d565b602082019050919050565b60006020820190508181036000830152614e9281614e56565b9050919050565b7f53746f72652069732072656e746564206f75742e205761697420666f7220726560008201527f6e742074656e75726520746f206265206f766572206265666f72652073656c6c60208201527f696e672e00000000000000000000000000000000000000000000000000000000604082015250565b6000614f1b604483614113565b9150614f2682614e99565b606082019050919050565b60006020820190508181036000830152614f4a81614f0e565b9050919050565b7f4e6f7420417574686f7269736564000000000000000000000000000000000000600082015250565b6000614f87600e83614113565b9150614f9282614f51565b602082019050919050565b60006020820190508181036000830152614fb681614f7a565b9050919050565b7f4e487b7100000000000000000000000000000000000000000000000000000000600052601160045260246000fd5b6000614ff782613f98565b915061500283613f98565b92508282101561501557615014614fbd565b5b828203905092915050565b7f466c6f6f72206d75737420626520656d70747920746f2062652064656c65746560008201527f6400000000000000000000000000000000000000000000000000000000000000602082015250565b600061507c602183614113565b915061508782615020565b604082019050919050565b600060208201905081810360008301526150ab8161506f565b9050919050565b7f4e487b7100000000000000000000000000000000000000000000000000000000600052603160045260246000fd5b7f4e487b7100000000000000000000000000000000000000000000000000000000600052602260045260246000fd5b6000600282049050600182168061512857607f821691505b60208210810361513b5761513a6150e1565b5b50919050565b7f4552433732313a20617070726f76616c20746f2063757272656e74206f776e6560008201527f7200000000000000000000000000000000000000000000000000000000000000602082015250565b600061519d602183614113565b91506151a882615141565b604082019050919050565b600060208201905081810360008301526151cc81615190565b9050919050565b7f4552433732313a20617070726f76652063616c6c6572206973206e6f7420746f60008201527f6b656e206f776e6572206f7220617070726f76656420666f7220616c6c000000602082015250565b600061522f603d83614113565b915061523a826151d3565b604082019050919050565b6000602082019050818103600083015261525e81615222565b9050919050565b600061527082613f98565b915061527b83613f98565b9250817fffffffffffffffffffffffffffffffffffffffffffffffffffffffffffffffff04831182151516156152b4576152b3614fbd565b5b828202905092915050565b7f496e636f727265637420616d6f756e7400000000000000000000000000000000600082015250565b60006152f5601083614113565b9150615300826152bf565b602082019050919050565b60006020820190508181036000830152615324816152e8565b9050919050565b7f416c72656164792072656e746564000000000000000000000000000000000000600082015250565b6000615361600e83614113565b915061536c8261532b565b602082019050919050565b6000602082019050818103600083015261539081615354565b9050919050565b7f52656e74696e672064697361626c656420666f7220746865204e465400000000600082015250565b60006153cd601c83614113565b91506153d882615397565b602082019050919050565b600060208201905081810360008301526153fc816153c0565b9050919050565b600061540e826142b8565b9150615419836142b8565b92508167ffffffffffffffff048311821515161561543a57615439614fbd565b5b828202905092915050565b600061545082613f98565b915061545b83613f98565b9250827fffffffffffffffffffffffffffffffffffffffffffffffffffffffffffffffff038211156154905761548f614fbd565b5b828201905092915050565b6154a4816142b8565b82525050565b60006020820190506154bf600083018461549b565b92915050565b7f4552433732313a2063616c6c6572206973206e6f7420746f6b656e206f776e6560008201527f72206f7220617070726f76656400000000000000000000000000000000000000602082015250565b6000615521602d83614113565b915061552c826154c5565b604082019050919050565b6000602082019050818103600083015261555081615514565b9050919050565b600061556282613f98565b91506000820361557557615574614fbd565b5b600182039050919050565b7f496e76616c696420507269636500000000000000000000000000000000000000600082015250565b60006155b6600d83614113565b91506155c182615580565b602082019050919050565b600060208201905081810360008301526155e5816155a9565b9050919050565b7f54686973206c616e64206973206e6f7420617661696c626c6520666f7220736160008201527f6c652e0000000000000000000000000000000000000000000000000000000000602082015250565b6000615648602383614113565b9150615653826155ec565b604082019050919050565b600060208201905081810360008301526156778161563b565b9050919050565b7f4552433732313a20696e76616c696420746f6b656e2049440000000000000000600082015250565b60006156b4601883614113565b91506156bf8261567e565b602082019050919050565b600060208201905081810360008301526156e3816156a7565b9050919050565b7f4552433732313a2061646472657373207a65726f206973206e6f74206120766160008201527f6c6964206f776e65720000000000000000000000000000000000000000000000602082015250565b6000615746602983614113565b9150615751826156ea565b604082019050919050565b6000602082019050818103600083015261577581615739565b9050919050565b600061578782613f98565b91507fffffffffffffffffffffffffffffffffffffffffffffffffffffffffffffffff82036157b9576157b8614fbd565b5b600182019050919050565b600081905092915050565b60006157da82614108565b6157e481856157c4565b93506157f4818560208601614124565b80840191505092915050565b600061580c82856157cf565b915061581882846157cf565b91508190509392505050565b7f4552433732313a207472616e736665722063616c6c6572206973206e6f74206f60008201527f776e6572206e6f7220617070726f766564000000000000000000000000000000602082015250565b6000615880603183614113565b915061588b82615824565b604082019050919050565b600060208201905081810360008301526158af81615873565b9050919050565b7f53746f726520616c72656164792072656e746564000000000000000000000000600082015250565b60006158ec601483614113565b91506158f7826158b6565b602082019050919050565b6000602082019050818103600083015261591b816158df565b9050919050565b7f4552433732313a207472616e736665722066726f6d20696e636f72726563742060008201527f6f776e6572000000000000000000000000000000000000000000000000000000602082015250565b600061597e602583614113565b915061598982615922565b604082019050919050565b600060208201905081810360008301526159ad81615971565b9050919050565b7f4552433732313a207472616e7366657220746f20746865207a65726f2061646460008201527f7265737300000000000000000000000000000000000000000000000000000000602082015250565b6000615a10602483614113565b9150615a1b826159b4565b604082019050919050565b60006020820190508181036000830152615a3f81615a03565b9050919050565b7f4552433732313a20617070726f766520746f2063616c6c657200000000000000600082015250565b6000615a7c601983614113565b9150615a8782615a46565b602082019050919050565b60006020820190508181036000830152615aab81615a6f565b9050919050565b7f4552433732313a207472616e7366657220746f206e6f6e20455243373231526560008201527f63656976657220696d706c656d656e7465720000000000000000000000000000602082015250565b6000615b0e603283614113565b9150615b1982615ab2565b604082019050919050565b60006020820190508181036000830152615b3d81615b01565b9050919050565b6000819050919050565b6000819050919050565b6000615b73615b6e615b6984615b44565b615b4e565b6142b8565b9050919050565b615b8381615b58565b82525050565b6000602082019050615b9e6000830184615b7a565b92915050565b600081519050919050565b600082825260208201905092915050565b6000615bcb82615ba4565b615bd58185615baf565b9350615be5818560208601614124565b615bee81614157565b840191505092915050565b6000608082019050615c0e6000830187614222565b615c1b6020830186614222565b615c28604083018561458f565b8181036060830152615c3a8184615bc0565b905095945050505050565b600081519050615c5481614085565b92915050565b600060208284031215615c7057615c6f613f8e565b5b6000615c7e84828501615c45565b91505092915050565b7f4e487b7100000000000000000000000000000000000000000000000000000000600052601260045260246000fdfea2646970667358221220188fa67da26210e4504b59e76cfa55d164d9d7ecabd7132a404e7d1135fe1a3064736f6c634300080e0033",
  "immutableReferences": {},
  "source": "// SPDX-License-Identifier: UNLICENSED\r\npragma solidity ^0.8.0;\r\n\r\nimport \"./ERC4907.sol\";\r\nimport \"../node_modules/@openzeppelin/contracts/utils/Counters.sol\";\r\n\r\ncontract MetaMall is ERC4907 {\r\n    using Counters for Counters.Counter;\r\n    Counters.Counter private currentTokenId;\r\n\r\n    address contractOwner;\r\n\r\n    struct Store {\r\n        address owner;\r\n        uint256 tokenId;\r\n        uint16 storeNumber;\r\n        uint256 price; ///price per month\r\n        uint256 rent;\r\n        bool isSaleable;\r\n        bool isRentable;\r\n    }\r\n\r\n    struct StoreDetails {\r\n        address owner;\r\n        uint256 tokenId;\r\n        uint16 storeNumber;\r\n        uint256 price; //wei currency\r\n        uint256 rent;\r\n        bool isSaleable; //sale rent owned\r\n        bool isRentable;\r\n        address user;\r\n        uint256 expires;\r\n    }\r\n\r\n    Store[][] stores;\r\n\r\n    function mint() internal returns (uint256) {\r\n        currentTokenId.increment();\r\n        uint256 newItemId = currentTokenId.current();\r\n        _safeMint(contractOwner, newItemId);\r\n        return newItemId;\r\n    }\r\n\r\n    constructor() ERC4907(\"MetaMall Shops\", \"LL\") {\r\n        contractOwner = msg.sender;\r\n\r\n        //Floors\r\n        stores.push();\r\n        stores.push();\r\n        stores.push();\r\n        stores.push();\r\n        stores.push();\r\n\r\n        //Floor 0\r\n        for (uint16 i = 0; i < 32; i++) {\r\n            stores[0].push(Store(address(this), mint(), i, 100000000000000000, 0, true, false));\r\n        }\r\n\r\n        //Floor 1\r\n        for (uint16 i = 0; i < 32; i++) {\r\n            stores[1].push(Store(address(this), mint(), i + uint16(stores[0].length), 100000000000000000, 0, true, false));\r\n        }\r\n\r\n        setApprovalForAll(address(this), true);\r\n    }\r\n\r\n    //--------------- F L O O R   M A N A G E M E N T ----------------\r\n\r\n    function removeFloor() public {\r\n        require(msg.sender == contractOwner, \"Not Authorised\");\r\n        require(stores[stores.length - 1].length == 0, \"Floor must be empty to be deleted\");\r\n        stores.pop();\r\n    }\r\n\r\n    function addFloor() public {\r\n        require(msg.sender == contractOwner, \"Not Authorised\");\r\n        stores.push();\r\n    }\r\n\r\n    function addFloorAtIndex(uint index) public {\r\n        //GAS EXPENSIVE\r\n        require(msg.sender == contractOwner, \"Not Authorised\");\r\n\r\n        stores.push();\r\n        for (uint i = stores.length - 1; i > index; i--) { stores[i] = stores[i - 1]; }\r\n        delete stores[index];\r\n    }\r\n\r\n    function removeFloorAtIndex(uint index) public {\r\n        require(msg.sender == contractOwner, \"Not Authorised\");\r\n        require(stores[index].length == 0, \"Floor must be empty to be deleted\");\r\n\r\n        for (uint i = index; i < stores[index].length - 1; i++) { stores[index][i] = stores[index][i + 1]; }\r\n        stores[index].pop();\r\n    }\r\n\r\n    // ------------- G E T T E R   V I E W   F U N C T I O N S -----------------\r\n\r\n    function getStore(uint floor, uint index) public view returns (StoreDetails memory) {\r\n        require(floor < stores.length && index < stores[floor].length, \"Invalid Store\");\r\n        return getStoreDetails(stores[floor][index]);\r\n    }\r\n\r\n    function getStoreDetails(Store memory store) public view returns (StoreDetails memory) {\r\n        StoreDetails memory s = StoreDetails({\r\n            owner: store.owner,\r\n            tokenId: store.tokenId,\r\n            storeNumber: store.storeNumber,\r\n            price: store.price,\r\n            rent: store.rent,\r\n            isSaleable: store.isSaleable,\r\n            isRentable: store.isRentable,\r\n            user: _users[store.tokenId].user,\r\n            expires: _users[store.tokenId].expires\r\n        });\r\n        return s;\r\n    }\r\n\r\n    function getAllStores() public view returns (Store[][] memory) { return stores; }\r\n\r\n    function getOwnedStores(address owner) public view returns (StoreDetails[] memory) {\r\n        uint count = 0;\r\n        uint index = 0;\r\n\r\n        StoreDetails[] memory owned;\r\n        for (uint i = 0; i < stores.length; i++) {\r\n            for (uint j = 0; j < stores[i].length; j++) {\r\n                if (stores[i][j].owner == owner) { count++; }\r\n            }\r\n        }\r\n\r\n        owned = new StoreDetails[](count);\r\n        for (uint i = 0; i < stores.length; i++) {\r\n            for (uint j = 0; j < stores[i].length; j++) {\r\n                if (stores[i][j].owner == owner) {\r\n                    owned[index++] = getStoreDetails(stores[i][j]);\r\n                }\r\n            }\r\n        }\r\n        return owned;\r\n    }\r\n\r\n    // function getRentedStores() public view returns (StoreDetails[] memory) {\r\n    //     uint count = 0;\r\n    //     uint index = 0;\r\n    //\r\n    //     StoreDetails[] memory rented;\r\n    //     for (uint i = 0; i < stores.length; i++) {\r\n    //         for (uint j = 0; j < stores[i].length; j++) {\r\n    //             if (userOf(stores[i][j].tokenId) != address(0)) { count++; }\r\n    //         }\r\n    //     }\r\n    //\r\n    //     rented = new StoreDetails[](count);\r\n    //     for (uint i = 0; i < stores.length; i++) {\r\n    //         for (uint j = 0; j < stores[i].length; j++) {\r\n    //             if (userOf(stores[i][j].tokenId) != address(0)) {\r\n    //                 rented[index++] = getStoreDetails(stores[i][j]);\r\n    //             }\r\n    //         }\r\n    //     }\r\n    //     return rented;\r\n    // }\r\n\r\n    // function getAvailableStores() public view returns (StoreDetails[] memory) {\r\n    //     uint count = 0;\r\n    //     uint index = 0;\r\n\r\n    //     StoreDetails[] memory available;\r\n    //     for (uint i = 0; i < stores.length; i++) {\r\n    //         for (uint j = 0; j < stores[i].length; j++) {\r\n    //             if (stores[i][j].isSaleable || stores[i][j].isRentable) { count++; }\r\n    //         }\r\n    //     }\r\n\r\n    //     available = new StoreDetails[](count);\r\n    //     for (uint i = 0; i < stores.length; i++) {\r\n    //         for (uint j = 0; j < stores[i].length; j++) {\r\n    //             if (stores[i][j].isSaleable || stores[i][j].isRentable) {\r\n    //                 available[index++] = getStoreDetails(stores[i][j]);\r\n    //             }\r\n    //         }\r\n    //     }\r\n    //     return available;\r\n    // }\r\n\r\n    // ----------------- S H O P   N F T   M A N A G E M E N T -----------------\r\n\r\n    function setRentFee(uint floor, uint storeNumber, uint256 _amountPerMonth) public {\r\n        require(_isApprovedOrOwner(_msgSender(), stores[floor][storeNumber].tokenId), \"Caller is not token owner nor approved\");\r\n        require(_amountPerMonth > 0, \"Invalid Price\");\r\n        stores[floor][storeNumber].rent = _amountPerMonth;\r\n    }\r\n\r\n    function setPrice(uint floor, uint storeNumber, uint256 _price) public {\r\n        require(_isApprovedOrOwner(_msgSender(), stores[floor][storeNumber].tokenId), \"Caller is not token owner nor approved\");\r\n        require(_price > 0, \"Invalid Price\");\r\n        stores[floor][storeNumber].price = _price;\r\n    }\r\n\r\n    function setRentable(uint floor, uint storeNumber, bool _rentable) public {\r\n        require(_isApprovedOrOwner(_msgSender(), stores[floor][storeNumber].tokenId), \"Caller is not token owner nor approved\");\r\n        require(floor < stores.length, \"Invalid Floor\");\r\n        require(storeNumber < stores[floor][stores[floor].length].storeNumber , \"Invalid Store\");\r\n\r\n        uint256 tokenId = stores[floor][storeNumber].tokenId;\r\n        require(userOf(tokenId) == address(0), \"Store already rented\");\r\n        stores[floor][storeNumber].isRentable = _rentable;\r\n    }\r\n\r\n    function setSaleable(uint floor, uint storeNumber, bool _saleable) public {\r\n        require(_isApprovedOrOwner(_msgSender(), stores[floor][storeNumber].tokenId), \"Caller is not token owner nor approved\");\r\n        require(floor < stores.length, \"Invalid Floor\");\r\n        require(storeNumber < stores[floor][stores[floor].length].storeNumber , \"Invalid Store\");\r\n\r\n        uint256 tokenId = stores[floor][storeNumber].tokenId;\r\n        require(userOf(tokenId) == address(0), \"Store is rented out. Wait for rent tenure to be over before selling.\");\r\n        stores[floor][storeNumber].isSaleable = _saleable;\r\n    }\r\n\r\n    function rent(uint floor, uint storeNumber, uint256 _tokenId, uint64 month) public payable virtual {\r\n       require(floor < stores.length, \"Invalid Floor\");\r\n        require(storeNumber < stores[floor][stores[floor].length].storeNumber , \"Invalid Store\");\r\n\r\n        uint256 dueAmount = stores[floor][storeNumber].rent * month;\r\n        require(msg.value == dueAmount, \"Incorrect amount\");\r\n        require(userOf(_tokenId) == address(0), \"Already rented\");\r\n        require(stores[floor][storeNumber].isRentable, \"Renting disabled for the NFT\");\r\n\r\n        payable(ownerOf(_tokenId)).transfer(dueAmount);\r\n        UserInfo storage info = _users[_tokenId];\r\n        info.user = msg.sender;\r\n        uint64 timeInSeconds = month * 2629746;\r\n        info.expires = uint256(block.timestamp) + timeInSeconds; //convert months to seconds\r\n\r\n        emit UpdateUser(_tokenId, msg.sender, timeInSeconds);\r\n        stores[floor][storeNumber].isRentable = false;\r\n        stores[floor][storeNumber].isSaleable = false;\r\n    }\r\n\r\n    function buy(uint floor, uint storeNumber, uint256 _tokenId) public payable {\r\n        require(floor < stores.length, \"Invalid Floor\");\r\n        require(storeNumber <= stores[floor][stores[floor].length -1].storeNumber , \"Invalid Store\");\r\n        require(stores[floor][storeNumber].isSaleable == true, \"This land is not availble for sale.\");\r\n        require(msg.value >= stores[floor][storeNumber].price, \"Incorrect amount\");\r\n\r\n        payable(ownerOf(_tokenId)).transfer(msg.value);\r\n        safeTransferFrom(ownerOf(_tokenId), msg.sender, _tokenId);\r\n\r\n        stores[floor][storeNumber].owner = msg.sender;\r\n        stores[floor][storeNumber].isSaleable = false;\r\n        stores[floor][storeNumber].isRentable = false;\r\n    }\r\n}\r\n",
  "sourcePath": "F:\\Notes\\FYP\\MetaMall-FE\\contracts\\MetaMall.sol",
  "compiler": {
    "name": "solc",
    "version": "0.8.14+commit.80d49f37.Emscripten.clang"
  },
  "schemaVersion": "3.4.14",
  "updatedAt": "2023-06-12T03:55:40.588Z",
  "networkType": "ethereum",
  "devdoc": {
    "kind": "dev",
    "methods": {
      "approve(address,uint256)": {
        "details": "See {IERC721-approve}."
      },
      "balanceOf(address)": {
        "details": "See {IERC721-balanceOf}."
      },
      "getApproved(uint256)": {
        "details": "See {IERC721-getApproved}."
      },
      "isApprovedForAll(address,address)": {
        "details": "See {IERC721-isApprovedForAll}."
      },
      "name()": {
        "details": "See {IERC721Metadata-name}."
      },
      "ownerOf(uint256)": {
        "details": "See {IERC721-ownerOf}."
      },
      "safeTransferFrom(address,address,uint256)": {
        "details": "See {IERC721-safeTransferFrom}."
      },
      "safeTransferFrom(address,address,uint256,bytes)": {
        "details": "See {IERC721-safeTransferFrom}."
      },
      "setApprovalForAll(address,bool)": {
        "details": "See {IERC721-setApprovalForAll}."
      },
      "setUser(uint256,address,uint64)": {
        "details": "The zero address indicates there is no user Throws if `tokenId` is not valid NFT",
        "params": {
          "expires": "UNIX timestamp, The new user could use the NFT before expires",
          "user": "The new user of the NFT"
        }
      },
      "supportsInterface(bytes4)": {
        "details": "See {IERC165-supportsInterface}."
      },
      "symbol()": {
        "details": "See {IERC721Metadata-symbol}."
      },
      "tokenURI(uint256)": {
        "details": "See {IERC721Metadata-tokenURI}."
      },
      "transferFrom(address,address,uint256)": {
        "details": "See {IERC721-transferFrom}."
      },
      "userExpires(uint256)": {
        "details": "The zero value indicates that there is no user",
        "params": {
          "tokenId": "The NFT to get the user expires for"
        },
        "returns": {
          "_0": "The user expires for this NFT"
        }
      },
      "userOf(uint256)": {
        "details": "The zero address indicates that there is no user or the user is expired",
        "params": {
          "tokenId": "The NFT to get the user address for"
        },
        "returns": {
          "_0": "The user address for this NFT"
        }
      }
    },
    "version": 1
  },
  "userdoc": {
    "events": {
      "UpdateUser(uint256,address,uint64)": {
        "notice": "Emitted when the `user` of an NFT or the `expires` of the `user` is changed The zero address for user indicates that there is no user address"
      }
    },
    "kind": "user",
    "methods": {
      "setUser(uint256,address,uint64)": {
        "notice": "set the user and expires of a NFT"
      },
      "userExpires(uint256)": {
        "notice": "Get the user expires of an NFT"
      },
      "userOf(uint256)": {
        "notice": "Get the user address of an NFT"
      }
    },
    "version": 1
  }
}